:100000000C94D5000C94FD000C94FD000C94FD00A4
:100010000C94FD000C94FD000C94FD000C94FD006C
:100020000C94FD000C94FD000C9433110C94AF1152
:100030000C94FD000C94FD000C94FD000C94FD004C
:100040000C94FD000C94FD000C94FD000C94FD003C
:100050000C94FD000C94FD000C94FD000C94D71240
:100060000C94FD000C949F120C9479120C94FD00DA
:100070000C94FD000C94FD000C94FD000C94FD000C
:100080000C94FD000C94FD000C94FD000C94FD00FC
:100090000C94FD000C94FD000C94FD000C94FD00EC
:1000A0000C94FD000C94FD000C94FD000706050463
:1000B0000100080A0B0C0D090000000024002700B5
:1000C0002A002D00300000000000250028002B0031
:1000D0002E00310004040404040304050202020299
:1000E00004030202020206060606060604040202D1
:1000F00002040404080201104080401020408040A7
:10010000800802040180402010020110801020406D
:1001100040200000000200090F0000030401000C51
:1001200000000000000000000000000000000000CF
:1001300000080B0002020201000904000001020293
:100140000000052400100105240101010424020619
:100150000524060001070581031000400904010081
:10016000020A0000000705020240000007058302A2
:100170004000000403090412010002EF02014041A3
:1001800023368000010102030141726475696E6FBC
:10019000204C4C430041726475696E6F204C656F52
:1001A0006E6172646F003913321311241FBECFEFDA
:1001B000DAE0DEBFCDBF22E0AAEBB1E001C01D92C4
:1001C000AC3FB207E1F711E0A0E0B1E0E4ECFBE204
:1001D00002C005900D92AA3BB107D9F710E0C4ED1B
:1001E000D0E004C02197FE010E94D413C33DD10783
:1001F000C9F70E946E120C94D5150C940000FC01F6
:1002000082E0808384E0818313821282089580914A
:10021000F002882319F08CEE92E008958CEE92E0C3
:100220000E94FF0081E08093F002F5CF0F931F93AF
:10023000CF93DF938B01FC01C281D381209771F0B2
:10024000E881F9810190F081E02DB801CE01099596
:10025000811105C00884D985C02DF0CF80E0DF91E1
:10026000CF911F910F9108950F931F93CF93DF9319
:100270008B01FC01C281D381209771F0E881F98163
:100280000680F781E02DB801CE010995080F111DF8
:100290000884D985C02DF0CFF8011082DF91CF916D
:1002A0001F910F9108950F931F93CF93DF938B01AD
:1002B000FC01C281D381209771F0E881F98104802B
:1002C000F581E02DB801CE010995009731F408843D
:1002D000D985C02DF0CF90E080E0DF91CF911F91C4
:1002E0000F910895EF92FF920F931F93CF93DF9397
:1002F0007B01FC01C281D38110E000E0209791F0E6
:10030000E881F9810280F381E02DB701CE010995E2
:10031000992334F0080F191F0884D985C02DEECF1A
:100320000FEF1FEFC801DF91CF911F910F91FF9049
:10033000EF9008950895FC012481358162177307B9
:1003400048F480819181009739F0680F791FFB0193
:100350008081089580E0089580E008950E949B01C7
:10036000089508958093E9008091F200882319F0A0
:100370008AE38093E8000895CF93DF93EC01AB010B
:100380000CC0A0E4B0E010C0289894E69093E70277
:100390009BEF9093E8004A1B5B0B41155105C1F0A0
:1003A0004134510574F7DA019091E80092FFFCCFD7
:1003B0009A2FFB01E41BF50BEC0FFD1F2FEF290F0C
:1003C000992311F39091F1009083922F3196F6CFFB
:1003D000CB01DF91CF9108954091E5025091E60263
:1003E0002091E3023091E40242175307B4F4909154
:1003F000E8009570E1F39091E80092FD19C08093B8
:10040000F1008091E5029091E60201968F739927A1
:10041000892B19F48EEF8093E8008091E50290918A
:10042000E60201969093E6028093E50281E008954A
:1004300080E00895EF92FF920F931F93CF93DF9385
:100440007C01062F142F81E0860F880F0E94EC019B
:1004500083E00E94EC01D0E00DC0F701ED0FF11D2B
:1004600084910E94EC01C82F80E00E94EC018C2353
:1004700059F0DF5FD01738F411237CF3F701ED0F4B
:10048000F11D8081EECF81E0DF91CF911F910F911F
:10049000FF90EF900895DF92EF92FF920F931F93DA
:1004A000CF93DF93EB01D42EE52EF82E242F352F9A
:1004B0000BC09E012F5F3F4FFE018491E9010E9416
:1004C000EC019801882351F0890101501109232B77
:1004D00049F0FF2074F388812196F1CFDD24DA946E
:1004E000EE24EA948D2D9E2DDF91CF911F910F91D7
:1004F000FF90EF90DF9008951092E9001092E602CD
:100500001092E5029093E4028093E302089581E063
:100510008730A8F4282F30E0F901EA5CFE4F908183
:10052000992369F08093E90091E09093EB0090812A
:100530009093EC0096E39093ED008F5FE9CFEAEEA5
:10054000F0E08EE78083108208958093E90081E0D7
:100550008093EB006093EC004093ED000895CF93FF
:10056000DF931F92CDB7DEB79FB79983F89487705A
:100570008093E9009091E800892F807295FF04C074
:100580009091F20080E4891B99819FBF0F90DF91C9
:10059000CF910895CF93DF931F92CDB7DEB7FB01C4
:1005A0009091EB02992379F1552384F19FB79983B8
:1005B000F89487708093E9006091F20070E046172C
:1005C00057070CF4BA01962F2FEF290F992351F0FA
:1005D000289894E69093E7029091F1009083922FEF
:1005E0003196F2CF6115710539F08091F2008111D9
:1005F00003C08BE68093E80089818FBFCB010F9009
:10060000DF91CF9108956FEF7FEFF8CF6FEF7FEF1E
:10061000F5CFCF93DF931F92CDB7DEB741E050E027
:10062000BE016F5F7F4F0E94CA02019731F489813A
:1006300090E00F90DF91CF9108958FEF9FEFF9CF6A
:10064000CF93DF931F92CDB7DEB79FB79983F8940E
:1006500087708093E9008091F20099819FBF0F908D
:10066000DF91CF910895DB0114964D915C91159720
:100670006D917C91DC01ED91FC910280F381E02D84
:1006800009950895CF92DF92EF92FF920F931F93F7
:10069000CF93DF938C01DB01D0E0C0E07A0181E0F1
:1006A000E81AF108452BA1F0F80180819181FC0145
:1006B000208131816D01FFEFCF1ADF0A6C91C801F3
:1006C000F9010995892B21F02196A701D601E6CFE2
:1006D000CE01DF91CF911F910F91FF90EF90DF90AE
:1006E000CF90089508956FEF7FEF81E090E00E9432
:1006F0007A030895019709F008956F3F7F4FE1F75E
:10070000E5E4F2E01382128288EE93E0A0E0B0E02C
:1007100084839583A683B78388E291E09183808365
:100720008DEC90E0958784878CEC90E097878687A6
:1007300088EC90E0918B808B89EC90E0938B828B9E
:100740008AEC90E0958B848B8EEC90E0978B868B77
:10075000118E128E138E148ECFCFFC01938D848D4B
:10076000981720F4891B990B019708952FE330E027
:10077000291B3109820F932F911D0895FC01918D42
:10078000828D981761F0A28DAE0FBF2FB11D5D96BF
:100790008C91928D9F5F9F73928F90E008958FEF61
:1007A0009FEF0895FC01918D828D981731F0828D15
:1007B000E80FF11D858D90E008958FEF9FEF08956C
:1007C000FC01218D30E0205C3F4F828DA901481B48
:1007D0005109CA018F739927089585E492E00E9418
:1007E000E00321E0892B09F420E0822F0895CF92C5
:1007F000DF92EF92FF921F93CF93DF93EC016A0198
:100800007B01122F60E079E08DE390E0A701960173
:100810000E94B2132150310941095109569547955B
:1008200037952795E889F98982E08083C11481EEA4
:10083000D806E104F10421F0211580E1380798F091
:10084000E889F989108260E874E88EE190E0A701F8
:1008500096010E94B2132150310941095109569560
:10086000479537952795EC85FD853083EE85FF8587
:100870002083188EEC89FD891083EA89FB898081A9
:1008800080618083EA89FB89808188608083EA892E
:10089000FB89808180688083EA89FB8980818F7DE4
:1008A0008083DF91CF911F91FF90EF90DF90CF90E9
:1008B0000895FC01A48DA80FB92FB11DA35ABF4FF5
:1008C0002C91848D90E001968F739078848FA68907
:1008D000B7892C93A089B1898C9182748C93938D64
:1008E000848D981308950288F389E02D80818F7D8F
:1008F0008083F8CF0F931F93CF93DF93EC0181E0B8
:10090000888F9B8D8C8D9817B1F0062F8B8D90E082
:1009100001968F739078182F8C8D81131DC00FB6A0
:1009200007FCFACFE889F989808185FFF5CFCE01F0
:100930000E945904F1CFE889F989808185FFE5CFCC
:100940009FB7F894EE89FF896083E889F9898081EF
:10095000827480839FBF10C0EB8DEC0FFD2FF11DC3
:10096000E35AFF4F00839FB7F8941B8FEA89FB89F6
:100970008081806280839FBF81E090E0DF91CF9192
:100980001F910F910895CF93DF93EC01888D811112
:1009900004C00DC00FB607FE0DC0EA89FB89808137
:1009A00085FDF8CFA889B9898C9186FFF3CFDF91B7
:1009B000CF910895808185FFF0CFE889F989808102
:1009C00085FFEBCFCE010E945904E7CF80E090E095
:1009D000892B21F00E94ED03811101C008950E942E
:1009E0000000FCCF6FEF7FEF81E090E00E94F90400
:1009F0000895019709F008956F3F7F4FE1F7E5EF04
:100A0000F1E01382128288EE93E0A0E0B0E08483EC
:100A10009583A683B78386E191E0918380838FEFEE
:100A20009FEF95878487E7CFCF93DF931F92CDB752
:100A3000DEB76983DC01ED91FC910280F381E02D4A
:100A400041E050E0BE016F5F7F4F09950F90DF914D
:100A5000CF91089583E00E94B201089583E00E943F
:100A6000AF0290E00895FC018485958599232CF0D0
:100A70002FEF3FEF35872487089582E00E94090316
:100A80000895CF93DF93EC018C859D8599232CF0FD
:100A90008C859D85DF91CF91089582E00E940903A6
:100AA0009D878C87F5CFFC0184859585992334F04B
:100AB00082E00E94200390E00196089582E00E9467
:100AC000200390E008952FEF3FEFFC013587248746
:100AD0000895FC0190819E5F908342E450E061E3C1
:100AE00071E080E80E944B020895CF93DF931F923C
:100AF000CDB7DEB71982CE0101960E9469050E942A
:100B00000701BE016F5F7F4F0E94720189810F90C4
:100B1000DF91CF9108950F931F93CF93DF93CDB7BC
:100B2000DEB729970FB6F894DEBF0FBECDBF8C019C
:100B300090E080E00E947C020E9475051F8299E08F
:100B4000998392E09A8391E09E8390EA98879AEF46
:100B500099872091E5023091E602275F3F4F3C8361
:100B60002B838D83C8010E947C0249E050E0BE01C6
:100B70006F5F7F4F80E00E944B020E94750581E00D
:100B800029960FB6F894DEBF0FBECDBFDF91CF918F
:100B90001F910F910895EEEFFFE72591349181E0C9
:100BA0002B3F3C4D09F080E008951F93CF93DF93D6
:100BB000EC0119818881813A39F0813281F080E03D
:100BC000DF91CF911F9108951132B9F747E050E0BE
:100BD00064E071E080E00E944B0281E0F1CF1332CB
:100BE00031F01032A1F01232C9F081E0E9CF8B81EF
:100BF0009A81892798278927B0E0A0E08093000197
:100C000090930101A0930201B0930301EACF67E042
:100C100070E084E091E00E94BC01E5CF8A8180937E
:100C20000B010E94CB05811116C0E0E0F8E0809135
:100C3000040190910501A0910601B0910701803B4C
:100C40009440A105B10551F0808191818737974784
:100C500051F181E0B5CFEEEFFAE0E9CF80910B01E1
:100C600080FDF2CFEE3F8AE0F80749F08081918164
:100C70008737980721F09093FF0A8093FE0A87E751
:100C800097E791838083809160008093F40188E1ED
:100C90009BE00FB6F894A895809360000FBE9093E8
:100CA000600081E08DCFA895A0E6B0E08C918861CE
:100CB0008C938091F4018C93EE3F8AE0F80741F029
:100CC0008091FE0A9091FF0A9183808381E078CF22
:100CD0001182108281E074CFCF93DF93EC018C817D
:100CE000882341F00E940701BE010E941601DF9196
:100CF000CF910895CE010E94D505F9CF81508F3054
:100D000008F052C0E82FF0E0E857F94F0C94D413E4
:100D1000A906AD0697069D06A306D406D406D406FA
:100D2000B106B706BD06C306C906D406CF06E0E87D
:100D3000F0E080818F7780830895E0E8F0E08081A3
:100D40008F7D80830895E0E8F0E08081877F808355
:100D5000089584B58F7784BD089584B58F7D84BD53
:100D60000895E0E9F0E080818F7780830895E0E9DD
:100D7000F0E080818F7D80830895E0E9F0E080815C
:100D8000877F80830895E0ECF0E080818F77808317
:100D90000895E0ECF0E080818F7D80830895E2EC9F
:100DA000F0E08081877F808308951F93CF93DF9346
:100DB000282F30E0F901EE5EFE4F8491F901ED50ED
:100DC000FF4F1491F901EC52FF4FC491CC23A9F0CD
:100DD000D62F811116C0EC2FF0E0EE0FFF1FEA5363
:100DE000FF4FA591B4918FB7F894D1110DC09C918C
:100DF000E12FE095E923EC938FBFDF91CF911F9115
:100E000008950E947E06E7CFEC91E12BEC93F4CF9E
:100E1000CF93DF9390E0FC01ED50FF4F24918C5273
:100E20009F4FFC018491882319F190E0880F991F4E
:100E3000FC01E854FF4FA591B491FC01EA53FF4F28
:100E4000C591D491662349F06230A9F08FB7F89428
:100E5000EC91E22BEC938FBF0BC09FB7F8948C9171
:100E6000E22FE0958E238C938881E823E8839FBF4F
:100E7000DF91CF9108959FB7F8943C91822F809590
:100E800083238C93E881E22BE8839FBFF1CF8231EB
:100E900008F08251E82FF0E0E455FF4FE491ABE712
:100EA000B0E08C918F7D9E2F990F990F9072892BB6
:100EB0008C93E770E064E0937C00EAE7F0E08081E7
:100EC0008064808380917A0086FDFCCF80917800D9
:100ED000909179000895789484B5826084BD84B53A
:100EE000816084BD85B5826085BD85B5816085BD25
:100EF000EEE6F0E0808181608083E1E8F0E010823E
:100F0000808182608083808181608083E0E8F0E07E
:100F1000808181608083E1E9F0E08081826080836C
:100F2000808181608083E0E9F0E08081816080835E
:100F3000E1ECF0E080818460808380818260808346
:100F4000808181608083E3ECF0E080818160808338
:100F5000E0ECF0E0808182608083E2ECF0E0808170
:100F600081608083EAE7F0E0808184608083808113
:100F700082608083808181608083808180688083BB
:100F800008953FB7F8948091F0019091F101A091FC
:100F9000F201B091F30126B5A89B05C02F3F19F0CF
:100FA0000196A11DB11D3FBFBA2FA92F982F8827E9
:100FB000BC01CD01620F711D811D911D660F771F50
:100FC000881F991F660F771F881F991F08958F929A
:100FD0009F92AF92BF92CF92DF92EF92FF926B01FE
:100FE0007C010E94C1074B015C011BC021E0C21AB9
:100FF000D108E108F10888EE880E83E0981EA11C54
:10100000B11CC114D104E104F10459F00E94C107DC
:10101000681979098A099B09683E73408105910521
:1010200028F7C114D104E104F10459F7FF90EF90BF
:10103000DF90CF90BF90AF909F908F9008951092C7
:10104000EB021092EA021092E902E7EDF0E08081F3
:101050008160808380EA8093D80089B5806189BDF2
:1010600089B5826089BD09B400FEFDCF61E070E002
:1010700080E090E00E94E707E8EDF0E080818F7C5F
:1010800080618083E0EEF0E08081807F8083E1EE0C
:10109000F0E080818E7E80838DE08093E200559A1F
:1010A000209A08959F92AF92BF92CF92DF92EF92D3
:1010B000FF920F931F93CF93DF931F92CDB7DEB7AD
:1010C000D82E8B01942EA52E8091EB02882309F453
:1010D00091C08091E90280FF05C0E0EEF0E08081E0
:1010E00082608083E92CFA2CB12C0F2EFAEFCF2EE0
:1010F000F02D43C08E151F0411F00CF08E2D2FB76C
:101100002983F8942D2D27702093E9002091E80081
:1011100025FF12C0E81AF108D5FC11C0DD20BCF093
:101120002FEF280F882309F1F80130813093F10067
:10113000822F0F5F1F4FF4CF89818FBF1EC02FEF0B
:10114000280F882391F01092F100822FF8CF9FEFA3
:10115000980F882351F098012F5F3F4FF8010491B9
:101160000093F100892F8901F2CFBB20D1F08AE3EF
:101170008093E800B12C89818FBFE114F10411F450
:10118000BB2029F18D2D0E94AF028111B3CFCA94EB
:10119000CC2099F161E070E080E090E00E94E707E8
:1011A000ECCF8091E80085FD09C08AE38093E800D8
:1011B000E114F10401F7BB24B394DDCFE114F10491
:1011C000D1F6D6FED8CF8AE38093E800D4CF5D98DD
:1011D00084E68093E802892D9A2D0F90DF91CF91BC
:1011E0001F910F91FF90EF90DF90CF90BF90AF9045
:1011F0009F9008958FEF9FEFF0CF8FEF9FEFEDCF90
:10120000CF93DF9320910B0121110AC021E030E040
:10121000FC013383228380E090E0DF91CF91089539
:10122000EC0183E00E94520818161906B4F381E01D
:1012300090E09B838A8380E090E0EFCF2FB7F89413
:101240006091EC017091ED018091EE019091EF01C0
:101250002FBF08950F931F93CF93DF93EC010E944C
:101260001E09688779878A879B87E881F9810284CC
:10127000F385E02DCE0109959923ACF40E941E0957
:10128000088519852A853B85601B710B820B930BA2
:101290000C811D812E813F816017710782079307A2
:1012A00020F38FEF9FEFDF91CF911F910F91089562
:1012B00060E082E00E94080760E084E00E94080786
:1012C00060E083E00E94080761E08DE00E9408076B
:1012D0000895611108C076981092BF001092BE0068
:1012E0004093D2000895769AF7CF61110BC05C98B5
:1012F000109295001092940050E050939900409302
:10130000980008955C9AF4CF3E9A549A81E88093AD
:1013100090008BE0809391001092950010929400C1
:101320001092990010929800579A6E9A87E08093D5
:10133000C10089E08093C2001092C3001092BF00E8
:101340001092BE001092D2000895CF93DF93EC016B
:101350002D853E854F8558892417350771F0388BC8
:101360002F8721303105B1F058F02330310509F4D1
:1013700047C02530310509F462C0DF91CF9108954F
:1013800040E061E00E94690940E061E0CE010E9416
:101390007509F3CF8F898234E9F07CF0833429F129
:1013A000843459F7488D60E0CE010E946909498D67
:1013B00061E0CE010E947509E0CF8134F1F6488DDD
:1013C00061E0CE010E946909498D61E0CE010E9471
:1013D0007509D3CF488D60E0CE010E946909498D1F
:1013E00060E0CE010E947509C8CF488D61E0CE0152
:1013F0000E946909498D60E0CE010E947509BDCF48
:101400008F89833481F08434A1F0823409F0B5CF20
:10141000488D60E0CE010E946909498D60E0CE01EF
:101420000E947509AACF498D60E0CE010E9475091E
:10143000A4CF488D60E0CE010E9469099ECF0E9432
:101440001E096D8F7E8F8F8F98A397CF6FEF7FEFE1
:1014500081E090E00E949C0F08950895FC01808136
:101460009181009719F00E943F13089560E070E0A9
:10147000CB010895DC0114962D913C911597232BF7
:1014800069F46115710541F0FB018081882311F039
:1014900080E0089581E0089581E008956115710567
:1014A00059F0FC01808191810E94C51521E0892BB2
:1014B00009F020E0822F0895ED91FC91908181E068
:1014C0009923C9F380E00895FF920F931F93CF9360
:1014D000DF93CDB7DEB764970FB6F894DEBF0FBECB
:1014E000CDBF8C01FC01F380F2E0FF16B1F0FC01EE
:1014F000868197810E947C020E940701B8010E94A8
:1015000053019C01892BD1F4F1E0FF1609F44BC083
:1015100083E0F816C9F080E005C0FC018681978160
:101520000E948B0564960FB6F894DEBF0FBECDBF48
:10153000DF91CF911F910F91FF90089581E01216D6
:10154000130684F380E0EECFF80182818823C1F195
:10155000823031F0813059F0833081F080E0E2CF89
:1015600040E860E185E991E00E941A02DBCF40E8A3
:101570006BE089E891E00E941A02D4CF0E94070133
:101580008E010F5F1F4FB8010E943401F8010190D6
:101590000020E9F73197BF01601B710B40E0C801E3
:1015A0000E941A02BFCF67E771E06115710559F01B
:1015B000FB01449150E080E80E944B0281E0B2CFF1
:1015C00063E771E0F2CF80E0ADCFDC01ED91FC91FB
:1015D0000280F381E02D42E050E06DE371E0099577
:1015E00008950F931F93CF93DF93EC010E94330371
:1015F0008C01CE010E94E50A800F911FDF91CF91EF
:101600001F910F9108956115710581F0FB01019003
:101610000020E9F73197AF01461B570BDC01ED9134
:10162000FC910280F381E02D0995089590E080E01F
:1016300008950F931F93CF93DF93EC010E94030B48
:101640008C01CE010E94E50A800F911FDF91CF919E
:101650001F910F910895CF93DF93DC011D96ED91BB
:10166000FC91E730F10508F0BBC0EC01E65CF44FFB
:101670000C94D413410B540BF80BA70BF30BCD0BAD
:10168000EC0B8E89882309F4ABC081E090E09E8743
:101690008D8760E471E085EF91E00E94190B6FEF98
:1016A0008DE00E94D5069CC08E89882349F18A8DE1
:1016B000811133C08B8D811130C08C8D81112DC073
:1016C0008D8981113FC08F89853409F089C0888D4B
:1016D0008F3F09F085C0898D8F3F09F081C085E07B
:1016E00090E09E878D879C8B8B8B61E671E085EF08
:1016F00091E00E94190B6FEF8DE00E94D50670C03B
:101700001E861D866AE471E085EF91E00E94190B48
:1017100060E08DE00E94D50663C083E090E09E8784
:101720008D8740E061E0CE010E94690940E061E000
:10173000CE010E94750967E571E085EF91E00E9496
:10174000190B4EC082E090E09E878D8749C08E893C
:10175000882389F08A8D811106C08B8D811103C089
:101760008C8D8823A9F08D898823D1F184E090E0C5
:101770009E878D8735C01E861D866AE471E085EFE1
:1017800091E00E94190B60E08DE00E94D50628C010
:1017900081E090E09E878D8723C08E89882341F069
:1017A0008F89853491F081E090E09E878D8718C005
:1017B0001E861D866AE471E085EF91E00E94190B98
:1017C00060E08DE00E94D5060BC0888D8F3F59F7F1
:1017D000898D8F3F41F704C085E090E09E878D871B
:1017E000DF91CF91089583E090E09E878D87F8CFB9
:1017F00081E090E09E878D87F3CF0F931F93CF9367
:10180000DF93EC018091E301882349F10E941E09D6
:101810000091DF011091E0012091E1013091E2019E
:10182000601B710B820B930B673971058105910564
:1018300020F50E941E090F81188529853A85601BB5
:10184000710B820B930B6D3271408105910508F08D
:1018500018828881DF91CF911F910F9108950E9486
:101860001E096093DF017093E0018093E101909382
:10187000E20181E08093E301C9CF8E010F5F1F4F2A
:101880006FE371E0C8010E943A0A811110C0B801EB
:1018900085E492E00E9433030E941E096093DF01F9
:1018A0007093E0018093E1019093E201C2CF6CE676
:1018B00071E085E492E00E94030BEECF0F931F933B
:1018C000CF93DF938C01EB01FC0180819181892B07
:1018D000B1F088819981892B51F181EB91E0A0E0F1
:1018E000892B49F1F801228133818C819D81281750
:1018F000390720F5F801808191810E947614888152
:101900009981F801918380838A819B81938382836B
:101910008C819D8195838483198218821B821A820F
:101920001D821C82DF91CF911F910F91089580E05D
:1019300090E0DC01D5CFA0FFDDCFD4CF68817981E5
:10194000808191810E94CE158C819D81F8019583C3
:1019500084831D821C82E6CFCF93DF93EC01861730
:10196000970711F00E945E0CCE01DF91CF91089590
:10197000CF93DF93EC0188819981009711F00E9449
:101980007614198218821D821C821B821A82DF91B2
:10199000CF910895FC01808191810E947614089571
:1019A0000F931F93CF93DF93EC018B016F5F7F4FFA
:1019B000888199810E94FF14009751F09983888350
:1019C0001B830A8381E0DF91CF911F910F910895CE
:1019D00080E0F9CFCF93DF93EC0128813981232B6D
:1019E00029F02A813B812617370770F4CE010E9427
:1019F000D00C882351F08C819D81892B49F4E8819A
:101A0000F981108281E001C081E0DF91CF910895DA
:101A100081E0FBCFEF92FF920F931F93CF93DF9361
:101A2000FC01C481D581C40FD51F6115710501F179
:101A3000452B41F481E0DF91CF911F910F91FF90F1
:101A4000EF9008957B018C01BE010E94EA0C88236F
:101A500091F3F8012081318184819581B701820F52
:101A6000931F0E94CE15F801D583C48381E0E3CF94
:101A700080E0E1CFCF93DF93EC01FB0144815581FE
:101A8000608171810E940A0D882321F0CE01DF91CF
:101A9000CF910895CE010E94B80CF8CFCF93DF9379
:101AA00000D0CDB7DEB769831A8241E050E0BE01B5
:101AB0006F5F7F4F0E940A0D0F900F90DF91CF91C3
:101AC0000895EF92FF920F931F93CF93DF93EC0152
:101AD0007B018A01BA010E94EA0C882379F01D83F8
:101AE0000C83B701888199810E94CE15CE01DF91C8
:101AF000CF911F910F91FF90EF900895CE010E941A
:101B0000B80CF4CFCF93DF93EC016115710571F040
:101B1000FB0101900020E9F73197AF01461B570BFD
:101B20000E94610DCE01DF91CF9108950E94B80C03
:101B3000F9CFCF92DF92EF92FF920F931F93CF9343
:101B4000DF93EC010E941E09675E7F4F8F4F9F4F0E
:101B50000D8D1E8D2F8D38A1061717072807390701
:101B600048F0DF91CF911F910F91FF90EF90DF90A0
:101B7000CF9008950E941E096D8F7E8F8F8F98A33E
:101B80008A8D882331F09B8D992319F09C8D9111BA
:101B90001EC0882319F09B8D911124C09B8D992321
:101BA00019F02C8D211129C0911132C0811153C01F
:101BB0008C8D882309F458C081E090E09A8B898B42
:101BC00063E971E0CE0102960E94820D2BC085E090
:101BD00090E09A8B898B6FE671E0CE0102960E94AD
:101BE000820D20C083E090E09A8B898B68E771E0DA
:101BF000CE0102960E94820D15C084E090E09A8B7F
:101C0000898B61E871E0CE0102960E94820D0AC0C4
:101C100082E090E09A8B898B6AE871E0CE010296AF
:101C20000E94820DE989FA898B899C89E817F90756
:101C300009F497CFFC8BEB8BE730F10508F091CFDF
:101C4000EC5DF14F0C94D4135B0E6C0E7D0E8E0E7A
:101C50009F0EB00E500E1A8A198A63E971E0CE0108
:101C600002960E94820DDECFC9A0DAA0EBA0FCA0F4
:101C700084EFC80E81E0D81EE11CF11C0E941E09F1
:101C8000C616D706E806F90668F686E090E09A8B55
:101C9000898B6FE371E0CE0102960E94820DC2CF64
:101CA0004EE661E0CE010E9469094EE661E0CE0198
:101CB0000E94750956CF40E860E0CE010E94690994
:101CC00042E361E0CE010E9475090E941E0969A3EA
:101CD0007AA38BA39CA345CF42E361E0CE010E948F
:101CE000690940E860E0CE010E9475090E941E0962
:101CF00069A37AA38BA39CA334CF46E960E0CE010D
:101D00000E94690940E561E0CE010E9475090E94C8
:101D10001E0969A37AA38BA39CA323CF46E960E0A5
:101D2000CE010E94690944E161E0CE010E9475097B
:101D30000E941E0969A37AA38BA39CA312CF44E13E
:101D400061E0CE010E94690946E960E0CE010E948F
:101D500075090E941E0969A37AA38BA39CA301CFD6
:101D600046E960E0CE010E94690944E160E0CE01ED
:101D70000E9475090E941E0969A37AA38BA39CA3E4
:101D8000F0CEFC011182108213821282158214821D
:101D90006115710551F0FB0101900020E9F73197C1
:101DA000AF01461B570B0E94610D0895AF92BF9281
:101DB000CF92DF92EF92FF920F931F93CF93DF9317
:101DC0005C016B018A01E9012417350720F08D2F92
:101DD000EA01022F182F6FE371E0C5010E94C10EC6
:101DE000D6011496ED90FC90CE15DF05D0F4E016E8
:101DF000F10608F07801D601ED91FC911197EE0DF6
:101E0000FF1D108110826D917C916C0F7D1FC501AB
:101E10000E94820DF60180819181E80EF91ED701A2
:101E20001C93C501DF91CF911F910F91FF90EF900F
:101E3000DF90CF90BF90AF900895FF920F931F93C4
:101E4000CF93DF93EC018B01F42E6FE371E00E94DE
:101E5000C10EC8010E942A0999237CF02F2D0F2C56
:101E6000000C330B2817390741F0682FCE010E9470
:101E70004E0DC8010E942A09EFCFCE01DF91CF910C
:101E80001F910F91FF9008950F931F93CF93DF93AE
:101E90008C01EC0121966FE371E0CE010E94C10E2E
:101EA000F801178210861186128626E040E051EE76
:101EB00060E070E085E492E00E94F7036FE371E078
:101EC000CE010E94820DDF91CF911F910F91089555
:101ED000CF93DF93EC010E948409CE0101960E940A
:101EE000440FCE010C960E9458091E861D8681E083
:101EF00090E0988B8F8786E090E09A8B898B85E0C5
:101F000090E09C8B8B8B1D8E1E8E1F8E18A219A2AB
:101F10001AA21BA21CA240E052EC61E070E085EF27
:101F200091E00E9463056CE971E085EF91E00E9409
:101F3000190BDF91CF9108950F931F93CF93DF93E8
:101F4000EC018B01019751F0CD2B19F40F3F1F4F7E
:101F500069F0DF91CF911F910F9108956F3F7F4FEF
:101F600099F78AEB91E00E94680FEECF8CEB91E03D
:101F70000E94CA0CEECF0F931F93CF93DF938C0177
:101F8000EB016FE371E00E94C10E8A8D882331F06E
:101F90009B8D992319F09C8D911118C0882319F0FD
:101FA0009B8D911119C09B8D992319F02C8D2111B6
:101FB00019C091111DC0811121C08C8D811124C0C7
:101FC000C801DF91CF911F910F9108956FE671E0E5
:101FD000C8010E94820DF4CF68E771E0C8010E9439
:101FE000820DEECF61E871E0C8010E94820DE8CF5A
:101FF0006AE871E0C8010E94820DE2CF63E971E0F6
:10200000C8010E94820DDCCF63E971E0C8010E9423
:10201000820DD6CFAF92BF92CF92DF92EF92FF9216
:102020000F931F93CF93DF93CDB7DEB7A4970FB66F
:10203000F894DEBF0FBECDBF7C018B015A01690150
:1020400085E492E00E94E003181619060CF095C092
:102050000E941E09F701678370878187928781E05C
:1020600080836DEA71E0CE014F960E94C10E40E27E
:1020700065E472E0CE0149960E941D0FBE01675EC5
:102080007F4FCE014F960E94AC0CCE0149960E9424
:10209000CA0C21E030E050E040E0BE01615E7F4FBD
:1020A000CE0143960E94D60E70E060E0CE014396CA
:1020B0000E94AE01F8018083CE0143960E94CA0CB3
:1020C00024E030E041E050E0BE01615E7F4FCE0190
:1020D0000D960E94D60ECE010D960E942E0AF50195
:1020E0006083CE010D960E94CA0C2BA13CA144E056
:1020F00050E0BE01615E7F4FCE0107960E94D60E72
:10210000CE0107960E942E0AF6016083CE01079643
:102110000E94CA0C66EB71E0CE0101960E94C10ECE
:10212000BE01615E7F4FCE0101960E943A0DBC0157
:1021300085EF91E00E94F10ACE0101960E94CA0C3F
:10214000F80180818A35B9F011E0CE014F960E94E6
:10215000CA0C812FA4960FB6F894DEBF0FBECDBF78
:10216000DF91CF911F910F91FF90EF90DF90CF9073
:10217000BF90AF90089510E0E8CF10E0EACFEF9263
:10218000FF920F931F93CF93DF9300D000D000D026
:10219000CDB7DEB78C017C018FEFE81AF80A980101
:1021A000275E3F4FA801485E5F4FB801695E7F4FD1
:1021B000C7010E940A10F801858BC7010E94FD0B20
:1021C000F801868B82E00E94470721E0C2970CF05D
:1021D00020E0F801228F84E00E94470721E0C297A7
:1021E0000CF020E0F801238F83E00E94470721E0F4
:1021F000C2970CF020E0F801248FB801CE010196BF
:102200000E94BB0FBE016F5F7F4FC80102960E9404
:10221000AC0CCE0101960E94CA0C26960FB6F8941B
:10222000DEBF0FBECDBFDF91CF911F910F91FF9009
:10223000EF9008958AEB91E00E94BF108AEB91E045
:102240000E942B0B8AEB91E00E94A5098091C701A7
:102250009091C8010597029708F008958AEB91E0E4
:102260000E94990DFACF1F920F920FB60F92112470
:102270002F933F934F935F936F937F938F939F938E
:10228000AF93BF93CF93EF93FF93E1EEF0E0C08164
:102290008081837F8083C3FD18C0C2FD21C0C4FD3F
:1022A0003BC0C0FF4AC0E2EEF0E080818E7E8061DC
:1022B0008083E1EEF0E080818E7E80838091E90270
:1022C0008E7E81608093E90238C042E360E080E066
:1022D0000E94A5021092EB0288E08093F000DDCF0F
:1022E00083E00E94B2018091E802882341F080914E
:1022F000E80281508093E802811101C05D9A8091CB
:10230000E702882361F28091E70281508093E7021F
:102310008111C5CF289AC3CFE2EEF0E080818E7E96
:1023200081608083E1EEF0E080818F7E8083809108
:10233000E9028E7E80618093E902FF91EF91CF9157
:10234000BF91AF919F918F917F916F915F914F91CD
:102350003F912F910F900FBE0F901F9018951F92D5
:102360000F920FB60F9211242F933F934F935F93C9
:102370006F937F938F939F93AF93BF93EF93FF934D
:10238000CF93DF93CDB7DEB72897DEBFCDBF1092D6
:10239000E9008091E80083FF2EC088E0FE013196BD
:1023A0009FEF980F882331F08091F1008083892F6F
:1023B0003196F6CF289884E68093E70282EF8093E7
:1023C000E8009981992384F18EEF8093E800892FAA
:1023D000807609F075C08A814B812C81322F242FA1
:1023E00081112EC0903829F1E1EFF0E010821082C7
:1023F0008EEF8093E80028960FB6F894DEBF0FBEEC
:10240000CDBFDF91CF91FF91EF91BF91AF919F91A0
:102410008F917F916F915F914F913F912F910F908D
:102420000FBE0F901F9018958091E80080FFFCCFA1
:10243000CECF8091EA02E1EFF0E080831082D8CF26
:102440008130A9F08330F9F0853049F1863079F197
:10245000873009F43FC0883079F1893049F69370AC
:10246000C9F50E9487028B818093EB02C1CF911145
:10247000BFCF2130310509F0BBCF8091EA028D7FBB
:102480008093EA02B5CF9111B3CF2130310509F025
:10249000AFCF8091EA0282608093EA02A9CF809157
:1024A000E80080FFFCCF40684093E300A1CFCE015D
:1024B00001960E94640A0CC081E08093F10098CFDD
:1024C0008F8198850E947C02CE0101960E946C0645
:1024D00081118ECF81E28093EB008DCF0E946B073C
:1024E00082EE92E00E941F080E941A110E94E604E8
:1024F000FBCF1F920F920FB60F9211242F933F9391
:102500004F935F936F937F938F939F93AF93BF93FB
:10251000EF93FF9385E492E00E945904FF91EF91BD
:10252000BF91AF919F918F917F916F915F914F91EB
:102530003F912F910F900FBE0F901F9018951F92F3
:102540000F920FB60F9211242F938F939F93AF93F7
:10255000BF93EF93FF93E0915502F0915602808173
:1025600082FD14C0E5E4F2E0A689B7892C91818D43
:102570008F5F8F73928D891771F0DF01E18DF0E02D
:10258000EB5BFD4F258F59968C9305C0E0915B0264
:10259000F0915C028081FF91EF91BF91AF919F918B
:1025A0008F912F910F900FBE0F901F9018951F9233
:1025B0000F920FB60F9211240F931F932F933F93F7
:1025C0004F935F936F937F938F939F93AF93BF933B
:1025D0000091EC011091ED012091EE013091EF019D
:1025E0009091EB01B901A8014F5F5F4F6F4F7F4F93
:1025F00083E0890F8D3740F086E8890FB901A80183
:102600004E5F5F4F6F4F7F4F8093EB014093EC0124
:102610005093ED016093EE017093EF018091F00112
:102620009091F101A091F201B091F3010196A11DE9
:10263000B11D8093F0019093F101A093F201B0934A
:10264000F301BF91AF919F918F917F916F915F91B6
:102650004F913F912F911F910F910F900FBE0F90AF
:102660001F9018956FEF7FEF90E080E00E949C0F25
:1026700008950E9473030E94F2040C94260A1F938B
:10268000FC0199278827BC01E89411911032E9F3E5
:10269000193010F01E30C8F31B3251F01D3249F4CE
:1026A000689406C00E946613610F711D811D911D03
:1026B000119110531A30B0F33EF4909580957095B7
:1026C00061957F4F8F4F9F4F1F910895592F482F2E
:1026D000372F262F660F771F881F991F660F771FCA
:1026E000881F991F620F731F841F951F660F771F26
:1026F000881F991F08952F923F924F925F926F9279
:102700007F928F929F92AF92BF92CF92DF92EF9281
:10271000FF920F931F93CF93DF93CDB7DEB7CA1B02
:10272000DB0B0FB6F894DEBF0FBECDBF09942A882D
:10273000398848885F846E847D848C849B84AA84D5
:10274000B984C884DF80EE80FD800C811B81AA8162
:10275000B981CE0FD11D0FB6F894DEBF0FBECDBF2D
:10276000ED010895A1E21A2EAA1BBB1BFD010DC0AD
:10277000AA1FBB1FEE1FFF1FA217B307E407F50731
:1027800020F0A21BB30BE40BF50B661F771F881F0D
:10279000991F1A9469F760957095809590959B01A3
:1027A000AC01BD01CF010895EE0FFF1F0590F4911C
:1027B000E02D09940F931F93CF93DF9382309105FF
:1027C00010F482E090E0E091FA02F091FB0230E038
:1027D00020E0B0E0A0E0309799F42115310509F42C
:1027E0004AC0281B390B24303105D8F58A819B81DA
:1027F0006115710589F1FB0193838283FE0111C08C
:10280000408151810281138148175907E0F0481730
:10281000590799F4109761F012960C93129713963A
:102820001C933296CF01DF91CF911F910F910895A4
:102830000093FA021093FB02F4CF2115310551F0F9
:102840004217530738F0A901DB019A01BD01DF01EE
:10285000F801C1CFEF01F9CF9093FB028093FA0208
:10286000CDCFFE01E20FF31F8193919322503109E6
:1028700039832883D7CF2091F8023091F902232B96
:1028800041F420910E0130910F013093F902209311
:10289000F80220910C0130910D012115310541F410
:1028A0002DB73EB74091100150911101241B350BFB
:1028B000E091F802F091F902E217F307A0F42E1B61
:1028C0003F0B2817390778F0AC014E5F5F4F241794
:1028D000350748F04E0F5F1F5093F9024093F802FE
:1028E000819391939FCFF0E0E0E09CCFCF93DF9373
:1028F0000097E9F0FC01329713821282A091FA024C
:10290000B091FB02ED0130E020E01097A1F42081AE
:102910003181820F931F2091F8023091F90228171C
:10292000390709F061C0F093F902E093F802DF91F2
:10293000CF910895EA01CE17DF07E8F54A815B8160
:102940009E0141155105B1F7E901FB83EA834991E5
:102950005991C40FD51FEC17FD0761F48081918157
:102960000296840F951FE901998388838281938160
:102970009B838A83F0E0E0E012968D919C911397FF
:102980000097B9F52D913C911197CD010296820FD8
:10299000931F2091F8023091F9022817390739F670
:1029A000309751F51092FB021092FA02B093F9029F
:1029B000A093F802BCCFD383C28340815181840F9E
:1029C000951FC817D90761F44E5F5F4F88819981C1
:1029D000480F591F518340838A819B81938382834F
:1029E0002115310509F0B0CFF093FB02E093FA0214
:1029F0009ECFFD01DC01C0CF13821282D7CFB0E0A1
:102A0000A0E0E5E0F5E10C947D138C01009751F412
:102A1000CB010E94DA138C01C801CDB7DEB7E0E12B
:102A20000C949913FC01E60FF71F9C012250310909
:102A3000E217F30708F49DC0D901CD91DC911197FD
:102A4000C617D70798F0C530D10530F3CE010497EB
:102A50008617970708F3C61BD70B2297C193D1930C
:102A60006D937C93CF010E947614D6CF5B01AC1A94
:102A7000BD0A4C018C0E9D1EA091FA02B091FB0282
:102A8000512C412CF12CE12C109731F58091F8025A
:102A90009091F9028815990509F05CC04616570611
:102AA00008F058C080910C0190910D01009741F4FD
:102AB0008DB79EB74091100150911101841B950B69
:102AC000E817F90708F055C0F093F902E093F8020F
:102AD000F90171836083A0CF8D919C91119712961B
:102AE0006C90129713967C901397A815B90559F519
:102AF0006C0142E0C40ED11CCA14DB0420F1AC010D
:102B00004A195B09DA011296159780F06282738286
:102B100051834083D9016D937C93E114F10471F0EA
:102B2000D7011396FC93EE93129776CF22968C0FD3
:102B30009D1FF90191838083F301EFCFF093FB0296
:102B4000E093FA0269CF4816590608F42C017D017A
:102B5000D3019ACFCB010E94DA137C01009749F090
:102B6000AE01B8010E94BC15C8010E94761487010D
:102B700053CF10E000E050CFFB01DC0102C0019018
:102B80000D9241505040D8F70895FB01DC018D9122
:102B9000019080190110D9F3990B0895FB01DC0114
:102BA00001900D920020E1F7089510E0C4EDD0E00F
:102BB00004C0FE010E94D4132196C53DD107C9F778
:042BC000F894FFCFB7
:102BC400FFFFFFFF00E10000000000000000FC0226
:102BD400800000000000140500092E052A05530595
:102BE40033054105000000007A044203AD03C30429
:102BF400E003BE03D20300C180810000000D0A007F
:102C0400436F6E6E656374656400646973636F6EAD
:102C14006E656374656400436F6C6C6973696F6E91
:102C2400004175746F6E6F6D6F75730059200046A7
:102C340031313130303020004631313030303020C5
:102C440000463031313030302000463031303030C1
:102C5400302000463130303030302000427261691B
:102C64006E5F53746F726D5F56322E3000202020D9
:0A2C74002020202020003E20000058
:00000001FF
