:100000000C9492000C94BA000C94BA000C94BA00B0
:100010000C94BA000C94BA000C94BA000C94BA0078
:100020000C94BA000C94BA000C94950C0C94110D1D
:100030000C94BA000C94BA000C94BA000C94BA0058
:100040000C94BA000C94BA000C94BA000C94BA0048
:100050000C94BA000C94BA000C94BA000C943B0EA9
:100060000C94BA000C94030E0C94DD0D0C94BA00A1
:100070000C94BA000C94BA000C94BA000C94BA0018
:100080000C94BA000C94BA000C94BA000C94BA0008
:100090000C94BA000C94BA000C94BA000C94BA00F8
:1000A0000C94BA000C94BA000C94BA00080B00022D
:1000B0000202010009040000010202000005240000
:1000C0001001052401010104240206052406000193
:1000D0000705810310004009040100020A00000026
:1000E00007050202400000070583024000000403E8
:1000F000090412010002EF02014041233680000191
:100100000102030141726475696E6F204C4C43001B
:1001100041726475696E6F204C656F6E6172646FB9
:100120000000960E11241FBECFEFDAE0DEBFCDBF78
:1001300022E0A8E5B1E001C01D92A238B207E1F7C4
:1001400011E0A0E0B1E0E6E5F2E202C005900D9218
:10015000A835B107D9F710E0C2E9D0E004C0219773
:10016000FE010E94310FC139D107C9F70E94D00D9D
:100170000C9429110C940000FC0182E0808384E03F
:10018000818313821282089580917602882319F068
:1001900082E792E0089582E792E00E94BC0081E04D
:1001A00080937602F5CF0F931F93CF93DF938B014C
:1001B000FC01C281D381209771F0E881F98101901F
:1001C000F081E02DB801CE010995811105C00884A8
:1001D000D985C02DF0CF80E0DF91CF911F910F9195
:1001E00008950F931F93CF93DF938B01FC01C2817E
:1001F000D381209771F0E881F9810680F781E02DA5
:10020000B801CE010995080F111D0884D985C02DAC
:10021000F0CFF8011082DF91CF911F910F910895D7
:100220000F931F93CF93DF938B01FC01C281D38186
:10023000209771F0E881F9810480F581E02DB80103
:10024000CE010995009731F40884D985C02DF0CFEF
:1002500090E080E0DF91CF911F910F910895EF9290
:10026000FF920F931F93CF93DF937B01FC01C28119
:10027000D38110E000E0209791F0E881F9810280BD
:10028000F381E02DB701CE010995992334F0080FD1
:10029000191F0884D985C02DEECF0FEF1FEFC801BD
:1002A000DF91CF911F910F91FF90EF9008950895E6
:1002B000FC01248135816217730748F480819181A4
:1002C000009739F0680F791FFB018081089580E065
:1002D000089580E008950E9458010895089580933C
:1002E000E9008091F200882319F08AE38093E80006
:1002F0000895CF93DF93EC01AB010CC0A0E4B0E014
:1003000010C0289894E690936D029BEF9093E800BC
:100310004A1B5B0B41155105C1F04134510574F77F
:10032000DA019091E80092FFFCCF9A2FFB01E41BC9
:10033000F50BEC0FFD1F2FEF290F992311F390916F
:10034000F1009083922F3196F6CFCB01DF91CF91C0
:10035000089540916B0250916C0220916902309196
:100360006A0242175307B4F49091E8009570E1F3E4
:100370009091E80092FD19C08093F10080916B028A
:1003800090916C0201968F739927892B19F48EEF47
:100390008093E80080916B0290916C02019690939B
:1003A0006C0280936B0281E0089580E00895EF92E3
:1003B000FF920F931F93CF93DF937C01062F142F8F
:1003C00081E0860F880F0E94A90183E00E94A901A5
:1003D000D0E00DC0F701ED0FF11D84910E94A9013D
:1003E000C82F80E00E94A9018C2359F0DF5FD0174D
:1003F00038F411237CF3F701ED0FF11D8081EECF6E
:1004000081E0DF91CF911F910F91FF90EF900895C0
:10041000DF92EF92FF920F931F93CF93DF93EB0145
:10042000D42EE52EF82E242F352F0BC09E012F5FE2
:100430003F4FFE018491E9010E94A90198018823A0
:1004400051F0890101501109232B49F0FF2074F369
:1004500088812196F1CFDD24DA94EE24EA948D2D63
:100460009E2DDF91CF911F910F91FF90EF90DF9024
:1004700008951092E90010926C0210926B02909312
:100480006A0280936902089581E08730A8F4282FDA
:1004900030E0F901EA5CFE4F9081992369F0809386
:1004A000E90091E09093EB0090819093EC0096E34B
:1004B0009093ED008F5FE9CFEAEEF0E08EE7808366
:1004C000108208958093E90081E08093EB006093AF
:1004D000EC004093ED000895CF93DF931F92CDB7CA
:1004E000DEB79FB79983F89487708093E900909165
:1004F000E800892F807295FF04C09091F20080E49B
:10050000891B99819FBF0F90DF91CF910895CF9361
:10051000DF931F92CDB7DEB7FB0190917102992353
:1005200079F1552384F19FB79983F894877080936C
:10053000E9006091F20070E0461757070CF4BA0129
:10054000962F2FEF290F992351F0289894E6909336
:100550006D029091F1009083922F3196F2CF611548
:10056000710539F08091F200811103C08BE6809310
:10057000E80089818FBFCB010F90DF91CF91089563
:100580006FEF7FEFF8CF6FEF7FEFF5CFCF93DF9374
:100590001F92CDB7DEB741E050E0BE016F5F7F4FE5
:1005A0000E948702019731F4898190E00F90DF91DA
:1005B000CF9108958FEF9FEFF9CFCF93DF931F92E5
:1005C000CDB7DEB79FB79983F89487708093E90021
:1005D0008091F20099819FBF0F90DF91CF91089594
:1005E000DC01ED91FC910190F081E02D09950895D9
:1005F000CF92DF92EF92FF920F931F93CF93DF93EF
:100600008C01DB01D0E0C0E07A0181E0E81AF1085A
:10061000452BA1F0F80180819181FC01208131817D
:100620006D01FFEFCF1ADF0A6C91C801F90109953E
:10063000892B21F02196A701D601E6CFCE01DF91CB
:10064000CF911F910F91FF90EF90DF90CF90089581
:1006500008956FEF7FEF81E090E00E9430030895EE
:10066000019709F008956F3F7F4FE1F7EBECF1E060
:100670001382128288EE93E0A0E0B0E08483958339
:10068000A683B78388E291E0918380838DEC90E02C
:10069000958784878CEC90E09787868788EC90E03C
:1006A000918B808B89EC90E0938B828B8AEC90E02D
:1006B000958B848B8EEC90E0978B868B118E128EAF
:1006C000138E148ECFCFFC01938D848D981720F458
:1006D000891B990B019708952FE330E0291B3109FD
:1006E000820F932F911D0895FC01918D828D981793
:1006F00061F0A28DAE0FBF2FB11D5D968C91928DD2
:100700009F5F9F73928F90E008958FEF9FEF089502
:10071000FC01918D828D981731F0828DE80FF11DCB
:10072000858D90E008958FEF9FEF0895FC01218D56
:1007300030E0205C3F4F828DA901481B5109CA015E
:100740008F73992708958BEC91E00E94960321E026
:10075000892B09F420E0822F0895CF92DF92EF9247
:10076000FF921F93CF93DF93EC016A017B01122F5D
:1007700060E079E08DE390E0A70196010E940F0F01
:1007800021503109410951095695479537952795CB
:10079000E889F98982E08083C11481EED806E104FA
:1007A000F10421F0211580E1380798F0E889F989F2
:1007B000108260E874E88EE190E0A70196010E9443
:1007C0000F0F215031094109510956954795379529
:1007D0002795EC85FD853083EE85FF852083188E77
:1007E000EC89FD891083EA89FB898081806180839F
:1007F000EA89FB89808188608083EA89FB8980811E
:1008000080688083EA89FB8980818F7D8083DF9186
:10081000CF911F91FF90EF90DF90CF900895FC0152
:10082000A48DA80FB92FB11DA35ABF4F2C91848D51
:1008300090E001968F739078848FA689B7892C9366
:10084000A089B1898C9182748C93938D848D981337
:1008500008950288F389E02D80818F7D8083F8CF11
:100860000F931F93CF93DF93EC0181E0888F9B8DD3
:100870008C8D9817B1F0062F8B8D90E001968F73B9
:100880009078182F8C8D81131DC00FB607FCFACFFE
:10089000E889F989808185FFF5CFCE010E940F0498
:1008A000F1CFE889F989808185FFE5CF9FB7F8947A
:1008B000EE89FF896083E889F98980818274808369
:1008C0009FBF10C0EB8DEC0FFD2FF11DE35AFF4FC2
:1008D00000839FB7F8941B8FEA89FB89808180622F
:1008E00080839FBF81E090E0DF91CF911F910F91B6
:1008F0000895CF93DF93EC01888D811104C00DC062
:100900000FB607FE0DC0EA89FB89808185FDF8CF0F
:10091000A889B9898C9186FFF3CFDF91CF91089593
:10092000808185FFF0CFE889F989808185FFEBCF51
:10093000CE010E940F04E7CF80E090E0892B21F0E8
:100940000E94A303811101C008950E940000FCCF02
:100950006FEF7FEF81E090E00E94AF040895019770
:1009600009F008956F3F7F4FE1F7EBE7F1E0138265
:10097000128288EE93E0A0E0B0E084839583A683A2
:10098000B78386E191E0918380838FEF9FEF958716
:100990008487E7CFCF93DF931F92CDB7DEB769830C
:1009A000DC01ED91FC910280F381E02D41E050E00B
:1009B000BE016F5F7F4F09950F90DF91CF91089532
:1009C00083E00E946F01089583E00E946C0290E032
:1009D0000895FC018485958599232CF02FEF3FEF36
:1009E00035872487089582E00E94C6020895CF9338
:1009F000DF93EC018C859D8599232CF08C859D855A
:100A0000DF91CF91089582E00E94C6029D878C8776
:100A1000F5CFFC0184859585992334F082E00E940E
:100A2000DD0290E00196089582E00E94DD0290E0F0
:100A300008952FEF3FEFFC01358724870895FC01CF
:100A400090819E5F908342E450E06CEA70E080E821
:100A50000E9408020895CF93DF931F92CDB7DEB7AF
:100A60001982CE0101960E941F050E94C400BE019A
:100A70006F5F7F4F0E942F0189810F90DF91CF918F
:100A800008950F931F93CF93DF93CDB7DEB72997C8
:100A90000FB6F894DEBF0FBECDBF8C0190E080E0B2
:100AA0000E9439020E942B051F8299E0998392E0EF
:100AB0009A8391E09E8390EA98879AEF9987209194
:100AC0006B0230916C02275F3F4F3C832B838D83F9
:100AD000C8010E94390249E050E0BE016F5F7F4FBC
:100AE00080E00E9408020E942B0581E029960FB643
:100AF000F894DEBF0FBECDBFDF91CF911F910F9154
:100B00000895EEEFFFE72591349181E02B3F3C4DB6
:100B100009F080E008951F93CF93DF93EC011981D2
:100B20008881813A39F0813281F080E0DF91CF9184
:100B30001F9108951132B9F747E050E064E071E089
:100B400080E00E94080281E0F1CF133231F01032D0
:100B5000A1F01232C9F081E0E9CF8B819A81892717
:100B600098278927B0E0A0E08093000190930101CD
:100B7000A0930201B0930301EACF67E070E084E044
:100B800091E00E947901E5CF8A8180930B010E9458
:100B90008105811116C0E0E0F8E080910401909198
:100BA0000501A0910601B0910701803B9440A10589
:100BB000B10551F0808191818737974751F181E0EC
:100BC000B5CFEEEFFAE0E9CF80910B0180FDF2CFD7
:100BD000EE3F8AE0F80749F08081918187379807D6
:100BE00021F09093FF0A8093FE0A87E797E79183AD
:100BF00080838091600080937A0188E19BE00FB64A
:100C0000F894A895809360000FBE9093600081E0F7
:100C10008DCFA895A0E6B0E08C9188618C938091EF
:100C20007A018C93EE3F8AE0F80741F08091FE0A4A
:100C30009091FF0A9183808381E078CF11821082A6
:100C400081E074CFCF93DF93EC018C81882341F056
:100C50000E94C400BE010E94D300DF91CF9108958D
:100C6000CE010E948B05F9CF789484B5826084BD53
:100C700084B5816084BD85B5826085BD85B58160A0
:100C800085BDEEE6F0E0808181608083E1E8F0E000
:100C90001082808182608083808181608083E0E82F
:100CA000F0E0808181608083E1E9F0E08081826012
:100CB0008083808181608083E0E9F0E080818160D1
:100CC0008083E1ECF0E080818460808380818260B9
:100CD0008083808181608083E3ECF0E080818160AB
:100CE0008083E0ECF0E0808182608083E2ECF0E0E1
:100CF000808181608083EAE7F0E080818460808386
:100D0000808182608083808181608083808180682F
:100D1000808308953FB7F894809176019091770190
:100D2000A0917801B091790126B5A89B05C02F3F0D
:100D300019F00196A11DB11D3FBFBA2FA92F982F01
:100D40008827BC01CD01620F711D811D911D660FA9
:100D5000771F881F991F660F771F881F991F089597
:100D60008F929F92AF92BF92CF92DF92EF92FF92BB
:100D70006B017C010E948A064B015C011BC021E0D3
:100D8000C21AD108E108F10888EE880E83E0981EA7
:100D9000A11CB11CC114D104E104F10459F00E945A
:100DA0008A06681979098A099B09683E734081059A
:100DB000910528F7C114D104E104F10459F7FF901B
:100DC000EF90DF90CF90BF90AF909F908F9008955D
:100DD000109271021092700210926F02E7EDF0E033
:100DE00080818160808380EA8093D80089B58061AA
:100DF00089BD89B5826089BD09B400FEFDCF61E07F
:100E000070E080E090E00E94B006E8EDF0E08081C4
:100E10008F7C80618083E0EEF0E08081807F808342
:100E2000E1EEF0E080818E7E80838DE08093E200B1
:100E3000559A209A08959F92AF92BF92CF92DF92D7
:100E4000EF92FF920F931F93CF93DF931F92CDB733
:100E5000DEB7D82E8B01942EA52E809171028823A7
:100E600009F491C080916F0280FF05C0E0EEF0E0D0
:100E7000808182608083E92CFA2CB12C0F2EFAEF4E
:100E8000CF2EF02D43C08E151F0411F00CF08E2DC7
:100E90002FB72983F8942D2D27702093E9002091F6
:100EA000E80025FF12C0E81AF108D5FC11C0DD20CA
:100EB000BCF02FEF280F882309F1F801308130931F
:100EC000F100822F0F5F1F4FF4CF89818FBF1EC0AB
:100ED0002FEF280F882391F01092F100822FF8CF86
:100EE0009FEF980F882351F098012F5F3F4FF80133
:100EF00004910093F100892F8901F2CFBB20D1F03A
:100F00008AE38093E800B12C89818FBFE114F1045A
:100F100011F4BB2029F18D2D0E946C028111B3CFF9
:100F2000CA94CC2099F161E070E080E090E00E94EA
:100F3000B006ECCF8091E80085FD09C08AE380937C
:100F4000E800E114F10401F7BB24B394DDCFE11410
:100F5000F104D1F6D6FED8CF8AE38093E800D4CF4F
:100F60005D9884E680936E02892D9A2D0F90DF9113
:100F7000CF911F910F91FF90EF90DF90CF90BF9096
:100F8000AF909F9008958FEF9FEFF0CF8FEF9FEF7F
:100F9000EDCFCF93DF9320910B0121110AC021E007
:100FA00030E0FC013383228380E090E0DF91CF9139
:100FB0000895EC0183E00E941B0718161906B4F38C
:100FC00081E090E09B838A8380E090E0EFCF2FB7B1
:100FD000F894609172017091730180917401909105
:100FE00075012FBF08950F931F93CF93DF93EC01EB
:100FF0000E94E707688779878A879B87E881F9815C
:101000000284F385E02DCE0109959923ACF40E946A
:10101000E707088519852A853B85601B710B820BC4
:10102000930B0C811D812E813F8160177107820710
:10103000930720F38FEF9FEFDF91CF911F910F91D7
:101040000895611108C076981092BF001092BE00FA
:101050004093D2000895769AF7CF61110BC05C9847
:10106000109295001092940050E050939900409394
:10107000980008955C9AF4CF3E9A549A81E8809340
:1010800090008BE080939100109295001092940054
:101090001092990010929800579A6E9A87E0809368
:1010A000C10089E08093C2001092C3001092BF007B
:1010B0001092BE001092D20008950F931F93CF9309
:1010C000DF93EC0180916901882349F10E94E707D1
:1010D00000916501109166012091670130916801CE
:1010E000601B710B820B930B6536710581059105B1
:1010F00020F50E94E70709811A812B813C81601B42
:10110000710B820B930B693C71058105910508F009
:1011100018828881DF91CF911F910F9108950E94CD
:10112000E707609365017093660180936701909370
:10113000680181E080936901C9CF61E48BEC91E0A3
:101140000E94F0020E94E7076093650170936601B8
:101150008093670190936801CCCFFC0111821282C9
:101160001382148226E040E051EE60E070E08BECE8
:1011700091E00E94AD0308956FEF7FEF81E090E072
:101180000E94C3080895019709F008956F3F7F4FAB
:10119000E1F784E691E00E943C088FE591E00E942F
:1011A000AD08F3CFFC0180819181009719F00E9476
:1011B0009C0E089560E070E0CB010895FF920F93BC
:1011C0001F93CF93DF93CDB7DEB764970FB6F89434
:1011D000DEBF0FBECDBF8C01FC01F380F2E0FF1635
:1011E000B1F0FC01868197810E9439020E94C400FF
:1011F000B8010E9410019C01892BD1F4F1E0FF1687
:1012000009F44BC083E0F816C9F080E005C0FC018A
:10121000868197810E94410564960FB6F894DEBFDF
:101220000FBECDBFDF91CF911F910F91FF90089519
:1012300081E01216130684F380E0EECFF80182817C
:101240008823C1F1823031F0813059F0833081F050
:1012500080E0E2CF40E860E180E191E00E94D701C8
:10126000DBCF40E86BE084E091E00E94D701D4CF6F
:101270000E94C4008E010F5F1F4FB8010E94F10051
:10128000F80101900020E9F73197BF01601B710B55
:1012900040E0C8010E94D701BFCF62EF70E0611546
:1012A000710559F0FB01449150E080E80E9408026A
:1012B00081E0B2CF6EEE70E0F2CF80E0ADCFDC0126
:1012C000ED91FC910280F381E02D42E050E06DE36E
:1012D00071E0099508956115710581F0FB01019098
:1012E0000020E9F73197AF01461B570BDC01ED9168
:1012F000FC910280F381E02D0995089590E080E053
:1013000008950F931F93CF93DF93EC010E946B0915
:101310008C01CE010E945F09800F911FDF91CF9158
:101320001F910F91089540E052EC61E070E08BE76F
:1013300091E00E94190560E471E08BE791E00E9462
:10134000810910925B0110925A0181E090E0909324
:1013500059018093580169E170E080E090E00E94BB
:10136000B00608950F931F93CF93DF938C01EB0189
:10137000FC0180819181892BB1F088819981892B31
:1013800051F18EE691E0A0E0892B49F1F80122812C
:1013900033818C819D812817390720F5F8018081E0
:1013A00091810E94D30F88819981F8019183808374
:1013B0008A819B81938382838C819D8195838483A1
:1013C000198218821B821A821D821C82DF91CF91A2
:1013D0001F910F91089580E090E0DC01D5CFA0FF30
:1013E000DDCFD4CF68817981808191810E942211E3
:1013F0008C819D81F801958384831D821C82E6CFB8
:10140000CF93DF93EC018617970711F00E94B20982
:10141000CE01DF91CF910895CF93DF93EC018881C6
:101420009981009711F00E94D30F198218821D82B2
:101430001C821B821A82DF91CF910895FC0180816A
:1014400091810E94D30F08950F931F93CF93DF9341
:10145000EC018B016F5F7F4F888199810E945C1046
:10146000009751F0998388831B830A8381E0DF9181
:10147000CF911F910F91089580E0F9CFCF93DF9323
:10148000EC0128813981232B29F02A813B81261701
:10149000370770F4CE010E94240A882351F08C8112
:1014A0009D81892B49F4E881F981108281E001C096
:1014B00081E0DF91CF91089581E0FBCFEF92FF9221
:1014C0000F931F93CF93DF93FC01C481D581C40F89
:1014D000D51F6115710501F1452B41F481E0DF91C4
:1014E000CF911F910F91FF90EF9008957B018C0198
:1014F000BE010E943E0A882391F3F80120813181C8
:1015000084819581B701820F931F0E942211F801F7
:10151000D583C48381E0E3CF80E0E1CFCF93DF9335
:1015200000D0CDB7DEB769831A8241E050E0BE013A
:101530006F5F7F4F0E945E0A0F900F90DF91CF91F7
:101540000895EF92FF920F931F93CF93DF93EC01D7
:101550007B018A01BA010E943E0A882379F01D832B
:101560000C83B701888199810E942211CE01DF91FD
:10157000CF911F910F91FF90EF900895CE010E949F
:101580000C0AF4CFCF93DF93EC016115710571F074
:10159000FB0101900020E9F73197AF01461B570B83
:1015A0000E94A10ACE01DF91CF9108950E940C0AFA
:1015B000F9CFFC01118210821382128215821482EB
:1015C0006115710551F0FB0101900020E9F7319799
:1015D000AF01461B570B0E94A10A0895AF92BF921C
:1015E000CF92DF92EF92FF920F931F93CF93DF93EF
:1015F0005C016B018A01E9012417350720F08D2F6A
:10160000EA01022F182F6FE371E0C5010E94D90A89
:10161000D6011496ED90FC90CE15DF05D0F4E016BF
:10162000F10608F07801D601ED91FC911197EE0DCD
:10163000FF1D108110826D917C916C0F7D1FC50183
:101640000E94C20AF60180819181E80EF91ED7013D
:101650001C93C501DF91CF911F910F91FF90EF90E7
:10166000DF90CF90BF90AF900895FF920F931F939C
:10167000CF93DF93EC018B01F42E6FE371E00E94B6
:10168000D90AC8010E94F30799237CF02F2D0F2C53
:10169000000C330B2817390741F0682FCE010E9448
:1016A0008E0AC8010E94F307EFCFCE01DF91CF91E0
:1016B0001F910F91FF900895AF92BF92CF92DF924A
:1016C000EF92FF920F931F93CF93DF93CDB7DEB7C7
:1016D0006E970FB6F894DEBF0FBECDBF8C015B01D5
:1016E0006A0179018BEC91E00E94960318161906A5
:1016F0000CF078C00E94E707F8016183728383834E
:10170000948381E0808366E471E0CE0149960E9473
:10171000D90A40E26BEC71E0CE0143960E94350B92
:10172000BE016D5E7F4FCE0149960E94000ACE0138
:1017300043960E941E0A21E030E050E040E0BE01E6
:10174000675E7F4FCE010D960E94EE0A70E060E06A
:10175000CE010D960E946B01F5018083CE010D969E
:101760000E941E0A24E030E041E050E0BE01675EC6
:101770007F4FCE0107960E94EE0ACE0107960E9487
:10178000D208F6016083CE0107960E941E0A2D8DB5
:101790003E8D44E050E0BE01675E7F4FCE01019672
:1017A0000E94EE0ACE0101960E94D208F7016083E2
:1017B000CE0101960E941E0ACE0149960E941E0A81
:1017C00081E06E960FB6F894DEBF0FBECDBFDF91FD
:1017D000CF911F910F91FF90EF90DF90CF90BF902E
:1017E000AF90089580E0EDCFCF932CE531E04DE54B
:1017F00051E06EE571E08FE591E00E945C0BC82F2F
:101800008FE591E00E945D0820915A0130915B01C3
:1018100021153105B9F02130310519F180915A01B6
:1018200090915B01209158013091590182179307E3
:1018300039F09093590180935801892B09F468C0BD
:10184000CF910895882351F381E090E090935B015C
:1018500080935A016FE471E08BE791E00E94810967
:10186000DDCF8823D1F0CC23C9F280915E01823490
:1018700089F1F4F08334E9F1843481F640915D011B
:1018800060E084E691E00E94210840915C0161E003
:1018900084E691E00E942D08C1CF10925B01109266
:1018A0005A0163E571E08BE791E00E948109DBCF8B
:1018B000813409F0B3CF40915D0161E084E691E0AD
:1018C0000E94210840915C0161E084E691E00E9461
:1018D0002D08A4CF40915D0160E084E691E00E9474
:1018E000210840915C0160E084E691E00E942D08AF
:1018F00095CF40915D0161E084E691E00E9421086E
:1019000040915C0160E084E691E00E942D0886CF62
:1019100040E061E084E691E00E94210840E061E05F
:1019200084E691E00E942D088BCF1F920F920FB694
:101930000F9211242F933F934F935F936F937F9355
:101940008F939F93AF93BF93CF93EF93FF93E1EE6A
:10195000F0E0C0818081837F8083C3FD18C0C2FD19
:1019600021C0C4FD3BC0C0FF4AC0E2EEF0E0808170
:101970008E7E80618083E1EEF0E080818E7E8083C8
:1019800080916F028E7E816080936F0238C042E347
:1019900060E080E00E9462021092710288E0809311
:1019A000F000DDCF83E00E946F0180916E028823FA
:1019B00041F080916E02815080936E02811101C0CE
:1019C0005D9A80916D02882361F280916D02815051
:1019D00080936D028111C5CF289AC3CFE2EEF0E06B
:1019E00080818E7E81608083E1EEF0E080818F7E59
:1019F000808380916F028E7E806180936F02FF9161
:101A0000EF91CF91BF91AF919F918F917F916F9106
:101A10005F914F913F912F910F900FBE0F901F90AC
:101A200018951F920F920FB60F9211242F933F9388
:101A30004F935F936F937F938F939F93AF93BF93D6
:101A4000EF93FF93CF93DF93CDB7DEB72897DEBF39
:101A5000CDBF1092E9008091E80083FF2EC088E09E
:101A6000FE0131969FEF980F882331F08091F100AD
:101A70008083892F3196F6CF289884E680936D0273
:101A800082EF8093E8009981992384F18EEF80930F
:101A9000E800892F807609F075C08A814B812C81FE
:101AA000322F242F81112EC0903829F1E1EFF0E080
:101AB000108210828EEF8093E80028960FB6F8947B
:101AC000DEBF0FBECDBFDF91CF91FF91EF91BF91F0
:101AD000AF919F918F917F916F915F914F913F91C6
:101AE0002F910F900FBE0F901F9018958091E800D6
:101AF00080FFFCCFCECF80917002E1EFF0E08083D9
:101B00001082D8CF8130A9F08330F9F0853049F1C7
:101B1000863079F1873009F43FC0883079F1893017
:101B200049F69370C9F50E9444028B81809371023B
:101B3000C1CF9111BFCF2130310509F0BBCF8091CA
:101B400070028D7F80937002B5CF9111B3CF213099
:101B5000310509F0AFCF80917002826080937002EE
:101B6000A9CF8091E80080FFFCCF40684093E3005C
:101B7000A1CFCE0101960E94DE080CC081E08093C7
:101B8000F10098CF8F8198850E943902CE0101968D
:101B90000E94220681118ECF81E28093EB008DCFCF
:101BA0000E94340688E692E00E94E8060E949309AB
:101BB0000E94F40B0E949C04FBCF1F920F920FB661
:101BC0000F9211242F933F934F935F936F937F93C3
:101BD0008F939F93AF93BF93EF93FF938BEC91E021
:101BE0000E940F04FF91EF91BF91AF919F918F9150
:101BF0007F916F915F914F913F912F910F900FBE09
:101C00000F901F9018951F920F920FB60F921124EC
:101C10002F938F939F93AF93BF93EF93FF93E09195
:101C2000DB01F091DC01808182FD14C0EBECF1E07E
:101C3000A689B7892C91818D8F5F8F73928D8917BB
:101C400071F0DF01E18DF0E0E553FE4F258F5996ED
:101C50008C9305C0E091E101F091E2018081FF9158
:101C6000EF91BF91AF919F918F912F910F900FBEE8
:101C70000F901F9018951F920F920FB60F9211247C
:101C80000F931F932F933F934F935F936F937F9384
:101C90008F939F93AF93BF93009172011091730143
:101CA000209174013091750190917101B901A801E1
:101CB0004F5F5F4F6F4F7F4F83E0890F8D3740F04D
:101CC00086E8890FB901A8014E5F5F4F6F4F7F4FC4
:101CD000809371014093720150937301609374017A
:101CE000709375018091760190917701A0917801B0
:101CF000B09179010196A11DB11D80937601909359
:101D00007701A0937801B0937901BF91AF919F9132
:101D10008F917F916F915F914F913F912F911F9183
:101D20000F910F900FBE0F901F9018950E942903DE
:101D30000E94A8040C94BC081F93FC0199278827D3
:101D4000BC01E89411911032E9F3193010F01E3003
:101D5000C8F31B3251F01D3249F4689406C00E944A
:101D6000C30E610F711D811D911D119110531A3009
:101D7000B0F33EF490958095709561957F4F8F4FAD
:101D80009F4F1F910895592F482F372F262F660FE9
:101D9000771F881F991F660F771F881F991F620F73
:101DA000731F841F951F660F771F881F991F089543
:101DB0002F923F924F925F926F927F928F929F925B
:101DC000AF92BF92CF92DF92EF92FF920F931F9349
:101DD000CF93DF93CDB7DEB7CA1BDB0B0FB6F894FA
:101DE000DEBF0FBECDBF09942A88398848885F843A
:101DF0006E847D848C849B84AA84B984C884DF80AB
:101E0000EE80FD800C811B81AA81B981CE0FD11D8E
:101E10000FB6F894DEBF0FBECDBFED010895A1E26D
:101E20001A2EAA1BBB1BFD010DC0AA1FBB1FEE1F54
:101E3000FF1FA217B307E407F50720F0A21BB30B9F
:101E4000E40BF50B661F771F881F991F1A9469F71B
:101E500060957095809590959B01AC01BD01CF0177
:101E60000895EE0FFF1F0590F491E02D09940F9354
:101E70001F93CF93DF938230910510F482E090E0BE
:101E8000E0918002F091810230E020E0B0E0A0E03B
:101E9000309799F42115310509F44AC0281B390BF4
:101EA00024303105D8F58A819B816115710589F14E
:101EB000FB0193838283FE0111C040815181028125
:101EC000138148175907E0F04817590799F41097FC
:101ED00061F012960C93129713961C933296CF01D1
:101EE000DF91CF911F910F9108950093800210937D
:101EF0008102F4CF2115310551F04217530738F014
:101F0000A901DB019A01BD01DF01F801C1CFEF0199
:101F1000F9CF9093810280938002CDCFFE01E20F32
:101F2000F31F819391932250310939832883D7CFAE
:101F300020917E0230917F02232B41F420910E01EB
:101F400030910F0130937F0220937E0220910C018B
:101F500030910D012115310541F42DB73EB7409167
:101F6000100150911101241B350BE0917E02F0917C
:101F70007F02E217F307A0F42E1B3F0B2817390747
:101F800078F0AC014E5F5F4F2417350748F04E0FD5
:101F90005F1F50937F0240937E02819391939FCF66
:101FA000F0E0E0E09CCFCF93DF930097E9F0FC01F5
:101FB000329713821282A0918002B0918102ED01CA
:101FC00030E020E01097A1F420813181820F931F2F
:101FD00020917E0230917F022817390709F061C0F5
:101FE000F0937F02E0937E02DF91CF910895EA01A2
:101FF000CE17DF07E8F54A815B819E014115510547
:10200000B1F7E901FB83EA8349915991C40FD51FC8
:10201000EC17FD0761F4808191810296840F951F72
:10202000E90199838883828193819B838A83F0E08D
:10203000E0E012968D919C9113970097B9F52D9140
:102040003C911197CD010296820F931F20917E0241
:1020500030917F022817390739F6309751F51092E1
:10206000810210928002B0937F02A0937E02BCCFC7
:10207000D383C28340815181840F951FC817D9072C
:1020800061F44E5F5F4F88819981480F591F5183DA
:1020900040838A819B81938382832115310509F0D6
:1020A000B0CFF0938102E09380029ECFFD01DC016E
:1020B000C0CF13821282D7CFB0E0A0E0E2E6F0E119
:1020C0000C94DA0E8C01009751F4CB010E94370F6B
:1020D0008C01C801CDB7DEB7E0E10C94F60EFC012F
:1020E000E60FF71F9C0122503109E217F30708F4AD
:1020F0009DC0D901CD91DC911197C617D70798F0F3
:10210000C530D10530F3CE0104978617970708F341
:10211000C61BD70B2297C193D1936D937C93CF01AC
:102120000E94D30FD6CF5B01AC1ABD0A4C018C0EB6
:102130009D1EA0918002B0918102512C412CF12C66
:10214000E12C109731F580917E0290917F028815E5
:10215000990509F05CC04616570608F058C08091F2
:102160000C0190910D01009741F48DB79EB74091FD
:10217000100150911101841B950BE817F90708F025
:1021800055C0F0937F02E0937E02F9017183608372
:10219000A0CF8D919C91119712966C9012971396E7
:1021A0007C901397A815B90559F56C0142E0C40E4F
:1021B000D11CCA14DB0420F1AC014A195B09DA0115
:1021C0001296159780F06282738251834083D90101
:1021D0006D937C93E114F10471F0D7011396FC9395
:1021E000EE93129776CF22968C0F9D1FF901918363
:1021F0008083F301EFCFF0938102E093800269CFF7
:102200004816590608F42C017D01D3019ACFCB0161
:102210000E94370F7C01009749F0AE01B8010E947F
:102220001911C8010E94D30F870153CF10E000E0BD
:1022300050CFFB01DC0102C001900D924150504093
:10224000D8F70895FB01DC0101900D920020E1F721
:062250000895F894FFCF91
:10225600FFFFFFFF00E10000000000000000820217
:10226600800000000000CA04C907E404E004090570
:10227600E904F704000000003004F802630379045F
:1022860096037403880300C180810000000D0A00D4
:102296005245414459002020202020202020005271
:0822A600554E004241434B007C
:00000001FF
