:100000000C94D5000C94FD000C94FD000C94FD00A4
:100010000C94FD000C94FD000C94FD000C94FD006C
:100020000C94FD000C94FD000C94FC100C947811C1
:100030000C94FD000C94FD000C94FD000C94FD004C
:100040000C94FD000C94FD000C94FD000C94FD003C
:100050000C94FD000C94FD000C94FD000C94A01277
:100060000C94FD000C9468120C9442120C94FD0048
:100070000C94FD000C94FD000C94FD000C94FD000C
:100080000C94FD000C94FD000C94FD000C94FD00FC
:100090000C94FD000C94FD000C94FD000C94FD00EC
:1000A0000C94FD000C94FD000C94FD000706050463
:1000B0000100080A0B0C0D090000000024002700B5
:1000C0002A002D00300000000000250028002B0031
:1000D0002E00310004040404040304050202020299
:1000E00004030202020206060606060604040202D1
:1000F00002040404080201104080401020408040A7
:10010000800802040180402010020110801020406D
:1001100040200000000200090F0000030401000C51
:1001200000000000000000000000000000000000CF
:1001300000080B0002020201000904000001020293
:100140000000052400100105240101010424020619
:100150000524060001070581031000400904010081
:10016000020A0000000705020240000007058302A2
:100170004000000403090412010002EF02014041A3
:1001800023368000010102030141726475696E6FBC
:10019000204C4C430041726475696E6F204C656F52
:1001A0006E6172646F000213FB1211241FBECFEF49
:1001B000DAE0DEBFCDBF23E0AEEDB1E001C01D92BD
:1001C000A032B207E1F711E0A0E0B1E0E6E5FBE222
:1001D00002C005900D92AE3DB107D9F710E0C4ED15
:1001E000D0E004C02197FE010E949D13C33DD107BA
:1001F000C9F70E9437120C949E150C940000FC0164
:1002000082E0808384E0818313821282089580914A
:100210001403882319F080E193E0089580E193E0CE
:100220000E94FF0081E080931403F5CF0F931F938A
:10023000CF93DF938B01FC01C281D381209771F0B2
:10024000E881F9810190F081E02DB801CE01099596
:10025000811105C00884D985C02DF0CF80E0DF91E1
:10026000CF911F910F9108950F931F93CF93DF9319
:100270008B01FC01C281D381209771F0E881F98163
:100280000680F781E02DB801CE010995080F111DF8
:100290000884D985C02DF0CFF8011082DF91CF916D
:1002A0001F910F9108950F931F93CF93DF938B01AD
:1002B000FC01C281D381209771F0E881F98104802B
:1002C000F581E02DB801CE010995009731F408843D
:1002D000D985C02DF0CF90E080E0DF91CF911F91C4
:1002E0000F910895EF92FF920F931F93CF93DF9397
:1002F0007B01FC01C281D38110E000E0209791F0E6
:10030000E881F9810280F381E02DB701CE010995E2
:10031000992334F0080F191F0884D985C02DEECF1A
:100320000FEF1FEFC801DF91CF911F910F91FF9049
:10033000EF9008950895FC012481358162177307B9
:1003400048F480819181009739F0680F791FFB0193
:100350008081089580E0089580E008950E949B01C7
:10036000089508958093E9008091F200882319F0A0
:100370008AE38093E8000895CF93DF93EC01AB010B
:100380000CC0A0E4B0E010C0289894E690930B0352
:100390009BEF9093E8004A1B5B0B41155105C1F0A0
:1003A0004134510574F7DA019091E80092FFFCCFD7
:1003B0009A2FFB01E41BF50BEC0FFD1F2FEF290F0C
:1003C000992311F39091F1009083922F3196F6CFFB
:1003D000CB01DF91CF9108954091090350910A0319
:1003E000209107033091080342175307B4F490910A
:1003F000E8009570E1F39091E80092FD19C08093B8
:10040000F1008091090390910A0301968F73992757
:10041000892B19F48EEF8093E80080910903909165
:100420000A03019690930A038093090381E00895DB
:1004300080E00895EF92FF920F931F93CF93DF9385
:100440007C01062F142F81E0860F880F0E94EC019B
:1004500083E00E94EC01D0E00DC0F701ED0FF11D2B
:1004600084910E94EC01C82F80E00E94EC018C2353
:1004700059F0DF5FD01738F411237CF3F701ED0F4B
:10048000F11D8081EECF81E0DF91CF911F910F911F
:10049000FF90EF900895DF92EF92FF920F931F93DA
:1004A000CF93DF93EB01D42EE52EF82E242F352F9A
:1004B0000BC09E012F5F3F4FFE018491E9010E9416
:1004C000EC019801882351F0890101501109232B77
:1004D00049F0FF2074F388812196F1CFDD24DA946E
:1004E000EE24EA948D2D9E2DDF91CF911F910F91D7
:1004F000FF90EF90DF9008951092E90010920A03A8
:10050000109209039093080380930703089581E0F4
:100510008730A8F4282F30E0F901EA5CFE4F908183
:10052000992369F08093E90091E09093EB0090812A
:100530009093EC0096E39093ED008F5FE9CFEAEEA5
:10054000F0E08EE78083108208958093E90081E0D7
:100550008093EB006093EC004093ED000895CF93FF
:10056000DF931F92CDB7DEB79FB79983F89487705A
:100570008093E9009091E800892F807295FF04C074
:100580009091F20080E4891B99819FBF0F90DF91C9
:10059000CF910895CF93DF931F92CDB7DEB7FB01C4
:1005A00090910F03992379F1552384F19FB7998393
:1005B000F89487708093E9006091F20070E046172C
:1005C00057070CF4BA01962F2FEF290F992351F0FA
:1005D000289894E690930B039091F1009083922FCA
:1005E0003196F2CF6115710539F08091F2008111D9
:1005F00003C08BE68093E80089818FBFCB010F9009
:10060000DF91CF9108956FEF7FEFF8CF6FEF7FEF1E
:10061000F5CFCF93DF931F92CDB7DEB741E050E027
:10062000BE016F5F7F4F0E94CA02019731F489813A
:1006300090E00F90DF91CF9108958FEF9FEFF9CF6A
:10064000CF93DF931F92CDB7DEB79FB79983F8940E
:1006500087708093E9008091F20099819FBF0F908D
:10066000DF91CF910895DB0114964D915C91159720
:100670006D917C91DC01ED91FC910280F381E02D84
:1006800009950895CF92DF92EF92FF920F931F93F7
:10069000CF93DF938C01DB01D0E0C0E07A0181E0F1
:1006A000E81AF108452BA1F0F80180819181FC0145
:1006B000208131816D01FFEFCF1ADF0A6C91C801F3
:1006C000F9010995892B21F02196A701D601E6CFE2
:1006D000CE01DF91CF911F910F91FF90EF90DF90AE
:1006E000CF90089508956FEF7FEF81E090E00E9432
:1006F0007A030895019709F008956F3F7F4FE1F75E
:10070000E9E6F2E01382128288EE93E0A0E0B0E026
:1007100084839583A683B78388E291E09183808365
:100720008DEC90E0958784878CEC90E097878687A6
:1007300088EC90E0918B808B89EC90E0938B828B9E
:100740008AEC90E0958B848B8EEC90E0978B868B77
:10075000118E128E138E148ECFCFFC01938D848D4B
:10076000981720F4891B990B019708952FE330E027
:10077000291B3109820F932F911D0895FC01918D42
:10078000828D981761F0A28DAE0FBF2FB11D5D96BF
:100790008C91928D9F5F9F73928F90E008958FEF61
:1007A0009FEF0895FC01918D828D981731F0828D15
:1007B000E80FF11D858D90E008958FEF9FEF08956C
:1007C000FC01218D30E0205C3F4F828DA901481B48
:1007D0005109CA018F739927089589E692E00E9412
:1007E000E00321E0892B09F420E0822F0895CF92C5
:1007F000DF92EF92FF921F93CF93DF93EC016A0198
:100800007B01122F60E079E08DE390E0A701960173
:100810000E947B1321503109410951095695479592
:1008200037952795E889F98982E08083C11481EEA4
:10083000D806E104F10421F0211580E1380798F091
:10084000E889F989108260E874E88EE190E0A701F8
:1008500096010E947B132150310941095109569597
:10086000479537952795EC85FD853083EE85FF8587
:100870002083188EEC89FD891083EA89FB898081A9
:1008800080618083EA89FB89808188608083EA892E
:10089000FB89808180688083EA89FB8980818F7DE4
:1008A0008083DF91CF911F91FF90EF90DF90CF90E9
:1008B0000895FC01A48DA80FB92FB11DA35ABF4FF5
:1008C0002C91848D90E001968F739078848FA68907
:1008D000B7892C93A089B1898C9182748C93938D64
:1008E000848D981308950288F389E02D80818F7D8F
:1008F0008083F8CF0F931F93CF93DF93EC0181E0B8
:10090000888F9B8D8C8D9817B1F0062F8B8D90E082
:1009100001968F739078182F8C8D81131DC00FB6A0
:1009200007FCFACFE889F989808185FFF5CFCE01F0
:100930000E945904F1CFE889F989808185FFE5CFCC
:100940009FB7F894EE89FF896083E889F9898081EF
:10095000827480839FBF10C0EB8DEC0FFD2FF11DC3
:10096000E35AFF4F00839FB7F8941B8FEA89FB89F6
:100970008081806280839FBF81E090E0DF91CF9192
:100980001F910F910895CF93DF93EC01888D811112
:1009900004C00DC00FB607FE0DC0EA89FB89808137
:1009A00085FDF8CFA889B9898C9186FFF3CFDF91B7
:1009B000CF910895808185FFF0CFE889F989808102
:1009C00085FFEBCFCE010E945904E7CF80E090E095
:1009D000892B21F00E94ED03811101C008950E942E
:1009E0000000FCCF6FEF7FEF81E090E00E94F90400
:1009F0000895019709F008956F3F7F4FE1F7E9E10E
:100A0000F2E01382128288EE93E0A0E0B0E08483EB
:100A10009583A683B78386E191E0918380838FEFEE
:100A20009FEF95878487E7CFCF93DF931F92CDB752
:100A3000DEB76983DC01ED91FC910280F381E02D4A
:100A400041E050E0BE016F5F7F4F09950F90DF914D
:100A5000CF91089583E00E94B201089583E00E943F
:100A6000AF0290E00895FC018485958599232CF0D0
:100A70002FEF3FEF35872487089582E00E94090316
:100A80000895CF93DF93EC018C859D8599232CF0FD
:100A90008C859D85DF91CF91089582E00E940903A6
:100AA0009D878C87F5CFFC0184859585992334F04B
:100AB00082E00E94200390E00196089582E00E9467
:100AC000200390E008952FEF3FEFFC013587248746
:100AD0000895FC0190819E5F908342E450E061E3C1
:100AE00071E080E80E944B020895CF93DF931F923C
:100AF000CDB7DEB71982CE0101960E9469050E942A
:100B00000701BE016F5F7F4F0E94720189810F90C4
:100B1000DF91CF9108950F931F93CF93DF93CDB7BC
:100B2000DEB729970FB6F894DEBF0FBECDBF8C019C
:100B300090E080E00E947C020E9475051F8299E08F
:100B4000998392E09A8391E09E8390EA98879AEF46
:100B500099872091090330910A03275F3F4F3C8317
:100B60002B838D83C8010E947C0249E050E0BE01C6
:100B70006F5F7F4F80E00E944B020E94750581E00D
:100B800029960FB6F894DEBF0FBECDBFDF91CF918F
:100B90001F910F910895EEEFFFE72591349181E0C9
:100BA0002B3F3C4D09F080E008951F93CF93DF93D6
:100BB000EC0119818881813A39F0813281F080E03D
:100BC000DF91CF911F9108951132B9F747E050E0BE
:100BD00064E071E080E00E944B0281E0F1CF1332CB
:100BE00031F01032A1F01232C9F081E0E9CF8B81EF
:100BF0009A81892798278927B0E0A0E08093000197
:100C000090930101A0930201B0930301EACF67E042
:100C100070E084E091E00E94BC01E5CF8A8180937E
:100C20000B010E94CB05811116C0E0E0F8E0809135
:100C3000040190910501A0910601B0910701803B4C
:100C40009440A105B10551F0808191818737974784
:100C500051F181E0B5CFEEEFFAE0E9CF80910B01E1
:100C600080FDF2CFEE3F8AE0F80749F08081918164
:100C70008737980721F09093FF0A8093FE0A87E751
:100C800097E791838083809160008093180288E1C8
:100C90009BE00FB6F894A895809360000FBE9093E8
:100CA000600081E08DCFA895A0E6B0E08C918861CE
:100CB0008C93809118028C93EE3F8AE0F80741F004
:100CC0008091FE0A9091FF0A9183808381E078CF22
:100CD0001182108281E074CFCF93DF93EC018C817D
:100CE000882341F00E940701BE010E941601DF9196
:100CF000CF910895CE010E94D505F9CF81508F3054
:100D000008F052C0E82FF0E0E857F94F0C949D131B
:100D1000A906AD0697069D06A306D406D406D406FA
:100D2000B106B706BD06C306C906D406CF06E0E87D
:100D3000F0E080818F7780830895E0E8F0E08081A3
:100D40008F7D80830895E0E8F0E08081877F808355
:100D5000089584B58F7784BD089584B58F7D84BD53
:100D60000895E0E9F0E080818F7780830895E0E9DD
:100D7000F0E080818F7D80830895E0E9F0E080815C
:100D8000877F80830895E0ECF0E080818F77808317
:100D90000895E0ECF0E080818F7D80830895E2EC9F
:100DA000F0E08081877F808308951F93CF93DF9346
:100DB000282F30E0F901EE5EFE4F8491F901ED50ED
:100DC000FF4F1491F901EC52FF4FC491CC23A9F0CD
:100DD000D62F811116C0EC2FF0E0EE0FFF1FEA5363
:100DE000FF4FA591B4918FB7F894D1110DC09C918C
:100DF000E12FE095E923EC938FBFDF91CF911F9115
:100E000008950E947E06E7CFEC91E12BEC93F4CF9E
:100E1000CF93DF9390E0FC01ED50FF4F24918C5273
:100E20009F4FFC018491882319F190E0880F991F4E
:100E3000FC01E854FF4FA591B491FC01EA53FF4F28
:100E4000C591D491662349F06230A9F08FB7F89428
:100E5000EC91E22BEC938FBF0BC09FB7F8948C9171
:100E6000E22FE0958E238C938881E823E8839FBF4F
:100E7000DF91CF9108959FB7F8943C91822F809590
:100E800083238C93E881E22BE8839FBFF1CF8231EB
:100E900008F08251E82FF0E0E455FF4FE491ABE712
:100EA000B0E08C918F7D9E2F990F990F9072892BB6
:100EB0008C93E770E064E0937C00EAE7F0E08081E7
:100EC0008064808380917A0086FDFCCF80917800D9
:100ED000909179000895789484B5826084BD84B53A
:100EE000816084BD85B5826085BD85B5816085BD25
:100EF000EEE6F0E0808181608083E1E8F0E010823E
:100F0000808182608083808181608083E0E8F0E07E
:100F1000808181608083E1E9F0E08081826080836C
:100F2000808181608083E0E9F0E08081816080835E
:100F3000E1ECF0E080818460808380818260808346
:100F4000808181608083E3ECF0E080818160808338
:100F5000E0ECF0E0808182608083E2ECF0E0808170
:100F600081608083EAE7F0E0808184608083808113
:100F700082608083808181608083808180688083BB
:100F800008953FB7F8948091140290911502A091B2
:100F90001602B091170226B5A89B05C02F3F19F085
:100FA0000196A11DB11D3FBFBA2FA92F982F8827E9
:100FB000BC01CD01620F711D811D911D660F771F50
:100FC000881F991F660F771F881F991F08958F929A
:100FD0009F92AF92BF92CF92DF92EF92FF926B01FE
:100FE0007C010E94C1074B015C011BC021E0C21AB9
:100FF000D108E108F10888EE880E83E0981EA11C54
:10100000B11CC114D104E104F10459F00E94C107DC
:10101000681979098A099B09683E73408105910521
:1010200028F7C114D104E104F10459F7FF90EF90BF
:10103000DF90CF90BF90AF909F908F9008951092C7
:101040000F0310920E0310920D03E7EDF0E0808184
:101050008160808380EA8093D80089B5806189BDF2
:1010600089B5826089BD09B400FEFDCF61E070E002
:1010700080E090E00E94E707E8EDF0E080818F7C5F
:1010800080618083E0EEF0E08081807F8083E1EE0C
:10109000F0E080818E7E80838DE08093E200559A1F
:1010A000209A08959F92AF92BF92CF92DF92EF92D3
:1010B000FF920F931F93CF93DF931F92CDB7DEB7AD
:1010C000D82E8B01942EA52E80910F03882309F42E
:1010D00091C080910D0380FF05C0E0EEF0E08081BB
:1010E00082608083E92CFA2CB12C0F2EFAEFCF2EE0
:1010F000F02D43C08E151F0411F00CF08E2D2FB76C
:101100002983F8942D2D27702093E9002091E80081
:1011100025FF12C0E81AF108D5FC11C0DD20BCF093
:101120002FEF280F882309F1F80130813093F10067
:10113000822F0F5F1F4FF4CF89818FBF1EC02FEF0B
:10114000280F882391F01092F100822FF8CF9FEFA3
:10115000980F882351F098012F5F3F4FF8010491B9
:101160000093F100892F8901F2CFBB20D1F08AE3EF
:101170008093E800B12C89818FBFE114F10411F450
:10118000BB2029F18D2D0E94AF028111B3CFCA94EB
:10119000CC2099F161E070E080E090E00E94E707E8
:1011A000ECCF8091E80085FD09C08AE38093E800D8
:1011B000E114F10401F7BB24B394DDCFE114F10491
:1011C000D1F6D6FED8CF8AE38093E800D4CF5D98DD
:1011D00084E680930C03892D9A2D0F90DF91CF9197
:1011E0001F910F91FF90EF90DF90CF90BF90AF9045
:1011F0009F9008958FEF9FEFF0CF8FEF9FEFEDCF90
:10120000CF93DF9320910B0121110AC021E030E040
:10121000FC013383228380E090E0DF91CF91089539
:10122000EC0183E00E94520818161906B4F381E01D
:1012300090E09B838A8380E090E0EFCF2FB7F89413
:10124000609110027091110280911202909113022C
:101250002FBF08950F931F93CF93DF93EC010E944C
:101260001E09688779878A879B87E881F9810284CC
:10127000F385E02DCE0109959923ACF40E941E0957
:10128000088519852A853B85601B710B820B930BA2
:101290000C811D812E813F816017710782079307A2
:1012A00020F38FEF9FEFDF91CF911F910F91089562
:1012B00060E082E00E94080760E084E00E94080786
:1012C00060E083E00E94080761E08DE00E9408076B
:1012D0000895611108C076981092BF001092BE0068
:1012E0004093D2000895769AF7CF61110BC05C98B5
:1012F000109295001092940050E050939900409302
:10130000980008955C9AF4CF3E9A549A81E88093AD
:1013100090008BE0809391001092950010929400C1
:101320001092990010929800579A6E9A87E08093D5
:10133000C10089E08093C2001092C3001092BF00E8
:101340001092BE001092D2000895CF93DF93EC016B
:101350002D853E854F8558892417350771F0388BC8
:101360002F8721303105B1F058F02330310509F4D1
:1013700047C02530310509F462C0DF91CF9108954F
:1013800040E061E00E94690940E061E0CE010E9416
:101390007509F3CF8F898234E9F07CF0833429F129
:1013A000843459F7488D60E0CE010E946909498D67
:1013B00061E0CE010E947509E0CF8134F1F6488DDD
:1013C00061E0CE010E946909498D61E0CE010E9471
:1013D0007509D3CF488D60E0CE010E946909498D1F
:1013E00060E0CE010E947509C8CF488D61E0CE0152
:1013F0000E946909498D60E0CE010E947509BDCF48
:101400008F89833481F08434A1F0823409F0B5CF20
:10141000488D60E0CE010E946909498D60E0CE01EF
:101420000E947509AACF498D60E0CE010E9475091E
:10143000A4CF488D60E0CE010E9469099ECF0E9432
:101440001E096D8F7E8F8F8F98A397CF6FEF7FEFE1
:1014500081E090E00E941A1008950895FC018081B7
:101460009181009719F00E940813089560E070E0E0
:10147000CB010895DC0114962D913C911597232BF7
:1014800069F46115710541F0FB018081882311F039
:1014900080E0089581E0089581E008956115710567
:1014A00059F0FC01808191810E948E1521E0892BE9
:1014B00009F020E0822F0895ED91FC91908181E068
:1014C0009923C9F380E00895FF920F931F93CF9360
:1014D000DF93CDB7DEB764970FB6F894DEBF0FBECB
:1014E000CDBF8C01FC01F380F2E0FF16B1F0FC01EE
:1014F000868197810E947C020E940701B8010E94A8
:1015000053019C01892BD1F4F1E0FF1609F44BC083
:1015100083E0F816C9F080E005C0FC018681978160
:101520000E948B0564960FB6F894DEBF0FBECDBF48
:10153000DF91CF911F910F91FF90089581E01216D6
:10154000130684F380E0EECFF80182818823C1F195
:10155000823031F0813059F0833081F080E0E2CF89
:1015600040E860E185E991E00E941A02DBCF40E8A3
:101570006BE089E891E00E941A02D4CF0E94070133
:101580008E010F5F1F4FB8010E943401F8010190D6
:101590000020E9F73197BF01601B710B40E0C801E3
:1015A0000E941A02BFCF67E771E06115710559F01B
:1015B000FB01449150E080E80E944B0281E0B2CFF1
:1015C00063E771E0F2CF80E0ADCFDC01ED91FC91FB
:1015D0000280F381E02D42E050E06DE371E0099577
:1015E00008956115710581F0FB0101900020E9F774
:1015F0003197AF01461B570BDC01ED91FC91028046
:10160000F381E02D0995089590E080E008950F930F
:101610001F93CF93DF93EC010E94F10A8C01CE015E
:101620000E94E50A800F911FDF91CF911F910F91CA
:101630000895CF92DF92EF92FF920F931F93CF9373
:10164000DF93EC010E941E09675E7F4F8F4F9F4F13
:101650000D8D1E8D2F8D38A1061717072807390706
:1016600048F0DF91CF911F910F91FF90EF90DF90A5
:10167000CF9008950E941E096D8F7E8F8F8F98A343
:101680008A8D882359F09B8D992341F09C8D992355
:1016900029F085E090E09A8B898B1BC0882341F06C
:1016A0009B8D992329F083E090E09A8B898B11C060
:1016B0009B8D992341F02C8D222329F084E090E02A
:1016C0009A8B898B06C09923E1F082E090E09A8B97
:1016D000898BE989FA898B899C89E817F90709F2CE
:1016E000FC8BEB8BE730F10508F0BBCFE658F44FED
:1016F0000C949D13B50BCC0BE30BFA0B110C280CBF
:10170000A40B882319F01A8A198AE3CF8C8D8823B9
:1017100029F081E090E09A8B898BDBCFC9A0DAA019
:10172000EBA0FCA084EFC80E81E0D81EE11CF11CE8
:101730000E941E09C616D706E806F90650F686E08E
:1017400090E09A8B898BC5CF4EE661E0CE010E9476
:1017500069094EE661E0CE010E94750960E471E01E
:1017600089E192E00E94070B7CCF40E860E0CE0167
:101770000E94690942E361E0CE010E9475090E945E
:101780001E0969A37AA38BA39CA367E471E089E196
:1017900092E00E94070B65CF42E361E0CE010E9418
:1017A000690940E860E0CE010E9475090E941E09A7
:1017B00069A37AA38BA39CA36CE471E089E192E016
:1017C0000E94070B4ECF46E960E0CE010E946909F6
:1017D00040E561E0CE010E9475090E941E0969A3DF
:1017E0007AA38BA39CA362E571E089E192E00E9459
:1017F000070B37CF46E960E0CE010E94690944E15A
:1018000061E0CE010E9475090E941E0969A37AA3B6
:101810008BA39CA366E571E089E192E00E94070B2F
:1018200020CF44E161E0CE010E94690946E960E011
:10183000CE010E9475090E941E0969A37AA38BA399
:101840009CA369E571E089E192E00E94070B09CF52
:1018500046E960E0CE010E94690944E160E0CE0102
:101860000E9475090E941E0969A37AA38BA39CA3F9
:101870006CE571E089E192E00E94070BF2CECF9314
:10188000DF93DC011D96ED91FC91E730F10508F046
:10189000BDC0EC01E25BF34F0C949D13550C680C3A
:1018A0000E0DBB0C090DE10C020D8E89882309F485
:1018B000ADC081E090E09E878D876FE571E089E1A2
:1018C00092E00E94070B6FEF8DE00E94D5069EC04C
:1018D0008E89882349F18A8D811133C08B8D8111C6
:1018E00030C08C8D81112DC08D8981113FC08F89B1
:1018F000853409F08BC0888D8F3F09F087C0898DB2
:101900008F3F09F083C085E090E09E878D879C8B98
:101910008B8B60E871E089E192E00E94070B6FEF2A
:101920008DE00E94D50672C01E861D8669E671E0B4
:1019300089E192E00E94070B60E08DE00E94D506ED
:1019400065C083E090E09E878D8740E061E0CE0136
:101950000E94690940E061E0CE010E94750966E7D6
:1019600071E089E192E00E94070B50C082E090E0B4
:101970009E878D874BC08E89882389F08A8D81113F
:1019800006C08B8D811103C08C8D8823A9F08D89B1
:101990008823E1F184E090E09E878D8737C01E8622
:1019A0001D8669E671E089E192E00E94070B60E024
:1019B0008DE00E94D5062AC081E090E09E878D8749
:1019C00025C08E89882351F08F898534A1F08A350E
:1019D000E9F081E090E09E878D8718C01E861D8605
:1019E00069E671E089E192E00E94070B60E08DE01A
:1019F0000E94D5060BC0988D9F3F49F7998D9F3F58
:101A000031F704C085E090E09E878D87DF91CF910C
:101A1000089583E090E09E878D87F8CF81E090E085
:101A20009E878D87F3CF0F931F93CF93DF93EC01A6
:101A300080910702882349F10E941E090091030248
:101A4000109104022091050230910602601B710B77
:101A5000820B930B673971058105910520F50E9472
:101A60001E090F81188529853A85601B710B820B31
:101A7000930B6D3271408105910508F018828881C1
:101A8000DF91CF911F910F9108950E941E096093DD
:101A9000030270930402809305029093060281E092
:101AA00080930702C9CF8E010F5F1F4F6FE371E074
:101AB000C8010E943A0A811115C0B80189E192E07B
:101AC0000E943303B80189E692E00E9433030E942A
:101AD0001E096093030270930402809305029093A1
:101AE0000602BDCF6BE871E089E692E00E94F10A40
:101AF000EECF0F931F93CF93DF938C01EB01FC018B
:101B000080819181892BB1F088819981892B51F154
:101B100081EB91E0A0E0892B49F1F801228133812A
:101B20008C819D812817390720F5F80180819181EA
:101B30000E943F1488819981F801918380838A8172
:101B40009B81938382838C819D8195838483198279
:101B500018821B821A821D821C82DF91CF911F91F5
:101B60000F91089580E090E0DC01D5CFA0FFDDCF9C
:101B7000D4CF68817981808191810E9497158C8171
:101B80009D81F801958384831D821C82E6CFCF93CB
:101B9000DF93EC018617970711F00E94790DCE01B3
:101BA000DF91CF910895CF93DF93EC0188819981E4
:101BB000009711F00E943F14198218821D821C8226
:101BC0001B821A82DF91CF910895FC01808191815F
:101BD0000E943F1408950F931F93CF93DF93EC015E
:101BE0008B016F5F7F4F888199810E94C814009795
:101BF00051F0998388831B830A8381E0DF91CF9121
:101C00001F910F91089580E0F9CFCF93DF93EC01FE
:101C100028813981232B29F02A813B812617370718
:101C200070F4CE010E94EB0D882351F08C819D81D0
:101C3000892B49F4E881F981108281E001C081E0BB
:101C4000DF91CF91089581E0FBCFEF92FF920F9348
:101C50001F93CF93DF93FC01C481D581C40FD51F9F
:101C60006115710501F1452B41F481E0DF91CF91C0
:101C70001F910F91FF90EF9008957B018C01BE01A1
:101C80000E94050E882391F3F8012081318184811F
:101C90009581B701820F931F0E949715F801D58394
:101CA000C48381E0E3CF80E0E1CFCF93DF9300D026
:101CB000CDB7DEB769831A8241E050E0BE016F5FA5
:101CC0007F4F0E94250E0F900F90DF91CF910895C6
:101CD000EF92FF920F931F93CF93DF93EC017B0161
:101CE0008A01BA010E94050E882379F01D830C83B6
:101CF000B701888199810E949715CE01DF91CF911C
:101D00001F910F91FF90EF900895CE010E94D30D87
:101D1000F4CFCF93DF93EC016115710571F0FB01F6
:101D200001900020E9F73197AF01461B570B0E9445
:101D3000680ECE01DF91CF9108950E94D30DF9CFA7
:101D4000FC011182108213821282158214826115A5
:101D5000710551F0FB0101900020E9F73197AF01C7
:101D6000461B570B0E94680E0895AF92BF92CF9208
:101D7000DF92EF92FF920F931F93CF93DF935C015B
:101D80006B018A01E9012417350720F08D2FEA0144
:101D9000022F182F6FE371E0C5010E94A00ED6013B
:101DA0001496ED90FC90CE15DF05D0F4E016F10608
:101DB00008F07801D601ED91FC911197EE0DFF1D11
:101DC000108110826D917C916C0F7D1FC5010E9466
:101DD000890EF60180819181E80EF91ED7011C93CE
:101DE000C501DF91CF911F910F91FF90EF90DF9090
:101DF000CF90BF90AF900895FF920F931F93CF9312
:101E0000DF93EC018B01F42E6FE371E00E94A00ED2
:101E1000C8010E942A0999237CF02F2D0F2C000C59
:101E2000330B2817390741F0682FCE010E94550E59
:101E3000C8010E942A09EFCFCE01DF91CF911F91F7
:101E40000F91FF900895AF92BF92CF92DF92EF92E1
:101E5000FF920F931F93CF93DF93CDB7DEB76E97AB
:101E60000FB6F894DEBF0FBECDBF7C018B015A01C7
:101E7000690189E692E00E94E003181619060CF049
:101E80007FC00E941E09F701678370878187928750
:101E900081E080836DE871E0CE0149960E94A00E3A
:101EA00040E269E672E0CE0143960E94FC0EBE015C
:101EB0006D5E7F4FCE0149960E94C70DCE014396BD
:101EC0000E94E50D21E030E050E040E0BE01675E99
:101ED0007F4FCE010D960E94B50E70E060E0CE01FE
:101EE0000D960E94AE01F8018083CE010D960E94EE
:101EF000E50D24E030E041E050E0BE01675E7F4F39
:101F0000CE0107960E94B50ECE0107960E942E0ABA
:101F1000F5016083CE0107960E94E50D2D8D3E8D63
:101F200044E050E0BE01675E7F4FCE0101960E9403
:101F3000B50ECE0101960E942E0AF6016083CE01F5
:101F400001960E94E50DF80180818A35B9F011E013
:101F5000CE0149960E94E50D812F6E960FB6F8943A
:101F6000DEBF0FBECDBFDF91CF911F910F91FF90CC
:101F7000EF90DF90CF90BF90AF90089510E0E8CF42
:101F800010E0EACF0F931F93CF93DF938C01EC0106
:101F900021966FE371E0CE010E94A00EF801178236
:101FA00010861186128626E040E051EE60E070E077
:101FB00089E692E00E94F7036FE371E0CE010E9490
:101FC000890EDF91CF911F910F910895CF93DF93E9
:101FD000EC010E948409CE0101960E94C20FCE013D
:101FE0000C960E9458091E861D8681E090E0988B11
:101FF0008F8786E090E09A8B898B85E090E09C8BC0
:102000008B8B1D8E1E8E1F8E18A219A21AA21BA2C8
:102010001CA240E052EC61E070E089E192E00E9495
:10202000630566E971E089E192E00E94070BDF91A8
:10203000CF9108950F931F93CF93DF93EC018B0102
:10204000019751F0CD2B19F40F3F1F4F69F0DF912D
:10205000CF911F910F9108956F3F7F4F99F78EEDAC
:1020600091E00E94E60FEECF80EE91E00E94E50D38
:10207000EECF0F931F93CF93DF938C01EB016FE3B0
:1020800071E00E94A00E8A8D882331F09B8D9923E8
:1020900019F09C8D911118C0882319F09B8D911116
:1020A00019C09B8D992319F02C8D211119C0911104
:1020B0001DC0811121C08C8D811124C0C801DF9108
:1020C000CF911F910F91089567EA71E0C8010E94B6
:1020D000890EF4CF60EB71E0C8010E94890EEECF4B
:1020E00069EB71E0C8010E94890EE8CF62EC71E0F3
:1020F000C8010E94890EE2CF6BEC71E0C8010E941A
:10210000890EDCCF64ED71E0C8010E94890ED6CF44
:10211000EF92FF920F931F93CF93DF9300D000D0E5
:1021200000D0CDB7DEB78C017C018FEFE81AF80A3A
:102130009801275E3F4FA801485E5F4FB801695E76
:102140007F4FC7010E94230FF801858BC7010E94B2
:10215000130DF801868B82E00E94470721E0C297A9
:102160000CF020E0F801228F84E00E94470721E074
:10217000C2970CF020E0F801238F83E00E9447070C
:1021800021E0C2970CF020E0F801248FB801CE01C5
:1021900001960E943910BE016F5F7F4FC801029601
:1021A0000E94C70DCE0101960E94E50D26960FB63E
:1021B000F894DEBF0FBECDBFDF91CF911F910F917D
:1021C000FF90EF9008958EED91E00E9488108EEDC3
:1021D00091E00E943F0C8EED91E00E94A509809154
:1021E000EB019091EC010597029708F008958EEDB0
:1021F00091E00E94190BFACF1F920F920FB60F9227
:1022000011242F933F934F935F936F937F938F93FB
:102210009F93AF93BF93CF93EF93FF93E1EEF0E0E3
:10222000C0818081837F8083C3FD18C0C2FD21C02F
:10223000C4FD3BC0C0FF4AC0E2EEF0E080818E7E6C
:1022400080618083E1EEF0E080818E7E80838091EA
:102250000D038E7E816080930D0338C042E360E001
:1022600080E00E94A50210920F0388E08093F000A6
:10227000DDCF83E00E94B20180910C03882341F0FE
:1022800080910C03815080930C03811101C05D9AF1
:1022900080910B03882361F280910B03815080931E
:1022A0000B038111C5CF289AC3CFE2EEF0E0808105
:1022B0008E7E81608083E1EEF0E080818F7E80837E
:1022C00080910D038E7E806180930D03FF91EF91CD
:1022D000CF91BF91AF919F918F917F916F915F91BE
:1022E0004F913F912F910F900FBE0F901F90189517
:1022F0001F920F920FB60F9211242F933F934F937B
:102300005F936F937F938F939F93AF93BF93EF935D
:10231000FF93CF93DF93CDB7DEB72897DEBFCDBF56
:102320001092E9008091E80083FF2EC088E0FE0152
:1023300031969FEF980F882331F08091F1008083D0
:10234000892F3196F6CF289884E680930B0382EF8D
:102350008093E8009981992384F18EEF8093E800BF
:10236000892F807609F075C08A814B812C81322FAC
:10237000242F81112EC0903829F1E1EFF0E0108276
:1023800010828EEF8093E80028960FB6F894DEBF97
:102390000FBECDBFDF91CF91FF91EF91BF91AF9174
:1023A0009F918F917F916F915F914F913F912F916D
:1023B0000F900FBE0F901F9018958091E80080FF3E
:1023C000FCCFCECF80910E03E1EFF0E0808310824E
:1023D000D8CF8130A9F08330F9F0853049F18630CB
:1023E00079F1873009F43FC0883079F1893049F6B6
:1023F0009370C9F50E9487028B8180930F03C1CF30
:102400009111BFCF2130310509F0BBCF80910E0370
:102410008D7F80930E03B5CF9111B3CF213031055D
:1024200009F0AFCF80910E03826080930E03A9CF95
:102430008091E80080FFFCCF40684093E300A1CF8B
:10244000CE0101960E94640A0CC081E08093F100E5
:1024500098CF8F8198850E947C02CE0101960E94C0
:102460006C0681118ECF81E28093EB008DCF0E94AC
:102470006B0786E093E00E941F080E94E3100E9411
:10248000E604FBCF1F920F920FB60F9211242F93E9
:102490003F934F935F936F937F938F939F93AF93EC
:1024A000BF93EF93FF9389E692E00E945904FF9156
:1024B000EF91BF91AF919F918F917F916F915F91BC
:1024C0004F913F912F910F900FBE0F901F90189535
:1024D0001F920F920FB60F9211242F938F939F93F9
:1024E000AF93BF93EF93FF93E0917902F0917A025B
:1024F000808182FD14C0E9E6F2E0A689B7892C91BB
:10250000818D8F5F8F73928D891771F0DF01E18D5F
:10251000F0E0E759FD4F258F59968C9305C0E09167
:102520007F02F09180028081FF91EF91BF91AF9186
:102530009F918F912F910F900FBE0F901F90189524
:102540001F920F920FB60F9211240F931F932F9388
:102550003F934F935F936F937F938F939F93AF932B
:10256000BF9300911002109111022091120230913C
:10257000130290910F02B901A8014F5F5F4F6F4F97
:102580007F4F83E0890F8D3740F086E8890FB901CE
:10259000A8014E5F5F4F6F4F7F4F80930F024093B4
:1025A00010025093110260931202709313028091F3
:1025B000140290911502A0911602B0911702019693
:1025C000A11DB11D8093140290931502A0931602D1
:1025D000B0931702BF91AF919F918F917F916F91AF
:1025E0005F914F913F912F911F910F910F900FBECF
:1025F0000F901F9018956FEF7FEF90E080E00E94A2
:102600001A1008950E9473030E94F2040C94260A83
:102610001F93FC0199278827BC01E894119110327F
:10262000E9F3193010F01E30C8F31B3251F01D329F
:1026300049F4689406C00E942F13610F711D811D1B
:10264000911D119110531A30B0F33EF4909580957E
:10265000709561957F4F8F4F9F4F1F910895592F10
:10266000482F372F262F660F771F881F991F660F59
:10267000771F881F991F620F731F841F951F660F96
:10268000771F881F991F08952F923F924F925F9254
:102690006F927F928F929F92AF92BF92CF92DF9272
:1026A000EF92FF920F931F93CF93DF93CDB7DEB7D7
:1026B000CA1BDB0B0FB6F894DEBF0FBECDBF09946B
:1026C0002A88398848885F846E847D848C849B84C2
:1026D000AA84B984C884DF80EE80FD800C811B81D0
:1026E000AA81B981CE0FD11D0FB6F894DEBF0FBEFF
:1026F000CDBFED010895A1E21A2EAA1BBB1BFD015F
:102700000DC0AA1FBB1FEE1FFF1FA217B307E407D0
:10271000F50720F0A21BB30BE40BF50B661F771F28
:10272000881F991F1A9469F7609570958095909508
:102730009B01AC01BD01CF010895EE0FFF1F059075
:10274000F491E02D09940F931F93CF93DF93823080
:10275000910510F482E090E0E0911E03F0911F03D8
:1027600030E020E0B0E0A0E0309799F42115310589
:1027700009F44AC0281B390B24303105D8F58A8169
:102780009B816115710589F1FB0193838283FE01B1
:1027900011C0408151810281138148175907E0F02F
:1027A0004817590799F4109761F012960C931297F5
:1027B00013961C933296CF01DF91CF911F910F9109
:1027C000089500931E0310931F03F4CF21153105C4
:1027D00051F04217530738F0A901DB019A01BD01FE
:1027E000DF01F801C1CFEF01F9CF90931F03809370
:1027F0001E03CDCFFE01E20FF31F81939193225070
:10280000310939832883D7CF20911C0330911D03D0
:10281000232B41F420910E0130910F0130931D03C1
:1028200020931C0320910C0130910D0121153105DD
:1028300041F42DB73EB74091100150911101241B76
:10284000350BE0911C03F0911D03E217F307A0F490
:102850002E1B3F0B2817390778F0AC014E5F5F4FF6
:102860002417350748F04E0F5F1F50931D03409308
:102870001C03819391939FCFF0E0E0E09CCFCF9336
:10288000DF930097E9F0FC01329713821282A09146
:102890001E03B0911F03ED0130E020E01097A1F47A
:1028A00020813181820F931F20911C0330911D03E1
:1028B0002817390709F061C0F0931D03E0931C034A
:1028C000DF91CF910895EA01CE17DF07E8F54A813D
:1028D0005B819E0141155105B1F7E901FB83EA8354
:1028E00049915991C40FD51FEC17FD0761F4808100
:1028F00091810296840F951FE901998388838281D3
:1029000093819B838A83F0E0E0E012968D919C9105
:1029100013970097B9F52D913C911197CD0102962F
:10292000820F931F20911C0330911D032817390734
:1029300039F6309751F510921F0310921E03B09391
:102940001D03A0931C03BCCFD383C283408151815C
:10295000840F951FC817D90761F44E5F5F4F8881B8
:102960009981480F591F518340838A819B819383AA
:1029700082832115310509F0B0CFF0931F03E09356
:102980001E039ECFFD01DC01C0CF13821282D7CF80
:10299000B0E0A0E0EEECF4E10C9446138C0100975B
:1029A00051F4CB010E94A3138C01C801CDB7DEB74F
:1029B000E0E10C946213FC01E60FF71F9C0122502A
:1029C0003109E217F30708F49DC0D901CD91DC91DC
:1029D0001197C617D70798F0C530D10530F3CE014F
:1029E00004978617970708F3C61BD70B2297C19346
:1029F000D1936D937C93CF010E943F14D6CF5B019E
:102A0000AC1ABD0A4C018C0E9D1EA0911E03B09104
:102A10001F03512C412CF12CE12C109731F58091A2
:102A20001C0390911D038815990509F05CC046169A
:102A3000570608F058C080910C0190910D01009745
:102A400041F48DB79EB74091100150911101841B44
:102A5000950BE817F90708F055C0F0931D03E093B4
:102A60001C03F90171836083A0CF8D919C91119714
:102A700012966C90129713967C901397A815B9052F
:102A800059F56C0142E0C40ED11CCA14DB0420F1DC
:102A9000AC014A195B09DA011296159780F062823F
:102AA000738251834083D9016D937C93E114F104C7
:102AB00071F0D7011396FC93EE93129776CF22967E
:102AC0008C0F9D1FF90191838083F301EFCFF09369
:102AD0001F03E0931E0369CF4816590608F42C0122
:102AE0007D01D3019ACFCB010E94A3137C010097F3
:102AF00049F0AE01B8010E948515C8010E943F143B
:102B0000870153CF10E000E050CFFB01DC0102C091
:102B100001900D9241505040D8F70895FB01DC011F
:102B20008D91019080190110D9F3990B0895FB0143
:102B3000DC0101900D920020E1F7089510E0C4ED52
:102B4000D0E004C0FE010E949D132196C53DD1072F
:062B5000C9F7F894FFCF65
:102B5600FFFFFFFF00E1000000000000000020036F
:102B6600800000000000140500092E052A05530503
:102B760033054105000000007A044203AD03C30497
:102B8600E003BE03D20300C180810000000D0A00ED
:102B96004E4F53454E53004C454654005249474804
:102BA60054004D494400424C004252003352004307
:102BB6006F6E6E656374656400646973636F6E6ED1
:102BC600656374656400436F6C6C6973696F6E004E
:102BD6004175746F6E6F6D6F7573005900202020FC
:102BE600202020202000427261696E5F53746F724C
:102BF6006D5F56322E300046313131303030200094
:102C060046313130303030200046303131303030CE
:102C16002000463031303030302000463130303000
:0E2C2600303020004630303130303020000099
:00000001FF
