:100000000C94C5000C94ED000C94ED000C94ED00E4
:100010000C94ED000C94ED000C94ED000C94ED00AC
:100020000C94ED000C94ED000C94DC0D0C94580E27
:100030000C94ED000C94ED000C94ED000C94ED008C
:100040000C94ED000C94ED000C94ED000C94ED007C
:100050000C94ED000C94ED000C94ED000C94820FC8
:100060000C94ED000C944A0F0C94240F0C94ED00AA
:100070000C94ED000C94ED000C94ED000C94ED004C
:100080000C94ED000C94ED000C94ED000C94ED003C
:100090000C94ED000C94ED000C94ED000C94ED002C
:1000A0000C94ED000C94ED000C94ED000706050493
:1000B0000100080A0B0C0D090000000025002800B3
:1000C0002B002E00310000000000240027002A0031
:1000D0002D0030000404040404030405020202029B
:1000E00004030202020206060606060604040202D1
:1000F00002040404080201104080401020408040A7
:10010000800802040180402010020110801020406D
:100110004020080B00020202010009040000010255
:10012000020000052400100105240101010424023D
:10013000060524060001070581031000400904019B
:1001400000020A00000007050202400000070583C4
:10015000024000000403090412010002EF02014002
:100160004123368000010102030141726475696E0A
:100170006F204C4C430041726475696E6F204C6572
:100180006F6E6172646F0000DD0F11241FBECFEF30
:10019000DAE0DEBFCDBF22E0A6E6B1E001C01D92ED
:1001A000A039B207E1F711E0A0E0B1E0E4EEF4E23B
:1001B00002C005900D92A636B107D9F710E0C5EC44
:1001C000D0E004C02197FE010E947810C43CD10702
:1001D000C9F70E94170F0C9470120C940000FC01D8
:1001E00082E0808384E0818313821282089580916B
:1001F0008402882319F080E892E0089580E892E074
:100200000E94EF0081E080938402F5CF0F931F934B
:10021000CF93DF938B01FC01C281D381209771F0D2
:10022000E881F9810190F081E02DB801CE010995B6
:10023000811105C00884D985C02DF0CF80E0DF9101
:10024000CF911F910F9108950F931F93CF93DF9339
:100250008B01FC01C281D381209771F0E881F98183
:100260000680F781E02DB801CE010995080F111D18
:100270000884D985C02DF0CFF8011082DF91CF918D
:100280001F910F9108950F931F93CF93DF938B01CD
:10029000FC01C281D381209771F0E881F98104804B
:1002A000F581E02DB801CE010995009731F408845D
:1002B000D985C02DF0CF90E080E0DF91CF911F91E4
:1002C0000F910895EF92FF920F931F93CF93DF93B7
:1002D0007B01FC01C281D38110E000E0209791F006
:1002E000E881F9810280F381E02DB701CE01099503
:1002F000992334F0080F191F0884D985C02DEECF3B
:100300000FEF1FEFC801DF91CF911F910F91FF9069
:10031000EF9008950895FC012481358162177307D9
:1003200048F480819181009739F0680F791FFB01B3
:100330008081089580E0089580E008950E948B01F7
:10034000089508958093E9008091F200882319F0C0
:100350008AE38093E8000895CF93DF93EC01AB012B
:100360000CC0A0E4B0E010C0289894E690937B0203
:100370009BEF9093E8004A1B5B0B41155105C1F0C0
:100380004134510574F7DA019091E80092FFFCCFF7
:100390009A2FFB01E41BF50BEC0FFD1F2FEF290F2C
:1003A000992311F39091F1009083922F3196F6CF1B
:1003B000CB01DF91CF9108954091790250917A025B
:1003C000209177023091780242175307B4F490914C
:1003D000E8009570E1F39091E80092FD19C08093D8
:1003E000F1008091790290917A0201968F7399279A
:1003F000892B19F48EEF8093E80080917902909117
:100400007A02019690937A028093790281E00895AE
:1004100080E00895EF92FF920F931F93CF93DF93A5
:100420007C01062F142F81E0860F880F0E94DC01CB
:1004300083E00E94DC01D0E00DC0F701ED0FF11D5B
:1004400084910E94DC01C82F80E00E94DC018C2393
:1004500059F0DF5FD01738F411237CF3F701ED0F6B
:10046000F11D8081EECF81E0DF91CF911F910F913F
:10047000FF90EF900895DF92EF92FF920F931F93FA
:10048000CF93DF93EB01D42EE52EF82E242F352FBA
:100490000BC09E012F5F3F4FFE018491E9010E9436
:1004A000DC019801882351F0890101501109232BA7
:1004B00049F0FF2074F388812196F1CFDD24DA948E
:1004C000EE24EA948D2D9E2DDF91CF911F910F91F7
:1004D000FF90EF90DF9008951092E90010927A0259
:1004E000109279029093780280937702089581E0C8
:1004F0008730A8F4282F30E0F901EA5CFE4F9081A4
:10050000992369F08093E90091E09093EB0090814A
:100510009093EC0096E39093ED008F5FE9CFEAEEC5
:10052000F0E08EE78083108208958093E90081E0F7
:100530008093EB006093EC004093ED000895CF931F
:10054000DF931F92CDB7DEB79FB79983F89487707A
:100550008093E9009091E800892F807295FF04C094
:100560009091F20080E4891B99819FBF0F90DF91E9
:10057000CF910895CF93DF931F92CDB7DEB7FB01E4
:1005800090917F02992379F1552384F19FB7998344
:10059000F89487708093E9006091F20070E046174C
:1005A00057070CF4BA01962F2FEF290F992351F01A
:1005B000289894E690937B029091F1009083922F7B
:1005C0003196F2CF6115710539F08091F2008111F9
:1005D00003C08BE68093E80089818FBFCB010F9029
:1005E000DF91CF9108956FEF7FEFF8CF6FEF7FEF3F
:1005F000F5CFCF93DF931F92CDB7DEB741E050E048
:10060000BE016F5F7F4F0E94BA02019731F489816A
:1006100090E00F90DF91CF9108958FEF9FEFF9CF8A
:10062000CF93DF931F92CDB7DEB79FB79983F8942E
:1006300087708093E9008091F20099819FBF0F90AD
:10064000DF91CF910895DC01ED91FC910190F08153
:10065000E02D09950895CF92DF92EF92FF920F93CC
:100660001F93CF93DF938C01DB01D0E0C0E07A01D0
:1006700081E0E81AF108452BA1F0F8018081918111
:10068000FC01208131816D01FFEFCF1ADF0A6C91EF
:10069000C801F9010995892B21F02196A701D601FE
:1006A000E6CFCE01DF91CF911F910F91FF90EF9098
:1006B000DF90CF90089508956FEF7FEF81E090E095
:1006C0000E9463030895019709F008956F3F7F4FDB
:1006D000E1F7E9EDF1E01382128288EE93E0A0E009
:1006E000B0E084839583A683B78388E291E0918309
:1006F00080838DEC90E0958784878CEC90E09787E1
:10070000868788EC90E0918B808B89EC90E0938BCE
:10071000828B8AEC90E0958B848B8EEC90E0978BAB
:10072000868B118E128E138E148ECFCFFC01938D7B
:10073000848D981720F4891B990B019708952FE356
:1007400030E0291B3109820F932F911D0895FC0180
:10075000918D828D981761F0A28DAE0FBF2FB11DC4
:100760005D968C91928D9F5F9F73928F90E008951C
:100770008FEF9FEF0895FC01918D828D981731F0D6
:10078000828DE80FF11D858D90E008958FEF9FEF2A
:100790000895FC01218D30E0205C3F4F828DA9013E
:1007A000481B5109CA018F739927089589ED91E07B
:1007B0000E94C90321E0892B09F420E0822F0895CB
:1007C000CF92DF92EF92FF921F93CF93DF93EC01D2
:1007D0006A017B01122F60E079E08DE390E0A701D0
:1007E00096010E9456102150310941095109569530
:1007F000479537952795E889F98982E08083C11468
:1008000081EED806E104F10421F0211580E13807DA
:1008100098F0E889F989108260E874E88EE190E048
:10082000A70196010E945610215031094109510932
:100830005695479537952795EC85FD853083EE8550
:10084000FF852083188EEC89FD891083EA89FB8956
:10085000808180618083EA89FB89808188608083D0
:10086000EA89FB89808180688083EA89FB898081AD
:100870008F7D8083DF91CF911F91FF90EF90DF906C
:10088000CF900895FC01A48DA80FB92FB11DA35AD4
:10089000BF4F2C91848D90E001968F739078848F58
:1008A000A689B7892C93A089B1898C9182748C9385
:1008B000938D848D981308950288F389E02D8081AB
:1008C0008F7D8083F8CF0F931F93CF93DF93EC013D
:1008D00081E0888F9B8D8C8D9817B1F0062F8B8DC2
:1008E00090E001968F739078182F8C8D81131DC026
:1008F0000FB607FCFACFE889F989808185FFF5CF2B
:10090000CE010E944204F1CFE889F989808185FFF8
:10091000E5CF9FB7F894EE89FF896083E889F9896C
:100920008081827480839FBF10C0EB8DEC0FFD2F00
:10093000F11DE35AFF4F00839FB7F8941B8FEA899C
:10094000FB898081806280839FBF81E090E0DF919E
:10095000CF911F910F910895CF93DF93EC01888D74
:10096000811104C00DC00FB607FE0DC0EA89FB89D6
:10097000808185FDF8CFA889B9898C9186FFF3CF56
:10098000DF91CF910895808185FFF0CFE889F989C3
:10099000808185FFEBCFCE010E944204E7CF80E04B
:1009A00090E0892B21F00E94D603811101C00895A7
:1009B0000E940000FCCF6FEF7FEF81E090E00E948B
:1009C000E2040895019709F008956F3F7F4FE1F722
:1009D000E9E8F1E01382128288EE93E0A0E0B0E053
:1009E00084839583A683B78386E191E09183808396
:1009F0008FEF9FEF95878487E7CFCF93DF931F9289
:100A0000CDB7DEB76983DC01ED91FC910280F38103
:100A1000E02D41E050E0BE016F5F7F4F09950F90E0
:100A2000DF91CF91089583E00E94A201089583E0B1
:100A30000E949F0290E00895FC018485958599238A
:100A40002CF02FEF3FEF35872487089582E00E9436
:100A5000F9020895CF93DF93EC018C859D8599234E
:100A60002CF08C859D85DF91CF91089582E00E94C6
:100A7000F9029D878C87F5CFFC01848595859923A4
:100A800034F082E00E94100390E00196089582E025
:100A90000E94100390E008952FEF3FEFFC0135878F
:100AA00024870895FC0190819E5F908342E450E08A
:100AB00062E171E080E80E943B020895CF93DF93EA
:100AC0001F92CDB7DEB71982CE0101960E94520562
:100AD0000E94F700BE016F5F7F4F0E946201898113
:100AE0000F90DF91CF9108950F931F93CF93DF93D2
:100AF000CDB7DEB729970FB6F894DEBF0FBECDBFD6
:100B00008C0190E080E00E946C020E945E051F82D2
:100B100099E0998392E09A8391E09E8390EA988786
:100B20009AEF99872091790230917A02275F3F4F9F
:100B30003C832B838D83C8010E946C0249E050E006
:100B4000BE016F5F7F4F80E00E943B020E945E0506
:100B500081E029960FB6F894DEBF0FBECDBFDF91BE
:100B6000CF911F910F910895EEEFFFE725913491FA
:100B700081E02B3F3C4D09F080E008951F93CF9317
:100B8000DF93EC0119818881813A39F0813281F05B
:100B900080E0DF91CF911F9108951132B9F747E0BE
:100BA00050E064E071E080E00E943B0281E0F1CF20
:100BB000133231F01032A1F01232C9F081E0E9CFE6
:100BC0008B819A81892798278927B0E0A0E08093BC
:100BD000000190930101A0930201B0930301EACFB9
:100BE00067E070E084E091E00E94AC01E5CF8A818B
:100BF00080930B010E94B405811116C0E0E0F8E07B
:100C00008091040190910501A0910601B091070126
:100C1000803B9440A105B10551F0808191818737D7
:100C2000974751F181E0B5CFEEEFFAE0E9CF80913F
:100C30000B0180FDF2CFEE3F8AE0F80749F080819A
:100C400091818737980721F09093FF0A8093FE0ADD
:100C500087E797E791838083809160008093880184
:100C600088E19BE00FB6F894A895809360000FBED2
:100C70009093600081E08DCFA895A0E6B0E08C91C4
:100C800088618C93809188018C93EE3F8AE0F8070D
:100C900041F08091FE0A9091FF0A9183808381E068
:100CA00078CF1182108281E074CFCF93DF93EC0173
:100CB0008C81882341F00E94F700BE010E9406014A
:100CC000DF91CF910895CE010E94BE05F9CFCF9359
:100CD000DF9390E0FC01ED50FF4F24918C529F4F29
:100CE000FC018491882319F190E0880F991FFC0181
:100CF000EA53FF4FA591B491FC01E854FF4FC59111
:100D0000D491662349F06230A9F08FB7F894EC9142
:100D1000E22BEC938FBF0BC09FB7F8948C91E22F1E
:100D2000E0958E238C938881E823E8839FBFDF9131
:100D3000CF9108959FB7F8943C91822F809583239B
:100D40008C93E881E22BE8839FBFF1CF823108F0DA
:100D50008251E82FF0E0E455FF4FE491ABE7B0E0BB
:100D60008C918F7D9E2F990F990F9072892B8C9368
:100D7000E770E064E0937C00EAE7F0E08081806463
:100D8000808380917A0086FDFCCF809178009091DD
:100D900079000895789484B5826084BD84B58160BB
:100DA00084BD85B5826085BD85B5816085BDEEE673
:100DB000F0E0808181608083E1E8F0E01082808152
:100DC00082608083808181608083E0E8F0E08081C0
:100DD00081608083E1E9F0E08081826080838081AE
:100DE00081608083E0E9F0E0808181608083E1ECD4
:100DF000F0E0808184608083808182608083808154
:100E000081608083E3ECF0E0808181608083E0ECAE
:100E1000F0E0808182608083E2ECF0E0808181609C
:100E20008083EAE7F0E08081846080838081826053
:100E30008083808181608083808180688083089541
:100E40003FB7F8948091840190918501A09186012B
:100E5000B091870126B5A89B05C02F3F19F00196D8
:100E6000A11DB11D3FBFBA2FA92F982F8827BC0104
:100E7000CD01620F711D811D911D660F771F881FA7
:100E8000991F660F771F881F991F08958F929F9251
:100E9000AF92BF92CF92DF92EF92FF926B017C01F3
:100EA0000E9420074B015C011BC021E0C21AD1083F
:100EB000E108F10888EE880E83E0981EA11CB11CA1
:100EC000C114D104E104F10459F00E94200768190B
:100ED00079098A099B09683E73408105910528F7C5
:100EE000C114D104E104F10459F7FF90EF90DF90B1
:100EF000CF90BF90AF909F908F90089510927F02F7
:100F000010927E0210927D02E7EDF0E08081816018
:100F1000808380EA8093D80089B5806189BD89B5D6
:100F2000826089BD09B400FEFDCF61E070E080E021
:100F300090E00E944607E8EDF0E080818F7C8061C0
:100F40008083E0EEF0E08081807F8083E1EEF0E05E
:100F500080818E7E80838DE08093E200559A209A76
:100F600008959F92AF92BF92CF92DF92EF92FF923D
:100F70000F931F93CF93DF931F92CDB7DEB7D82E79
:100F80008B01942EA52E80917F02882309F491C0B5
:100F900080917D0280FF05C0E0EEF0E080818260FC
:100FA0008083E92CFA2CB12C0F2EFAEFCF2EF02DE6
:100FB00043C08E151F0411F00CF08E2D2FB729831E
:100FC000F8942D2D27702093E9002091E80025FF4B
:100FD00012C0E81AF108D5FC11C0DD20BCF02FEFDB
:100FE000280F882309F1F80130813093F100822F16
:100FF0000F5F1F4FF4CF89818FBF1EC02FEF280FC7
:10100000882391F01092F100822FF8CF9FEF980F74
:10101000882351F098012F5F3F4FF801049100930E
:10102000F100892F8901F2CFBB20D1F08AE38093B0
:10103000E800B12C89818FBFE114F10411F4BB20C9
:1010400029F18D2D0E949F028111B3CFCA94CC202B
:1010500099F161E070E080E090E00E944607ECCFFB
:101060008091E80085FD09C08AE38093E800E114DF
:10107000F10401F7BB24B394DDCFE114F104D1F600
:10108000D6FED8CF8AE38093E800D4CF5D9884E67B
:1010900080937C02892D9A2D0F90DF91CF911F9123
:1010A0000F91FF90EF90DF90CF90BF90AF909F9007
:1010B00008958FEF9FEFF0CF8FEF9FEFEDCFCF939E
:1010C000DF9320910B0121110AC021E030E0FC01E7
:1010D0003383228380E090E0DF91CF910895EC018B
:1010E00083E00E94B10718161906B4F381E090E07E
:1010F0009B838A8380E090E0EFCF2FB7F8946091D4
:1011000080017091810180918201909183012FBFB4
:1011100008950F931F93CF93DF93EC010E947D08F6
:10112000688779878A879B87E881F9810284F385BC
:10113000E02DCE0109959923ACF40E947D08088525
:1011400019852A853B85601B710B820B930B0C81E3
:101150001D812E813F81601771078207930720F35D
:101160008FEF9FEFDF91CF911F910F910895611144
:1011700008C076981092BF001092BE004093D20033
:101180000895769AF7CF61110BC05C981092950084
:101190001092940050E05093990040939800089565
:1011A0005C9AF4CF3E9A549A81E8809390008BE049
:1011B00080939100109295001092940010929900E3
:1011C00010929800579A6E9A87E08093C10089E048
:1011D0008093C2001092C3001092BF001092BE0014
:1011E0001092D20008950F931F93CF93DF93EC01D9
:1011F00080917701882349F10E947D080091730155
:10120000109174012091750130917601601B710B72
:10121000820B930B673971058105910520F50E94BA
:101220007D0809811A812B813C81601B710B820B27
:10123000930B6D3271408105910508F01882888109
:10124000DF91CF911F910F9108950E947D086093C7
:10125000730170937401809375019093760181E01E
:1012600080937701C9CF61E489ED91E00E94230367
:101270000E947D08609373017093740180937501DF
:1012800090937601CCCFFC011182128213821482DA
:1012900026E040E051EE60E070E089ED91E00E94D0
:1012A000E00308956FEF7FEF81E090E00E9459091D
:1012B0000895019709F008956F3F7F4FE1F782E7A6
:1012C00091E00E94D2088DE691E00E944309F3CF9D
:1012D000FC0180819181009719F00E94E30F08952D
:1012E00060E070E0CB010895FF920F931F93CF93BE
:1012F000DF93CDB7DEB764970FB6F894DEBF0FBEAD
:10130000CDBF8C01FC01F380F2E0FF16B1F0FC01CF
:10131000868197810E946C020E94F700B8010E94AA
:1013200043019C01892BD1F4F1E0FF1609F44BC075
:1013300083E0F816C9F080E005C0FC018681978142
:101340000E94740564960FB6F894DEBF0FBECDBF41
:10135000DF91CF911F910F91FF90089581E01216B8
:10136000130684F380E0EECFF80182818823C1F177
:10137000823031F0813059F0833081F080E0E2CF6B
:1013800040E860E186E791E00E940A02DBCF40E896
:101390006BE08AE691E00E940A02D4CF0E94F70037
:1013A0008E010F5F1F4FB8010E942401F8010190C8
:1013B0000020E9F73197BF01601B710B40E0C801C5
:1013C0000E940A02BFCF68E571E06115710559F00E
:1013D000FB01449150E080E80E943B0281E0B2CFE3
:1013E00064E571E0F2CF80E0ADCFDC01ED91FC91DE
:1013F0000280F381E02D42E050E06DE371E0099559
:1014000008956115710581F0FB0101900020E9F755
:101410003197AF01461B570BDC01ED91FC91028027
:10142000F381E02D0995089590E080E008950F93F1
:101430001F93CF93DF93EC010E94010A8C01CE0130
:101440000E94F509800F911FDF91CF911F910F919D
:10145000089540E052EC61E070E089E891E00E947C
:101460004C0560E471E089E891E00E94170A10924F
:1014700069011092680181E090E090936701809388
:10148000660169E170E080E090E00E94460760E05C
:1014900082E00E94670660E084E00E94670660E0E8
:1014A00083E00E94670608950F931F93CF93DF9305
:1014B0008C01EB01FC0180819181892BB1F0888145
:1014C0009981892B51F181EA91E0A0E0892B49F1C2
:1014D000F801228133818C819D812817390720F5FD
:1014E000F801808191810E941A1188819981F80107
:1014F000918380838A819B81938382838C819D8168
:1015000095838483198218821B821A821D821C8211
:10151000DF91CF911F910F91089580E090E0DC0161
:10152000D5CFA0FFDDCFD4CF688179818081918133
:101530000E9469128C819D81F801958384831D82AC
:101540001C82E6CFCF93DF93EC018617970711F04B
:101550000E94540ACE01DF91CF910895CF93DF937B
:10156000EC0188819981009711F00E941A1119826B
:1015700018821D821C821B821A82DF91CF910895EE
:10158000FC01808191810E941A1108950F931F938D
:10159000CF93DF93EC018B016F5F7F4F888199813F
:1015A0000E94A311009751F0998388831B830A83BB
:1015B00081E0DF91CF911F910F91089580E0F9CFE5
:1015C000CF93DF93EC0128813981232B29F02A81E5
:1015D0003B812617370770F4CE010E94C60A882384
:1015E00051F08C819D81892B49F4E881F981108229
:1015F00081E001C081E0DF91CF91089581E0FBCFD0
:10160000EF92FF920F931F93CF93DF93FC01C4815E
:10161000D581C40FD51F6115710501F1452B41F42A
:1016200081E0DF91CF911F910F91FF90EF9008958E
:101630007B018C01BE010E94E00A882391F3F8012E
:101640002081318184819581B701820F931F0E948F
:101650006912F801D583C48381E0E3CF80E0E1CF54
:10166000CF93DF9300D0CDB7DEB769831A8241E014
:1016700050E0BE016F5F7F4F0E94000B0F900F90F4
:10168000DF91CF910895EF92FF920F931F93CF9325
:10169000DF93EC017B018A01BA010E94E00A8823F2
:1016A00079F01D830C83B701888199810E946912AA
:1016B000CE01DF91CF911F910F91FF90EF90089590
:1016C000CE010E94AE0AF4CFCF93DF93EC016115F7
:1016D000710571F0FB0101900020E9F73197AF012E
:1016E000461B570B0E94430BCE01DF91CF9108950B
:1016F0000E94AE0AF9CFFC0111821082138212827D
:10170000158214826115710551F0FB0101900020D2
:10171000E9F73197AF01461B570B0E94430B089521
:10172000AF92BF92CF92DF92EF92FF920F931F93EF
:10173000CF93DF935C016B018A01E9012417350720
:1017400020F08D2FEA01022F182F6FE371E0C50101
:101750000E947B0BD6011496ED90FC90CE15DF0510
:10176000D0F4E016F10608F07801D601ED91FC9175
:101770001197EE0DFF1D108110826D917C916C0F01
:101780007D1FC5010E94640BF60180819181E80EE6
:10179000F91ED7011C93C501DF91CF911F910F91C5
:1017A000FF90EF90DF90CF90BF90AF900895FF92A1
:1017B0000F931F93CF93DF93EC018B01F42E6FE314
:1017C00071E00E947B0BC8010E94890899237CF07C
:1017D0002F2D0F2C000C330B2817390741F0682FE1
:1017E000CE010E94300BC8010E948908EFCFCE01C4
:1017F000DF91CF911F910F91FF900895AF92BF920B
:10180000CF92DF92EF92FF920F931F93CF93DF93CC
:10181000CDB7DEB76E970FB6F894DEBF0FBECDBF63
:101820007C018B015A01690189ED91E00E94C90395
:10183000181619060CF07FC00E947D08F70161831D
:1018400072838383948381E0808366E471E0CE01B8
:1018500049960E947B0B40E269ED71E0CE01439610
:101860000E94D70BBE016D5E7F4FCE0149960E944C
:10187000A20ACE0143960E94C00A21E030E050E067
:1018800040E0BE01675E7F4FCE010D960E94900B37
:1018900070E060E0CE010D960E949E01F801808309
:1018A000CE010D960E94C00A24E030E041E050E0F5
:1018B000BE01675E7F4FCE0107960E94900BCE015E
:1018C00007960E946809F5016083CE0107960E9481
:1018D000C00A2D8D3E8D44E050E0BE01675E7F4F13
:1018E000CE0101960E94900BCE0101960E946809DC
:1018F000F6016083CE0101960E94C00AF801808142
:101900008A35B9F011E0CE0149960E94C00A812FB4
:101910006E960FB6F894DEBF0FBECDBFDF91CF91AC
:101920001F910F91FF90EF90DF90CF90BF90AF90FD
:10193000089510E0E8CF10E0EACFCF932AE631E037
:101940004BE651E06CE671E08DE691E00E94FE0B03
:10195000C82F8DE691E00E94F30820916801309134
:1019600069012230310509F49CC0C8F52115310503
:1019700009F45DC021303105F1F5811104C01092E8
:10198000690110926801CC2331F082E090E09093DD
:1019900069018093680182E00E94A6064E9734F0A8
:1019A00084E00E94A6064E970CF050C083E090E0C1
:1019B000909369018093680140E061E082E791E0E3
:1019C0000E94B70840E061E082E791E00E94C3080E
:1019D0006FE471E089E891E00E94170A0CC023309F
:1019E0003105D1F12430310531F483E090E090935A
:1019F000690180936801809168019091690120914B
:101A00006601309167018217930779F0909367011F
:101A1000809366018230910509F45DC084309105A0
:101A200009F4A2C0892B09F443C0CF9108958823FB
:101A300011F381E090E090936901809368016CE577
:101A400071E089E891E00E94170AD5CF83E00E94F7
:101A5000A6064E9784F6AACF811104C010926901A0
:101A60001092680182E00E94A6064F974CF4CC23A6
:101A700011F284E090E09093690180936801BBCFFC
:101A800084E00E94A6064F9794F383E00E94A60686
:101A90004F976CF381E090E0909369018093680127
:101AA000E6CF81E090E09093690180936801A3CF35
:101AB00040E061E082E791E00E94B70840E061E029
:101AC00082E791E00E94C30869E571E089E891E04E
:101AD0000E94170AAACF80916C01823439F1A4F0D8
:101AE000833499F1843409F0A0CF40916B0160E018
:101AF00082E791E00E94B70840916A0161E082E7C5
:101B000091E00E94C30891CF813409F08ECF4091BB
:101B10006B0161E082E791E00E94B70840916A01A1
:101B200061E082E791E00E94C3087FCF40916B01A2
:101B300060E082E791E00E94B70840916A0160E0AE
:101B400082E791E00E94C30870CF40916B0161E091
:101B500082E791E00E94B70840916A0160E082E765
:101B600091E00E94C30861CF80916C018334A1F0A1
:101B70008434D1F0823409F058CF40916B0160E099
:101B800082E791E00E94B70840916A0160E082E735
:101B900091E00E94C30849CF40916A0160E082E76A
:101BA00091E00E94C30841CF40916B0160E082E761
:101BB00091E00E94B70839CF1F920F920FB60F9293
:101BC00011242F933F934F935F936F937F938F9342
:101BD0009F93AF93BF93CF93EF93FF93E1EEF0E02A
:101BE000C0818081837F8083C3FD18C0C2FD21C076
:101BF000C4FD3BC0C0FF4AC0E2EEF0E080818E7EB3
:101C000080618083E1EEF0E080818E7E8083809130
:101C10007D028E7E816080937D0238C042E360E069
:101C200080E00E94950210927F0288E08093F0008D
:101C3000DDCF83E00E94A20180917C02882341F0E5
:101C400080917C02815080937C02811101C05D9A59
:101C500080917B02882361F280917B028150809386
:101C60007B028111C5CF289AC3CFE2EEF0E08081DC
:101C70008E7E81608083E1EEF0E080818F7E8083C4
:101C800080917D028E7E806180937D02FF91EF9135
:101C9000CF91BF91AF919F918F917F916F915F9104
:101CA0004F913F912F910F900FBE0F901F9018955D
:101CB0001F920F920FB60F9211242F933F934F93C1
:101CC0005F936F937F938F939F93AF93BF93EF93A4
:101CD000FF93CF93DF93CDB7DEB72897DEBFCDBF9D
:101CE0001092E9008091E80083FF2EC088E0FE0199
:101CF00031969FEF980F882331F08091F100808317
:101D0000892F3196F6CF289884E680937B0282EF64
:101D10008093E8009981992384F18EEF8093E80005
:101D2000892F807609F075C08A814B812C81322FF2
:101D3000242F81112EC0903829F1E1EFF0E01082BC
:101D400010828EEF8093E80028960FB6F894DEBFDD
:101D50000FBECDBFDF91CF91FF91EF91BF91AF91BA
:101D60009F918F917F916F915F914F913F912F91B3
:101D70000F900FBE0F901F9018958091E80080FF84
:101D8000FCCFCECF80917E02E1EFF0E08083108225
:101D9000D8CF8130A9F08330F9F0853049F1863011
:101DA00079F1873009F43FC0883079F1893049F6FC
:101DB0009370C9F50E9477028B8180937F02C1CF17
:101DC0009111BFCF2130310509F0BBCF80917E0248
:101DD0008D7F80937E02B5CF9111B3CF2130310535
:101DE00009F0AFCF80917E02826080937E02A9CFFE
:101DF0008091E80080FFFCCF40684093E300A1CFD2
:101E0000CE0101960E9474090CC081E08093F1001C
:101E100098CF8F8198850E946C02CE0101960E9416
:101E2000550681118ECF81E28093EB008DCF0E9409
:101E3000CA0686E792E00E947E070E94290A0E9455
:101E40009D0C0E94CF04FBCF1F920F920FB60F92F2
:101E500011242F933F934F935F936F937F938F93AF
:101E60009F93AF93BF93EF93FF9389ED91E00E940F
:101E70004204FF91EF91BF91AF919F918F917F911C
:101E80006F915F914F913F912F910F900FBE0F90E7
:101E90001F9018951F920F920FB60F9211242F9337
:101EA0008F939F93AF93BF93EF93FF93E091E901DB
:101EB000F091EA01808182FD14C0E9EDF1E0A6898C
:101EC000B7892C91818D8F5F8F73928D891771F0F7
:101ED000DF01E18DF0E0E752FE4F258F59968C939C
:101EE00005C0E091EF01F091F0018081FF91EF9149
:101EF000BF91AF919F918F912F910F900FBE0F9037
:101F00001F9018951F920F920FB60F9211240F93E6
:101F10001F932F933F934F935F936F937F938F9371
:101F20009F93AF93BF930091800110918101209105
:101F300082013091830190917F01B901A8014F5F27
:101F40005F4F6F4F7F4F83E0890F8D3740F086E8FA
:101F5000890FB901A8014E5F5F4F6F4F7F4F80938C
:101F60007F014093800150938101609382017093BF
:101F700083018091840190918501A0918601B091A7
:101F800087010196A11DB11D809384019093850165
:101F9000A0938601B0938701BF91AF919F918F91DC
:101FA0007F916F915F914F913F912F911F910F9171
:101FB0000F900FBE0F901F9018950E945C030E9417
:101FC000DB040C9452091F93FC0199278827BC015C
:101FD000E89411911032E9F3193010F01E30C8F373
:101FE0001B3251F01D3249F4689406C00E940A1059
:101FF000610F711D811D911D119110531A30B0F3A5
:102000003EF490958095709561957F4F8F4F9F4FCF
:102010001F910895592F482F372F262F660F771FAE
:10202000881F991F660F771F881F991F620F731FE4
:10203000841F951F660F771F881F991F08952F9281
:102040003F924F925F926F927F928F929F92AF9248
:10205000BF92CF92DF92EF92FF920F931F93CF9395
:10206000DF93CDB7DEB7CA1BDB0B0FB6F894DEBF2C
:102070000FBECDBF09942A88398848885F846E8452
:102080007D848C849B84AA84B984C884DF80EE809C
:10209000FD800C811B81AA81B981CE0FD11D0FB6A5
:1020A000F894DEBF0FBECDBFED010895A1E21A2E58
:1020B000AA1BBB1BFD010DC0AA1FBB1FEE1FFF1FEC
:1020C000A217B307E407F50720F0A21BB30BE40B3C
:1020D000F50B661F771F881F991F1A9469F7609583
:1020E0007095809590959B01AC01BD01CF0108953D
:1020F000EE0FFF1F0590F491E02D09940F931F93AD
:10210000CF93DF938230910510F482E090E0E0916C
:102110008E02F0918F0230E020E0B0E0A0E0309736
:1021200099F42115310509F44AC0281B390B2430D4
:102130003105D8F58A819B816115710589F1FB0113
:1021400093838283FE0111C04081518102811381FA
:1021500048175907E0F04817590799F4109761F0AC
:1021600012960C93129713961C933296CF01DF911F
:10217000CF911F910F91089500938E0210938F02BB
:10218000F4CF2115310551F04217530738F0A9015A
:10219000DB019A01BD01DF01F801C1CFEF01F9CFE9
:1021A00090938F0280938E02CDCFFE01E20FF31F3A
:1021B000819391932250310939832883D7CF20917D
:1021C0008C0230918D02232B41F420910E0130912D
:1021D0000F0130938D0220938C0220910C013091DD
:1021E0000D012115310541F42DB73EB74091100185
:1021F00050911101241B350BE0918C02F0918D025E
:10220000E217F307A0F42E1B3F0B2817390778F0CD
:10221000AC014E5F5F4F2417350748F04E0F5F1F2C
:1022200050938D0240938C02819391939FCFF0E065
:10223000E0E09CCFCF93DF930097E9F0FC01329769
:1022400013821282A0918E02B0918F02ED0130E0D4
:1022500020E01097A1F420813181820F931F2091FB
:102260008C0230918D022817390709F061C0F09374
:102270008D02E0938C02DF91CF910895EA01CE1791
:10228000DF07E8F54A815B819E0141155105B1F7F1
:10229000E901FB83EA8349915991C40FD51FEC17DB
:1022A000FD0761F4808191810296840F951FE901F9
:1022B00099838883828193819B838A83F0E0E0E025
:1022C00012968D919C9113970097B9F52D913C91A1
:1022D0001197CD010296820F931F20918C023091AD
:1022E0008D022817390739F6309751F510928F0271
:1022F00010928E02B0938D02A0938C02BCCFD38338
:10230000C28340815181840F951FC817D90761F49A
:102310004E5F5F4F88819981480F591F51834083D9
:102320008A819B81938382832115310509F0B0CF87
:10233000F0938F02E0938E029ECFFD01DC01C0CFAF
:1023400013821282D7CFB0E0A0E0E9EAF1E10C9469
:1023500021108C01009751F4CB010E947E108C015A
:10236000C801CDB7DEB7E0E10C943D10FC01E60FEB
:10237000F71F9C0122503109E217F30708F49DC0B2
:10238000D901CD91DC911197C617D70798F0C530C8
:10239000D10530F3CE0104978617970708F3C61BC3
:1023A000D70B2297C193D1936D937C93CF010E9459
:1023B0001A11D6CF5B01AC1ABD0A4C018C0E9D1EC2
:1023C000A0918E02B0918F02512C412CF12CE12C66
:1023D000109731F580918C0290918D0288159905A6
:1023E00009F05CC04616570608F058C080910C01F1
:1023F00090910D01009741F48DB79EB74091100167
:1024000050911101841B950BE817F90708F055C08E
:10241000F0938D02E0938C02F90171836083A0CF69
:102420008D919C91119712966C90129713967C90B7
:102430001397A815B90559F56C0142E0C40ED11CDB
:10244000CA14DB0420F1AC014A195B09DA011296C7
:10245000159780F06282738251834083D9016D9316
:102460007C93E114F10471F0D7011396FC93EE9381
:10247000129776CF22968C0F9D1FF901918380834E
:10248000F301EFCFF0938F02E0938E0269CF4816ED
:10249000590608F42C017D01D3019ACFCB010E948B
:1024A0007E107C01009749F0AE01B8010E946012D5
:1024B000C8010E941A11870153CF10E000E050CFED
:1024C000FB01DC0102C001900D9241505040D8F751
:1024D0000895FB01DC0101900D920020E1F70895C1
:0424E000F894FFCF9E
:1024E400FFFFFFFF00E10000000000000000900279
:1024F400800000000000FD045F08170513053C057B
:102504001C052A050000000063042B039603AC0499
:10251400C903A703BB0300C180810000000D0A00AA
:1025240052454144590020202020202020200043EF
:102534006F6C6C6973696F6E00646973636F6E6E40
:062544006563746564008C
:00000001FF
