:100000000C9492000C94BA000C94BA000C94BA00B0
:100010000C94BA000C94BA000C94BA000C94BA0078
:100020000C94BA000C94BA000C94D90F0C9455108F
:100030000C94BA000C94BA000C94BA000C94BA0058
:100040000C94BA000C94BA000C94BA000C94BA0048
:100050000C94BA000C94BA000C94BA000C947F1162
:100060000C94BA000C9447110C9421110C94BA0012
:100070000C94BA000C94BA000C94BA000C94BA0018
:100080000C94BA000C94BA000C94BA000C94BA0008
:100090000C94BA000C94BA000C94BA000C94BA00F8
:1000A0000C94BA000C94BA000C94BA00080B00022D
:1000B0000202010009040000010202000005240000
:1000C0001001052401010104240206052406000193
:1000D0000705810310004009040100020A00000026
:1000E00007050202400000070583024000000403E8
:1000F000090412010002EF02014041233680000191
:100100000102030141726475696E6F204C4C43001B
:1001100041726475696E6F204C656F6E6172646FB9
:100120000000DA1111241FBECFEFDAE0DEBFCDBF31
:1001300023E0A0EAB1E001C01D92A131B207E1F7CE
:1001400011E0A0E0B1E0ECE3FBE202C005900D920B
:10015000A03AB107D9F710E0C2E9D0E004C0219776
:10016000FE010E949B13C139D107C9F70E941411E7
:100170000C949C150C940000FC0182E0808384E0C8
:10018000818313821282089580910503882319F0D8
:1001900081E093E0089581E093E00E94BC0081E05B
:1001A00080930503F5CF0F931F93CF93DF938B01BC
:1001B000FC01C281D381209771F0E881F98101901F
:1001C000F081E02DB801CE010995811105C00884A8
:1001D000D985C02DF0CF80E0DF91CF911F910F9195
:1001E00008950F931F93CF93DF938B01FC01C2817E
:1001F000D381209771F0E881F9810680F781E02DA5
:10020000B801CE010995080F111D0884D985C02DAC
:10021000F0CFF8011082DF91CF911F910F910895D7
:100220000F931F93CF93DF938B01FC01C281D38186
:10023000209771F0E881F9810480F581E02DB80103
:10024000CE010995009731F40884D985C02DF0CFEF
:1002500090E080E0DF91CF911F910F910895EF9290
:10026000FF920F931F93CF93DF937B01FC01C28119
:10027000D38110E000E0209791F0E881F9810280BD
:10028000F381E02DB701CE010995992334F0080FD1
:10029000191F0884D985C02DEECF0FEF1FEFC801BD
:1002A000DF91CF911F910F91FF90EF9008950895E6
:1002B000FC01248135816217730748F480819181A4
:1002C000009739F0680F791FFB018081089580E065
:1002D000089580E008950E94580108958093E900F0
:1002E0008091F200882319F08AE38093E800089552
:1002F000CF93DF93EC01AB010CC0A0E4B0E010C0E1
:10030000289894E69093FC029BEF9093E8004A1B98
:100310005B0B41155105C1F04134510574F7DA0109
:100320009091E80092FFFCCF9A2FFB01E41BF50BA4
:10033000EC0FFD1F2FEF290F992311F39091F1007E
:100340009083922F3196F6CFCB01DF91CF91089514
:100350004091FA025091FB022091F8023091F9028B
:1003600042175307B4F49091E8009570E1F390912F
:10037000E80092FD19C08093F1008091FA029091FB
:10038000FB0201968F739927892B19F48EEF8093C6
:10039000E8008091FA029091FB0201969093FB0293
:1003A0008093FA0281E0089580E00895EF92FF9231
:1003B0000F931F93CF93DF937C01062F142F81E0BF
:1003C000860F880F0E94A80183E00E94A801D0E058
:1003D0000DC0F701ED0FF11D84910E94A801C82FF7
:1003E00080E00E94A8018C2359F0DF5FD01738F419
:1003F00011237CF3F701ED0FF11D8081EECF81E039
:10040000DF91CF911F910F91FF90EF900895DF92B0
:10041000EF92FF920F931F93CF93DF93EB01D42EB4
:10042000E52EF82E242F352F0BC09E012F5F3F4F56
:10043000FE018491E9010E94A8019801882351F0EE
:10044000890101501109232B49F0FF2074F38881A1
:100450002196F1CFDD24DA94EE24EA948D2D9E2DA1
:10046000DF91CF911F910F91FF90EF90DF90089552
:100470001092E9001092FB021092FA029093F90296
:100480008093F802089581E08730A8F4282F30E0A7
:10049000F901EA5CFE4F9081992369F08093E900AD
:1004A00091E09093EB0090819093EC0096E3909311
:1004B000ED008F5FE9CFEAEEF0E08EE780831082F7
:1004C00008958093E90081E08093EB006093EC0055
:1004D0004093ED000895CF93DF931F92CDB7DEB721
:1004E0009FB79983F89487708093E9009091E80012
:1004F000892F807295FF04C09091F20080E4891BDF
:1005000099819FBF0F90DF91CF910895CF93DF9393
:100510001F92CDB7DEB7FB0190910003992379F1CB
:10052000552384F19FB79983F89487708093E900ED
:100530006091F20070E0461757070CF4BA01962F4D
:100540002FEF290F992351F0289894E69093FC02FD
:100550009091F1009083922F3196F2CF6115710541
:1005600039F08091F200811103C08BE68093E8009E
:1005700089818FBFCB010F90DF91CF9108956FEFED
:100580007FEFF8CF6FEF7FEFF5CFCF93DF931F9221
:10059000CDB7DEB741E050E0BE016F5F7F4F0E94F4
:1005A0008602019731F4898190E00F90DF91CF911D
:1005B00008958FEF9FEFF9CFCF93DF931F92CDB7C1
:1005C000DEB79FB79983F89487708093E900809194
:1005D000F20099819FBF0F90DF91CF910895DC01C8
:1005E000ED91FC910190F081E02D09950895DB01DA
:1005F00014964D915C9115976D917C91DC01ED9174
:10060000FC910280F381E02D09950895CF92DF924D
:10061000EF92FF920F931F93CF93DF938C01DB0137
:10062000D0E0C0E07A0181E0E81AF108452BA1F0A2
:10063000F80180819181FC01208131816D01FFEF02
:10064000CF1ADF0A6C91C801F9010995892B21F0B5
:100650002196A701D601E6CFCE01DF91CF911F9160
:100660000F91FF90EF90DF90CF90089508956FEF76
:100670007FEF81E090E00E943E030895019709F02A
:1006800008956F3F7F4FE1F7EAE5F2E013821282AF
:1006900088EE93E0A0E0B0E084839583A683B783DF
:1006A00088E291E0918380838DEC90E09587848748
:1006B0008CEC90E09787868788EC90E0918B808B1C
:1006C00089EC90E0938B828B8AEC90E0958B848B05
:1006D0008EEC90E0978B868B118E128E138E148E7B
:1006E000CFCFFC01938D848D981720F4891B990B33
:1006F000019708952FE330E0291B3109820F932FD2
:10070000911D0895FC01918D828D981761F0A28D45
:10071000AE0FBF2FB11D5D968C91928D9F5F9F7321
:10072000928F90E008958FEF9FEF0895FC01918DD7
:10073000828D981731F0828DE80FF11D858D90E044
:1007400008958FEF9FEF0895FC01218D30E0205C2C
:100750003F4F828DA901481B5109CA018F73992708
:1007600008958AE592E00E94A40321E0892B09F410
:1007700020E0822F0895CF92DF92EF92FF921F9395
:10078000CF93DF93EC016A017B01122F60E079E0E7
:100790008DE390E0A70196010E94D012215031090B
:1007A000410951095695479537952795E889F98963
:1007B00082E08083C11481EED806E104F10421F0C7
:1007C000211580E1380798F0E889F989108260E8FE
:1007D00074E88EE190E0A70196010E94D0122150AA
:1007E0003109410951095695479537952795EC856B
:1007F000FD853083EE85FF852083188EEC89FD8989
:100800001083EA89FB89808180618083EA89FB8982
:10081000808188608083EA89FB8980818068808309
:10082000EA89FB8980818F7D8083DF91CF911F9141
:10083000FF90EF90DF90CF900895FC01A48DA80F5A
:10084000B92FB11DA35ABF4F2C91848D90E0019612
:100850008F739078848FA689B7892C93A089B189EA
:100860008C9182748C93938D848D98130895028853
:10087000F389E02D80818F7D8083F8CF0F931F93C4
:10088000CF93DF93EC0181E0888F9B8D8C8D98173F
:10089000B1F0062F8B8D90E001968F739078182F12
:1008A0008C8D81131DC00FB607FCFACFE889F9893A
:1008B000808185FFF5CFCE010E941D04F1CFE8892C
:1008C000F989808185FFE5CF9FB7F894EE89FF898C
:1008D0006083E889F9898081827480839FBF10C01A
:1008E000EB8DEC0FFD2FF11DE35AFF4F00839FB7F7
:1008F000F8941B8FEA89FB898081806280839FBF87
:1009000081E090E0DF91CF911F910F910895CF93F7
:10091000DF93EC01888D811104C00DC00FB607FE76
:100920000DC0EA89FB89808185FDF8CFA889B98946
:100930008C9186FFF3CFDF91CF910895808185FF61
:10094000F0CFE889F989808185FFEBCFCE010E9445
:100950001D04E7CF80E090E0892B21F00E94B103D5
:10096000811101C008950E940000FCCF6FEF7FEF5E
:1009700081E090E00E94BD040895019709F0089578
:100980006F3F7F4FE1F7EAE0F2E01382128288EED8
:1009900093E0A0E0B0E084839583A683B78386E1EB
:1009A00091E0918380838FEF9FEF95878487E7CFD6
:1009B000CF93DF931F92CDB7DEB76983DC01ED9152
:1009C000FC910280F381E02D41E050E0BE016F5FB9
:1009D0007F4F09950F90DF91CF91089583E00E949A
:1009E0006E01089583E00E946B0290E00895FC017F
:1009F0008485958599232CF02FEF3FEF3587248749
:100A0000089582E00E94C5020895CF93DF93EC0120
:100A10008C859D8599232CF08C859D85DF91CF91C8
:100A2000089582E00E94C5029D878C87F5CFFC0166
:100A300084859585992334F082E00E94DC0290E061
:100A40000196089582E00E94DC0290E008952FEF65
:100A50003FEFFC01358724870895FC0190819E5F5C
:100A6000908342E450E06CEA70E080E80E94070264
:100A70000895CF93DF931F92CDB7DEB71982CE01D1
:100A800001960E942D050E94C400BE016F5F7F4F3A
:100A90000E942F0189810F90DF91CF9108950F93CC
:100AA0001F93CF93DF93CDB7DEB729970FB6F89496
:100AB000DEBF0FBECDBF8C0190E080E00E94380207
:100AC0000E9439051F8299E0998392E09A8391E010
:100AD0009E8390EA98879AEF99872091FA02309145
:100AE000FB02275F3F4F3C832B838D83C8010E940D
:100AF000380249E050E0BE016F5F7F4F80E00E9406
:100B000007020E94390581E029960FB6F894DEBFEE
:100B10000FBECDBFDF91CF911F910F910895EEEFE2
:100B2000FFE72591349181E02B3F3C4D09F080E0B7
:100B300008951F93CF93DF93EC0119818881813A47
:100B400039F0813281F080E0DF91CF911F910895DB
:100B50001132B9F747E050E064E071E080E00E94B4
:100B6000070281E0F1CF133231F01032A1F01232DE
:100B7000C9F081E0E9CF8B819A818927982789275D
:100B8000B0E0A0E08093000190930101A0930201E6
:100B9000B0930301EACF67E070E084E091E00E9447
:100BA0007801E5CF8A8180930B010E948F05811126
:100BB00016C0E0E0F8E08091040190910501A09159
:100BC0000601B0910701803B9440A105B10551F0A9
:100BD000808191818737974751F181E0B5CFEEEF62
:100BE000FAE0E9CF80910B0180FDF2CFEE3F8AE081
:100BF000F80749F0808191818737980721F0909319
:100C0000FF0A8093FE0A87E797E7918380838091AC
:100C100060008093090288E19BE00FB6F894A895E4
:100C2000809360000FBE9093600081E08DCFA89507
:100C3000A0E6B0E08C9188618C93809109028C933E
:100C4000EE3F8AE0F80741F08091FE0A9091FF0A9A
:100C50009183808381E078CF1182108281E074CF0C
:100C6000CF93DF93EC018C81882341F00E94C40074
:100C7000BE010E94D300DF91CF910895CE010E9462
:100C80009905F9CF789484B5826084BD84B581607C
:100C900084BD85B5826085BD85B5816085BDEEE684
:100CA000F0E0808181608083E1E8F0E01082808163
:100CB00082608083808181608083E0E8F0E08081D1
:100CC00081608083E1E9F0E08081826080838081BF
:100CD00081608083E0E9F0E0808181608083E1ECE5
:100CE000F0E0808184608083808182608083808165
:100CF00081608083E3ECF0E0808181608083E0ECC0
:100D0000F0E0808182608083E2ECF0E080818160AD
:100D10008083EAE7F0E08081846080838081826064
:100D20008083808181608083808180688083089552
:100D30003FB7F8948091050290910602A0910702B6
:100D4000B091080226B5A89B05C02F3F19F0019667
:100D5000A11DB11D3FBFBA2FA92F982F8827BC0115
:100D6000CD01620F711D811D911D660F771F881FB8
:100D7000991F660F771F881F991F08958F929F9262
:100D8000AF92BF92CF92DF92EF92FF926B017C0104
:100D90000E9498064B015C011BC021E0C21AD108D9
:100DA000E108F10888EE880E83E0981EA11CB11CB2
:100DB000C114D104E104F10459F00E9498066819A5
:100DC00079098A099B09683E73408105910528F7D6
:100DD000C114D104E104F10459F7FF90EF90DF90C2
:100DE000CF90BF90AF909F908F9008951092000386
:100DF0001092FF021092FE02E7EDF0E08081816028
:100E0000808380EA8093D80089B5806189BD89B5E7
:100E1000826089BD09B400FEFDCF61E070E080E032
:100E200090E00E94BE06E8EDF0E080818F7C80615A
:100E30008083E0EEF0E08081807F8083E1EEF0E06F
:100E400080818E7E80838DE08093E200559A209A87
:100E500008959F92AF92BF92CF92DF92EF92FF924E
:100E60000F931F93CF93DF931F92CDB7DEB7D82E8A
:100E70008B01942EA52E80910003882309F491C044
:100E80008091FE0280FF05C0E0EEF0E0808182608C
:100E90008083E92CFA2CB12C0F2EFAEFCF2EF02DF7
:100EA00043C08E151F0411F00CF08E2D2FB729832F
:100EB000F8942D2D27702093E9002091E80025FF5C
:100EC00012C0E81AF108D5FC11C0DD20BCF02FEFEC
:100ED000280F882309F1F80130813093F100822F27
:100EE0000F5F1F4FF4CF89818FBF1EC02FEF280FD8
:100EF000882391F01092F100822FF8CF9FEF980F86
:100F0000882351F098012F5F3F4FF801049100931F
:100F1000F100892F8901F2CFBB20D1F08AE38093C1
:100F2000E800B12C89818FBFE114F10411F4BB20DA
:100F300029F18D2D0E946B028111B3CFCA94CC2070
:100F400099F161E070E080E090E00E94BE06ECCF95
:100F50008091E80085FD09C08AE38093E800E114F0
:100F6000F10401F7BB24B394DDCFE114F104D1F611
:100F7000D6FED8CF8AE38093E800D4CF5D9884E68C
:100F80008093FD02892D9A2D0F90DF91CF911F91B3
:100F90000F91FF90EF90DF90CF90BF90AF909F9018
:100FA00008958FEF9FEFF0CF8FEF9FEFEDCFCF93AF
:100FB000DF9320910B0121110AC021E030E0FC01F8
:100FC0003383228380E090E0DF91CF910895EC019C
:100FD00083E00E94290718161906B4F381E090E017
:100FE0009B838A8380E090E0EFCF2FB7F8946091E5
:100FF00001027091020280910302909104022FBFBE
:1010000008950F931F93CF93DF93EC010E94F50790
:10101000688779878A879B87E881F9810284F385CD
:10102000E02DCE0109959923ACF40E94F5070885BF
:1010300019852A853B85601B710B820B930B0C81F4
:101040001D812E813F81601771078207930720F36E
:101050008FEF9FEFDF91CF911F910F9108956FEF69
:101060007FEF81E090E00E946A0808958AE092E0B4
:101070000E94170508958AE092E00E94F7040895FF
:10108000CF92DF92EF92FF926A017B0168EE73E0EC
:1010900080E090E00E94BE06B701A6018AE092E0DF
:1010A0000E942705FF90EF90DF90CF90089508955C
:1010B000FC0116821782108611861286138614860A
:1010C000158616861786108A118A128A138A148A40
:1010D000158A0895019709F008956F3F7F4FE1F752
:1010E0008AEB91E00E945808F7CF0E94F507089517
:1010F000CF93DF93EC010E9475086E837F8388870E
:101100009987DF91CF910895CF93DF93EC014E87BC
:101110005F87688B798B1A8A1B8A1C8A1D8A8E814D
:101120009F81A885B9858A879B87AC87BD87CE01BB
:101130000E9475086E837F8388879987DF91CF919E
:1011400008958F929F92AF92BF92CF92DF92EF92CB
:10115000FF92CF93DF93EC016A017B010E94750837
:101160004B015C01C80CD91CEA1CFB1CCE010E947F
:101170007508681579058A059B0528F0C616D706F7
:10118000E806F90698F7DF91CF91FF90EF90DF9096
:10119000CF90BF90AF909F908F9008950F931F9323
:1011A000CF93DF93EC01662369F0CE010E947508AE
:1011B0006A837B838C839D8381E0DF91CF911F9134
:1011C0000F9108950E9475080A811B812C813D8131
:1011D000DC01CB01801B910BA20BB30B8233910579
:1011E000A105B10510F742E350E060E070E0481B54
:1011F000590B6A0B7B0B21E0CE010E94A108D5CFD1
:1012000021E00E94A1080895FC01EE5BFF4F1082CF
:10121000118212821382FC011282138214821582BF
:10122000411551056105710509F408950E940009F1
:10123000FCCF611108C076981092BF001092BE00DA
:101240004093D2000895769AF7CF61110BC05C9855
:10125000109295001092940050E0509399004093A2
:10126000980008955C9AF4CF3E9A549A81E880934E
:1012700090008BE080939100109295001092940062
:101280001092990010929800579A6E9A87E0809376
:10129000C10089E08093C2001092C3001092BF0089
:1012A0001092BE001092D2000895FC0111821282A9
:1012B0001382148226E040E051EE60E070E08AE59F
:1012C00092E00E94BB0308956FEF7FEF81E090E012
:1012D0000E946B090895019709F008956F3F7F4FB1
:1012E000E1F78DEA91E00E94340988EA91E00E94DA
:1012F0005509F3CFFC0180819181009719F00E947C
:10130000E211089560E070E0CB010895CF93DF9380
:10131000DB01EC01E881F981309761F06D917C91FE
:1013200011976115710531F0CF010E948C15DF9185
:10133000CF910895CD91DC911197209729F01496C3
:101340002D913C91232B59F4309779F0DC011496C0
:101350008D919C91892B61F0808190E0E8CF88810C
:1013600090E0919581959109E2CF90E080E0DFCF08
:1013700090E080E0DCCFFF920F931F93CF93DF9339
:10138000CDB7DEB764970FB6F894DEBF0FBECDBF02
:101390008C01FC01F380F2E0FF16B1F0FC018681C4
:1013A00097810E9438020E94C400B8010E94100177
:1013B0009C01892BD1F4F1E0FF1609F44BC083E0C6
:1013C000F816C9F080E005C0FC01868197810E9473
:1013D0004F0564960FB6F894DEBF0FBECDBFDF9108
:1013E000CF911F910F91FF90089581E0121613067F
:1013F00084F380E0EECFF80182818823C1F182304E
:1014000031F0813059F0833081F080E0E2CF40E864
:1014100060E180E191E00E94D601DBCF40E86BE023
:1014200084E091E00E94D601D4CF0E94C4008E01D6
:101430000F5F1F4FB8010E94F100F80101900020DA
:10144000E9F73197BF01601B710B40E0C8010E94B2
:10145000D601BFCF62EF70E06115710559F0FB0155
:10146000449150E080E80E94070281E0B2CF6EEE26
:1014700070E0F2CF80E0ADCFDF92EF92FF920F935A
:101480001F93CF93DF93CDB7DEB7A1970FB6F89434
:10149000DEBF0FBECDBF7C01CB01BA01D22E19A297
:1014A00021E02D1520F48E010F5D1F4F0EC00F2E71
:1014B000FAE0DF2EF02DF7CFE95CD801EE938D0135
:1014C000611571058105910579F02D2D30E050E011
:1014D00040E00E94D012E62F622F732F842F952FA9
:1014E000EA3054F7E05DE9CF1097F9F0FD01019083
:1014F0000020E9F73197AF014A1B5B0BD701ED9153
:10150000FC910280F381E02DB801C7010995A196F5
:101510000FB6F894DEBF0FBECDBFDF91CF911F9104
:101520000F91FF90EF90DF90089590E080E0EFCF73
:101530002115310549F4DC01ED91FC910190F08118
:10154000E02D642F099508950E943C0A08959A01A0
:10155000462F50E070E060E00E94980A0895DC0198
:10156000ED91FC910280F381E02D42E050E06DE3CB
:1015700071E0099508950F931F93CF93DF93EC01CA
:101580000E94A70A8C01CE010E94AF0A800F911F12
:10159000DF91CF911F910F9108950F931F93CF93D8
:1015A000DF93EC010E94F7028C01CE010E94AF0A8A
:1015B000800F911FDF91CF911F910F9108956115B9
:1015C000710581F0FB0101900020E9F73197AF012F
:1015D000461B570BDC01ED91FC910280F381E02D5D
:1015E0000995089590E080E008950F931F93CF939D
:1015F000DF93EC010E94DF0A8C01CE010E94AF0A4A
:10160000800F911FDF91CF911F910F91089560E49A
:1016100071E08AE092E00E94F50A0895CF92DF928D
:10162000EF92FF92CF93DF93EC018091B201882378
:10163000C1F10E94F507AB01BC018091AE01909110
:10164000AF01A091B001B091B1018C599F4FAF4F44
:10165000BF4F84179507A607B70788F10E94F507C3
:101660000E941E126B017C0169817A818B819C81B1
:101670000E941E1220E030E046E153E40E942A134B
:101680009B01AC01C701B6010E94961318160CF419
:1016900018828881DF91CF91FF90EF90DF90CF90FB
:1016A00008950E94F5076093AE017093AF01809397
:1016B000B0019093B10181E08093B201BACF61E4AF
:1016C0008AE592E00E94EF0267E471E08AE092E02E
:1016D0000E94F50A0E94F5076093AE017093AF0176
:1016E0008093B0019093B101B9CF1F93CF93DF9353
:1016F000EC01162F61E00E94CE086AE471E08AE0F6
:1017000092E00E94DF0A4AE050E0612F8AE092E016
:101710000E94A70A61E571E08AE092E00E94F50A62
:1017200042E350E060E070E0CE010E940009DF91EA
:10173000CF911F9108950F931F93CF93DF93FC01D7
:101740002689222319F1062FEC010E9436088823EE
:1017500021F1CE010E943608882309F1CE010E94B2
:101760003B08182F8836E9F048F4883561F0833655
:1017700081F7602FCE010E94750B09C0813789F077
:10178000863729F0E6CF1E8A13E601C013E6812FC3
:10179000DF91CF911F910F91089515E6F8CF15E6CF
:1017A000F6CF13E6F4CF1F93CF93DF93EC01142F02
:1017B000662381F081E08E8B60E0CE010E949B0B5E
:1017C000833641F041E050E060E070E0CE010E94DD
:1017D0000009F2CF1E8BDF91CF911F910895CF9218
:1017E000DF92EF92FF921F93CF93DF93EC01162FBE
:1017F0000E9475086B017C0168E571E08AE092E067
:101800000E94DF0A4AE050E0612F8AE092E00E94E5
:10181000A70A6FE571E08AE092E00E94DF0A2AE001
:1018200030E0B701A6018AE092E00E94980A61E6E2
:1018300071E08AE092E00E94DF0A8E819F81A88594
:10184000B985B701A601481B590B6A0B7B0B2AE02F
:1018500030E08AE092E00E94980A61E671E08AE056
:1018600092E00E94DF0A4E815F81688579858A85D2
:101870009B85AC85BD85481B590B6A0B7B0B2AE009
:1018800030E08AE092E00E94980ADF91CF911F91A8
:10189000FF90EF90DF90CF90089548EB5BE060E021
:1018A00070E08AEB91E00E94040940E052EC61E0B4
:1018B00070E08AEB91E00E94400861E08AEB91E0E1
:1018C0000E94CE08811115C041E060E08AEB91E0F2
:1018D0000E94D30B40E052EC61E070E08AE092E0BD
:1018E0000E94270564E771E08AE092E00E94F50A11
:1018F000089563E671E08AE092E00E94DF0A4AE020
:1019000050E060E070E08AEB91E00E940009DCCFDB
:101910000F931F93CF93DF93EC018B016F5F7F4F8A
:10192000888199810E94C614009751F09983888319
:101930001B830A8381E0DF91CF911F910F9108955E
:1019400080E0F9CFCF93DF93EC0128813981232BFD
:1019500029F02A813B812617370770F4CE010E94B7
:10196000880C882351F08C819D81892B49F4E88172
:10197000F981108281E001C081E0DF91CF9108956B
:1019800081E0FBCFEF92FF920F931F93CF93DF93F2
:10199000FC01C481D581C40FD51F6115710501F10A
:1019A000452B41F481E0DF91CF911F910F91FF9082
:1019B000EF9008957B018C01BE010E94A20C882348
:1019C00091F3F8012081318184819581B701820FE3
:1019D000931F0E949515F801D583C48381E0E3CF5E
:1019E00080E0E1CFCF93DF9300D0CDB7DEB769833E
:1019F0001A8241E050E0BE016F5F7F4F0E94C20C2F
:101A00000F900F90DF91CF910895CF93DF93EC016A
:101A100088819981009711F00E943D1419821882E3
:101A20001D821C821B821A82DF91CF910895CF9371
:101A3000DF93EC01FB0144815581608171810E943B
:101A4000C20C882321F0CE01DF91CF910895CE0101
:101A50000E94050DF8CFEF92FF920F931F93CF9343
:101A6000DF93EC017B018A01BA010E94A20C88235A
:101A700079F01D830C83B701888199810E949515A7
:101A8000CE01DF91CF911F910F91FF90EF900895BC
:101A9000CE010E94050DF4CFCF93DF93EC016115C9
:101AA000710571F0FB0101900020E9F73197AF015A
:101AB000461B570B0E942B0DCE01DF91CF9108954D
:101AC0000E94050DF9CFFC0111821082138212824F
:101AD000158214826115710551F0FB0101900020FF
:101AE000E9F73197AF01461B570B0E942B0D089564
:101AF000AF92BF92CF92DF92EF92FF920F931F931C
:101B0000CF93DF935C016B018A01E901241735074C
:101B100020F08D2FEA01022F182F6FE371E0C5012D
:101B20000E94630DD6011496ED90FC90CE15DF0552
:101B3000D0F4E016F10608F07801D601ED91FC91A1
:101B40001197EE0DFF1D108110826D917C916C0F2D
:101B50007D1FC5010E944C0DF60180819181E80E28
:101B6000F91ED7011C93C501DF91CF911F910F91F1
:101B7000FF90EF90DF90CF90BF90AF900895FF92CD
:101B80000F931F93CF93DF93EC018B01F42E6FE340
:101B900071E00E94630DC8010E94010899237CF046
:101BA0002F2D0F2C000C330B2817390741F0682F0D
:101BB000CE010E94F20CC8010E940108EFCFCE01B5
:101BC000DF91CF911F910F91FF900895FC018081CB
:101BD00091810E943D1408958F929F92AF92BF927F
:101BE000CF92DF92EF92FF920F931F93CF93DF93E9
:101BF000CDB7DEB7A4970FB6F894DEBF0FBECDBF4A
:101C00005C016B017A0189018AE592E00E94A403DC
:101C1000181619060CF0BFC040E26AE572E0CE016A
:101C20004F960E94BF0D6AE771E0CE0149960E946F
:101C3000630DBE01675E7F4FCE014F960E948609FD
:101C40004C01CE0149960E94E60D892849F581E0B4
:101C5000F50180830E94F507F50161837283838318
:101C600094836CE771E08AE092E00E94F50A10E04C
:101C7000CE014F960E94E60D812FA4960FB6F894E0
:101C8000DEBF0FBECDBFDF91CF911F910F91FF90AF
:101C9000EF90DF90CF90BF90AF909F908F9008957E
:101CA00021E030E050E040E0BE01615E7F4FCE01B8
:101CB00043960E94780D70E060E0CE0143960E944A
:101CC0006B01F6018083CE0143960E94E60D24E06D
:101CD00030E041E050E0BE01615E7F4FCE010D96E5
:101CE0000E94780DCE010D960E947A09F70160835B
:101CF000CE010D960E94E60D2BA13CA144E050E0E0
:101D0000BE01615E7F4FCE0107960E94780DCE0125
:101D100007960E947A09F8016083CE0107960E9417
:101D2000E60D61E871E0CE0101960E94630DBE01EF
:101D3000615E7F4FCE0101960E94170DBC018AE0C3
:101D400092E00E94CD0ACE0101960E94E60DF601B6
:101D500060818AE092E00E94EF0264E871E08AE02C
:101D600092E00E94DF0A4AE050E0F70160818AE0D9
:101D700092E00E94A70A64E871E08AE092E00E9483
:101D8000DF0A4AE050E0F80160818AE092E00E94B8
:101D9000BB0A11E06DCF10E06FCFCF92DF92EF92D0
:101DA000FF920F931F930E94F507672B682B692BF7
:101DB00039F40E94F507623071058105910570F1D3
:101DC0008AEB91E00E9475080091A4011091A50191
:101DD0002091A6013091A701601771078207930730
:101DE00040F46093A4017093A5018093A6019093A1
:101DF000A7010091A4011091A5012091A6013091A5
:101E0000A7016B017C01C01AD10AE20AF30A97010B
:101E100086010A3F110521053105A0F588EA91E008
:101E20000E940E0B882309F4A3C08091A3018111A5
:101E300067C020EA31E041EA51E062EA71E088EAF5
:101E400091E00E94EC0D882309F4A2C08091A201C8
:101E5000823409F46FC00CF45CC0833409F479C097
:101E6000843409F095C04091A10160E08DEA91E0D1
:101E70000E9419094091A00161E08DEA91E00E9461
:101E8000250986C06093A4017093A5018093A601E3
:101E90009093A70144EF51E060E070E08AEB91E09D
:101EA0000E94840861E08AEB91E00E94CE088111D3
:101EB0000DC045E050E060E070E08AEB91E00E94E8
:101EC00000098AEB91E00E947808A8CF61E08AEBD4
:101ED00091E00E94EF0B66E871E08AE092E00E94D8
:101EE000DF0A0E94F507AB01BC012AE030E08AE07E
:101EF00092E00E94980A8AEB91E00E94070BD9CFEA
:101F000068E871E08AE092E00E94F50A1092A3016D
:101F100090CF8134E9F54091A10161E08DEA91E033
:101F20000E9419094091A00161E08DEA91E00E94B0
:101F300025092EC04091A10160E08DEA91E00E9448
:101F400019094091A00160E08DEA91E00E94250905
:101F50001FC04091A10161E08DEA91E00E94190942
:101F60004091A00160E08DEA91E00E94250910C037
:101F70008091A301882399F040E061E08DEA91E02F
:101F80000E94190940E061E08DEA91E00E94250974
:101F90001F910F91FF90EF90DF90CF90089562E92D
:101FA00071E08AE092E00E94F50A81E08093A3014B
:101FB000E3CF1F920F920FB60F9211242F933F93EE
:101FC0004F935F936F937F938F939F93AF93BF9341
:101FD000CF93EF93FF93E1EEF0E0C0818081837FA8
:101FE0008083C3FD18C0C2FD21C0C4FD3BC0C0FF3B
:101FF0004AC0E2EEF0E080818E7E80618083E1EE77
:10200000F0E080818E7E80838091FE028E7E8160F2
:102010008093FE0238C042E360E080E00E946102EB
:102020001092000388E08093F000DDCF83E00E94EF
:102030006E018091FD02882341F08091FD02815064
:102040008093FD02811101C05D9A8091FC0288237A
:1020500061F28091FC0281508093FC028111C5CF16
:10206000289AC3CFE2EEF0E080818E7E816080838B
:10207000E1EEF0E080818F7E80838091FE028E7E93
:1020800080618093FE02FF91EF91CF91BF91AF915C
:102090009F918F917F916F915F914F913F912F9180
:1020A0000F900FBE0F901F9018951F920F920FB6B2
:1020B0000F9211242F933F934F935F936F937F93CE
:1020C0008F939F93AF93BF93EF93FF93CF93DF9340
:1020D000CDB7DEB72897DEBFCDBF1092E900809163
:1020E000E80083FF2EC088E0FE0131969FEF980F35
:1020F000882331F08091F1008083892F3196F6CFCB
:10210000289884E68093FC0282EF8093E80099810E
:10211000992384F18EEF8093E800892F807609F06F
:1021200075C08A814B812C81322F242F81112EC0C2
:10213000903829F1E1EFF0E0108210828EEF809369
:10214000E80028960FB6F894DEBF0FBECDBFDF9132
:10215000CF91FF91EF91BF91AF919F918F917F911F
:102160006F915F914F913F912F910F900FBE0F9004
:102170001F9018958091E80080FFFCCFCECF809112
:10218000FF02E1EFF0E080831082D8CF8130A9F028
:102190008330F9F0853049F1863079F1873009F4E0
:1021A0003FC0883079F1893049F69370C9F50E94B3
:1021B00043028B8180930003C1CF9111BFCF2130A7
:1021C000310509F0BBCF8091FF028D7F8093FF0224
:1021D000B5CF9111B3CF2130310509F0AFCF809148
:1021E000FF0282608093FF02A9CF8091E80080FF08
:1021F000FCCF40684093E300A1CFCE0101960E943E
:10220000BB090CC081E08093F10098CF8F81988545
:102210000E943802CE0101960E94300681118ECFB5
:1022200081E28093EB008DCF0E94420687EF92E01F
:102230000E94F6060E944D0C0E94CD0E0E94AA0438
:10224000FBCF1F920F920FB60F9211242F933F9343
:102250004F935F936F937F938F939F93AF93BF93AE
:10226000EF93FF938AE592E00E941D04FF91EF91A6
:10227000BF91AF919F918F917F916F915F914F919E
:102280003F912F910F900FBE0F901F9018951F92A6
:102290000F920FB60F9211242F938F939F93AF93AA
:1022A000BF93EF93FF93E0916A02F0916B028081FC
:1022B00082FD14C0EAE5F2E0A689B7892C91818DF0
:1022C0008F5F8F73928D891771F0DF01E18DF0E0E0
:1022D000E65AFD4F258F59968C9305C0E091700208
:1022E000F09171028081FF91EF91BF91AF919F9129
:1022F0008F912F910F900FBE0F901F9018951F92E6
:102300000F920FB60F9211240F931F932F933F93A9
:102310004F935F936F937F938F939F93AF93BF93ED
:1023200000910102109102022091030230910402F7
:1023300090910002B901A8014F5F5F4F6F4F7F4F2F
:1023400083E0890F8D3740F086E8890FB901A80135
:102350004E5F5F4F6F4F7F4F8093000240930102AB
:10236000509302026093030270930402809105026D
:1023700090910602A0910702B09108020196A11D5A
:10238000B11D8093050290930602A0930702B093BB
:102390000802BF91AF919F918F917F916F915F9153
:1023A0004F913F912F911F910F910F900FBE0F9062
:1023B0001F9018950E9437030E94B6040E942F08B0
:1023C0000C9464091F93FC0199278827BC01E894A9
:1023D00011911032E9F3193010F01E30C8F31B329E
:1023E00051F01D3249F4689406C00E940912610F31
:1023F000711D811D911D119110531A30B0F33EF4DF
:1024000090958095709561957F4F8F4F9F4F1F914D
:102410000895592F482F372F262F660F771F881FB3
:10242000991F660F771F881F991F620F731F841FE4
:10243000951F660F771F881F991F0895E89409C09C
:1024400097FB3EF490958095709561957F4F8F4FE7
:102450009F4F9923A9F0F92F96E9BB279395F695FD
:10246000879577956795B795F111F8CFFAF4BB0F7B
:1024700011F460FF1BC06F5F7F4F8F4F9F4F16C0DF
:10248000882311F096E911C0772321F09EE8872F69
:10249000762F05C0662371F096E8862F70E060E025
:1024A0002AF09A95660F771F881FDAF7880F96959E
:1024B000879597F90895990F0008550FAA0BE0E842
:1024C000FEEF16161706E807F907C0F012161306F6
:1024D000E407F50798F0621B730B840B950B39F436
:1024E0000A2661F0232B242B252B21F408950A269C
:1024F00009F4A140A6958FEF811D811D089597F9DC
:102500009F6780E870E060E008959FEF80EC089599
:1025100000240A94161617061806090608950024C2
:102520000A9412161306140605060895092E03943C
:10253000000C11F4882352F0BB0F40F4BF2B11F4B0
:1025400060FF04C06F5F7F4F8F4F9F4F089557FD0F
:102550009058440F551F59F05F3F71F04795880F11
:1025600097FB991F61F09F3F79F0879508951216A8
:1025700013061406551FF2CF4695F1DF08C0161654
:1025800017061806991FF1CF869571056105089405
:102590000895E894BB2766277727CB0197F908951C
:1025A000A1E21A2EAA1BBB1BFD010DC0AA1FBB1F57
:1025B000EE1FFF1FA217B307E407F50720F0A21BC9
:1025C000B30BE40BF50B661F771F881F991F1A9436
:1025D00069F760957095809590959B01AC01BD0160
:1025E000CF0108952F923F924F925F926F927F9208
:1025F0008F929F92AF92BF92CF92DF92EF92FF9213
:102600000F931F93CF93DF93CDB7DEB7CA1BDB0BBE
:102610000FB6F894DEBF0FBECDBF09942A88398863
:1026200048885F846E847D848C849B84AA84B9846A
:10263000C884DF80EE80FD800C811B81AA81B98176
:10264000CE0FD11D0FB6F894DEBF0FBECDBFED018A
:1026500008955058BB27AA270E9441130C94961244
:102660000E94881238F00E948F1220F039F49F3FA8
:1026700019F426F40C9485120EF4E095E7FB0C9403
:102680007F12E92F0E94A71258F3BA176207730747
:102690008407950720F079F4A6F50C94C9120EF47E
:1026A000E0950B2EBA2FA02D0B01B90190010C0162
:1026B000CA01A0011124FF27591B99F0593F50F47A
:1026C000503E68F11A16F040A22F232F342F4427D2
:1026D000585FF3CF469537952795A795F0405395CA
:1026E000C9F77EF41F16BA0B620B730B840BBAF09A
:1026F0009150A1F0FF0FBB1F661F771F881FC2F705
:102700000EC0BA0F621F731F841F48F48795779518
:102710006795B795F7959E3F08F0B0CF9395880FD2
:1027200008F09927EE0F9795879508950E945B1200
:1027300008F48FEF0895EE0FFF1F0590F491E02D40
:1027400009940F931F93CF93DF938230910510F478
:1027500082E090E0E0910F03F091100330E020E080
:10276000B0E0A0E0309799F42115310509F44AC092
:10277000281B390B24303105D8F58A819B816115DE
:10278000710589F1FB0193838283FE0111C04081B1
:1027900051810281138148175907E0F04817590702
:1027A00099F4109761F012960C93129713961C935C
:1027B0003296CF01DF91CF911F910F910895009331
:1027C0000F0310931003F4CF2115310551F0421778
:1027D000530738F0A901DB019A01BD01DF01F801BF
:1027E000C1CFEF01F9CF9093100380930F03CDCFAA
:1027F000FE01E20FF31F8193919322503109398337
:102800002883D7CF20910D0330910E03232B41F461
:1028100020910E0130910F0130930E0320930D0390
:1028200020910C0130910D012115310541F42DB796
:102830003EB74091100150911101241B350BE091DE
:102840000D03F0910E03E217F307A0F42E1B3F0BCC
:102850002817390778F0AC014E5F5F4F2417350712
:1028600048F04E0F5F1F50930E0340930D0381936A
:1028700091939FCFF0E0E0E09CCFCF93DF93009760
:10288000E9F0FC01329713821282A0910F03B091FC
:102890001003ED0130E020E01097A1F42081318198
:1028A000820F931F20910D0330910E0328173907D3
:1028B00009F061C0F0930E03E0930D03DF91CF9117
:1028C0000895EA01CE17DF07E8F54A815B819E0192
:1028D00041155105B1F7E901FB83EA83499159910B
:1028E000C40FD51FEC17FD0761F48081918102961A
:1028F000840F951FE90199838883828193819B834B
:102900008A83F0E0E0E012968D919C9113970097F6
:10291000B9F52D913C911197CD010296820F931F2D
:1029200020910D0330910E032817390739F630979F
:1029300051F51092100310920F03B0930E03A09361
:102940000D03BCCFD383C28340815181840F951F77
:10295000C817D90761F44E5F5F4F88819981480F8E
:10296000591F518340838A819B81938382832115E0
:10297000310509F0B0CFF0931003E0930F039ECF21
:10298000FD01DC01C0CF13821282D7CFB0E0A0E0FE
:10299000ECECF4E10C94F4128C01009751F4CB01AF
:1029A0000E94A1138C01C801CDB7DEB7E0E10C9401
:1029B0001013FC01E60FF71F9C0122503109E217AA
:1029C000F30708F49DC0D901CD91DC911197C6178A
:1029D000D70798F0C530D10530F3CE01049786179C
:1029E000970708F3C61BD70B2297C193D1936D931A
:1029F0007C93CF010E943D14D6CF5B01AC1ABD0A77
:102A00004C018C0E9D1EA0910F03B0911003512C10
:102A1000412CF12CE12C109731F580910D03909110
:102A20000E038815990509F05CC04616570608F094
:102A300058C080910C0190910D01009741F48DB721
:102A40009EB74091100150911101841B950BE8171E
:102A5000F90708F055C0F0930E03E0930D03F90158
:102A600071836083A0CF8D919C91119712966C9089
:102A7000129713967C901397A815B90559F56C0118
:102A800042E0C40ED11CCA14DB0420F1AC014A1987
:102A90005B09DA011296159780F062827382518386
:102AA0004083D9016D937C93E114F10471F0D70157
:102AB0001396FC93EE93129776CF22968C0F9D1F60
:102AC000F90191838083F301EFCFF0931003E0933A
:102AD0000F0369CF4816590608F42C017D01D30174
:102AE0009ACFCB010E94A1137C01009749F0AE015F
:102AF000B8010E948315C8010E943D14870153CF7D
:102B000010E000E050CFFB01DC0102C001900D920B
:102B100041505040D8F70895FB01DC018D910190A0
:102B200080190110D9F3990B0895FB01DC01019084
:0C2B30000D920020E1F70895F894FFCF0B
:102B3C00FFFFFFFF00E10000000000000000110398
:102B4C00800000000000D804D707F204EE0417053B
:102B5C00F7040505000000003E040603710387041A
:102B6C00A4038203960300C180810000000D0A00BB
:102B7C005F564D445045005F5F00564D4450435FD7
:102B8C00005F564D44504300564D4450455F003A4B
:102B9C00323A00564D4450565F317C315F564D44AD
:102BAC0050560A005245414459005A003C2D2D3EC6
:102BBC00003E20002D007C00436F6E6E65637465D3
:102BCC006400446973636F6E6E65637465640000C2
:00000001FF
