:100000000C94CE000C94F6000C94F6000C94F600C0
:100010000C94F6000C94F6000C94F6000C94F60088
:100020000C94F6000C94F6000C94B0130C942C1461
:100030000C94F6000C94F6000C94F6000C94F60068
:100040000C94F6000C94F6000C94F6000C94F60058
:100050000C94F6000C94F6000C94F6000C945615D3
:100060000C94F6000C941E150C94F8140C94F600E5
:100070000C94F6000C94F6000C94F6000C94F60028
:100080000C94F6000C94F6000C94F6000C94F60018
:100090000C94F6000C94F6000C94F6000C94F60008
:1000A0000C94F6000C94F6000C94F6000706050478
:1000B0000100080A0B0C0D090000000025002800B3
:1000C0002B002E0031000404040404030405020282
:1000D00002020403020202020606060606060404E1
:1000E0000202020404040802011040804010204073
:1000F000804080080204018040201002011080101E
:10010000204040200000000200090F00000304010D
:10011000000C0000000000000000000000000000D3
:10012000000000080B0002020201000904000001A7
:10013000020200000524001001052401010104242D
:10014000020605240600010705810310004009048A
:100150000100020A00000007050202400000070536
:1001600083024000000403090412010002EF0201AF
:100170004041233680000101020301417264756928
:100180006E6F204C4C430041726475696E6F204C59
:10019000656F6E6172646F00B815B11511241FBED2
:1001A000CFEFDAE0DEBFCDBF23E0A0E1B2E001C0D7
:1001B0001D92AC39B207E1F712E0A0E0B1E0E6EC45
:1001C000F0E302C005900D92A031B107D9F710E01D
:1001D000CDECD0E004C02197FE010E945516CC3C26
:1001E000D107C9F70E94EB140C9456180C94000028
:1001F000FC0182E0808384E081831382128208956F
:1002000080919003882319F08CE893E008958CE89E
:1002100093E00E94F80081E080939003F5CF0F9364
:100220001F93CF93DF938B01FC01C281D381209771
:1002300071F0E881F9810190F081E02DB801CE01E3
:100240000995811105C00884D985C02DF0CF80E0C3
:10025000DF91CF911F910F9108950F931F93CF932B
:10026000DF938B01FC01C281D381209771F0E8817B
:10027000F9810680F781E02DB801CE010995080FBC
:10028000111D0884D985C02DF0CFF8011082DF91AF
:10029000CF911F910F9108950F931F93CF93DF93E9
:1002A0008B01FC01C281D381209771F0E881F98133
:1002B0000480F581E02DB801CE010995009731F455
:1002C0000884D985C02DF0CF90E080E0DF91CF91F8
:1002D0001F910F910895EF92FF920F931F93CF9369
:1002E000DF937B01FC01C281D38110E000E0209705
:1002F00091F0E881F9810280F381E02DB701CE0110
:100300000995992334F0080F191F0884D985C02D49
:10031000EECF0FEF1FEFC801DF91CF911F910F912B
:10032000FF90EF9008950895FC01248135816217B4
:10033000730748F480819181009739F0680F791F25
:10034000FB018081089580E0089580E008950E9477
:100350009401089508958093E9008091F200882324
:1003600019F08AE38093E8000895CF93DF93EC01BE
:10037000AB010CC0A0E4B0E010C0289894E69093C4
:1003800087039BEF9093E8004A1B5B0B41155105D7
:10039000C1F04134510574F7DA019091E80092FF01
:1003A000FCCF9A2FFB01E41BF50BEC0FFD1F2FEF89
:1003B000290F992311F39091F1009083922F319698
:1003C000F6CFCB01DF91CF910895409185035091F5
:1003D0008603209183033091840342175307B4F4BA
:1003E0009091E8009570E1F39091E80092FD19C0BA
:1003F0008093F100809185039091860301968F731D
:100400009927892B19F48EEF8093E800809185035A
:10041000909186030196909386038093850381E0F3
:10042000089580E00895EF92FF920F931F93CF936A
:10043000DF937C01062F142F81E0860F880F0E9426
:10044000E50183E00E94E501D0E00DC0F701ED0F6A
:10045000F11D84910E94E501C82F80E00E94E50112
:100460008C2359F0DF5FD01738F411237CF3F701A8
:10047000ED0FF11D8081EECF81E0DF91CF911F91D3
:100480000F91FF90EF900895DF92EF92FF920F93FC
:100490001F93CF93DF93EB01D42EE52EF82E242F5C
:1004A000352F0BC09E012F5F3F4FFE018491E90164
:1004B0000E94E5019801882351F08901015011093A
:1004C000232B49F0FF2074F388812196F1CFDD249E
:1004D000DA94EE24EA948D2D9E2DDF91CF911F9119
:1004E0000F91FF90EF90DF9008951092E900109225
:1004F0008603109285039093840380938303089569
:1005000081E08730A8F4282F30E0F901EA5CFE4F43
:100510009081992369F08093E90091E09093EB003A
:1005200090819093EC0096E39093ED008F5FE9CF7C
:10053000EAEEF0E08EE78083108208958093E90070
:1005400081E08093EB006093EC004093ED00089510
:10055000CF93DF931F92CDB7DEB79FB79983F894FF
:1005600087708093E9009091E800892F807295FF51
:1005700004C09091F20080E4891B99819FBF0F9085
:10058000DF91CF910895CF93DF931F92CDB7DEB760
:10059000FB0190918B03992379F1552384F19FB747
:1005A0009983F89487708093E9006091F20070E07D
:1005B000461757070CF4BA01962F2FEF290F9923EE
:1005C00051F0289894E6909387039091F1009083DE
:1005D000922F3196F2CF6115710539F08091F200BA
:1005E000811103C08BE68093E80089818FBFCB0126
:1005F0000F90DF91CF9108956FEF7FEFF8CF6FEFFE
:100600007FEFF5CFCF93DF931F92CDB7DEB741E0F9
:1006100050E0BE016F5F7F4F0E94C302019731F42B
:10062000898190E00F90DF91CF9108958FEF9FEF38
:10063000F9CFCF93DF931F92CDB7DEB79FB79983E2
:10064000F89487708093E9008091F20099819FBFB0
:100650000F90DF91CF910895DB0114964D915C913D
:1006600015976D917C91DC01ED91FC910280F381F5
:10067000E02D09950895CF92DF92EF92FF920F93AC
:100680001F93CF93DF938C01DB01D0E0C0E07A01B0
:1006900081E0E81AF108452BA1F0F80180819181F1
:1006A000FC01208131816D01FFEFCF1ADF0A6C91CF
:1006B000C801F9010995892B21F02196A701D601DE
:1006C000E6CFCE01DF91CF911F910F91FF90EF9078
:1006D000DF90CF90089508956FEF7FEF81E090E075
:1006E0000E9473030895019709F008956F3F7F4FAB
:1006F000E1F7E5EEF2E01382128288EE93E0A0E0EB
:10070000B0E084839583A683B78388E291E09183E8
:1007100080838DEC90E0958784878CEC90E09787C0
:10072000868788EC90E0918B808B89EC90E0938BAE
:10073000828B8AEC90E0958B848B8EEC90E0978B8B
:10074000868B118E128E138E148ECFCFFC01938D5B
:10075000848D981720F4891B990B019708952FE336
:1007600030E0291B3109820F932F911D0895FC0160
:10077000918D828D981761F0A28DAE0FBF2FB11DA4
:100780005D968C91928D9F5F9F73928F90E00895FC
:100790008FEF9FEF0895FC01918D828D981731F0B6
:1007A000828DE80FF11D858D90E008958FEF9FEF0A
:1007B0000895FC01218D30E0205C3F4F828DA9011E
:1007C000481B5109CA018F739927089585EE92E05D
:1007D0000E94D90321E0892B09F420E0822F08959B
:1007E000CF92DF92EF92FF921F93CF93DF93EC01B2
:1007F0006A017B01122F60E079E08DE390E0A701B0
:1008000096010E94FC152150310941095109569564
:10081000479537952795E889F98982E08083C11447
:1008200081EED806E104F10421F0211580E13807BA
:1008300098F0E889F989108260E874E88EE190E028
:10084000A70196010E94FC15215031094109510967
:100850005695479537952795EC85FD853083EE8530
:10086000FF852083188EEC89FD891083EA89FB8936
:10087000808180618083EA89FB89808188608083B0
:10088000EA89FB89808180688083EA89FB8980818D
:100890008F7D8083DF91CF911F91FF90EF90DF904C
:1008A000CF900895FC01A48DA80FB92FB11DA35AB4
:1008B000BF4F2C91848D90E001968F739078848F38
:1008C000A689B7892C93A089B1898C9182748C9365
:1008D000938D848D981308950288F389E02D80818B
:1008E0008F7D8083F8CF0F931F93CF93DF93EC011D
:1008F00081E0888F9B8D8C8D9817B1F0062F8B8DA2
:1009000090E001968F739078182F8C8D81131DC005
:100910000FB607FCFACFE889F989808185FFF5CF0A
:10092000CE010E945204F1CFE889F989808185FFC8
:10093000E5CF9FB7F894EE89FF896083E889F9894C
:100940008081827480839FBF10C0EB8DEC0FFD2FE0
:10095000F11DE35AFF4F00839FB7F8941B8FEA897C
:10096000FB898081806280839FBF81E090E0DF917E
:10097000CF911F910F910895CF93DF93EC01888D54
:10098000811104C00DC00FB607FE0DC0EA89FB89B6
:10099000808185FDF8CFA889B9898C9186FFF3CF36
:1009A000DF91CF910895808185FFF0CFE889F989A3
:1009B000808185FFEBCFCE010E945204E7CF80E01B
:1009C00090E0892B21F00E94E603811101C0089577
:1009D0000E940000FCCF6FEF7FEF81E090E00E946B
:1009E000F2040895019709F008956F3F7F4FE1F7F2
:1009F000E5E9F2E01382128288EE93E0A0E0B0E035
:100A000084839583A683B78386E191E09183808375
:100A10008FEF9FEF95878487E7CFCF93DF931F9268
:100A2000CDB7DEB76983DC01ED91FC910280F381E3
:100A3000E02D41E050E0BE016F5F7F4F09950F90C0
:100A4000DF91CF91089583E00E94AB01089583E088
:100A50000E94A80290E00895FC0184859585992361
:100A60002CF02FEF3FEF35872487089582E00E9416
:100A700002030895CF93DF93EC018C859D85992324
:100A80002CF08C859D85DF91CF91089582E00E94A6
:100A900002039D878C87F5CFFC018485958599237A
:100AA00034F082E00E94190390E00196089582E0FC
:100AB0000E94190390E008952FEF3FEFFC01358766
:100AC00024870895FC0190819E5F908342E450E06A
:100AD00063E271E080E80E9444020895CF93DF93BF
:100AE0001F92CDB7DEB71982CE0101960E94620532
:100AF0000E940001BE016F5F7F4F0E946B018981E0
:100B00000F90DF91CF9108950F931F93CF93DF93B1
:100B1000CDB7DEB729970FB6F894DEBF0FBECDBFB5
:100B20008C0190E080E00E9475020E946E051F8299
:100B300099E0998392E09A8391E09E8390EA988766
:100B40009AEF99872091850330918603275F3F4F65
:100B50003C832B838D83C8010E94750249E050E0DD
:100B6000BE016F5F7F4F80E00E9444020E946E05CD
:100B700081E029960FB6F894DEBF0FBECDBFDF919E
:100B8000CF911F910F910895EEEFFFE725913491DA
:100B900081E02B3F3C4D09F080E008951F93CF93F7
:100BA000DF93EC0119818881813A39F0813281F03B
:100BB00080E0DF91CF911F9108951132B9F747E09E
:100BC00050E064E071E080E00E94440281E0F1CFF7
:100BD000133231F01032A1F01232C9F081E0E9CFC6
:100BE0008B819A81892798278927B0E0A0E080939C
:100BF000000190930101A0930201B0930301EACF99
:100C000067E070E084E091E00E94B501E5CF8A8161
:100C100080930B010E94C405811116C0E0E0F8E04A
:100C20008091040190910501A0910601B091070106
:100C3000803B9440A105B10551F0808191818737B7
:100C4000974751F181E0B5CFEEEFFAE0E9CF80911F
:100C50000B0180FDF2CFEE3F8AE0F80749F080817A
:100C600091818737980721F09093FF0A8093FE0ABD
:100C700087E797E791838083809160008093940257
:100C800088E19BE00FB6F894A895809360000FBEB2
:100C90009093600081E08DCFA895A0E6B0E08C91A4
:100CA00088618C93809194028C93EE3F8AE0F807E0
:100CB00041F08091FE0A9091FF0A9183808381E048
:100CC00078CF1182108281E074CFCF93DF93EC0153
:100CD0008C81882341F00E940001BE010E940F0117
:100CE000DF91CF910895CE010E94CE05F9CF8150BA
:100CF0008F3008F052C0E82FF0E0EF57F94F0C9416
:100D00005516A206A606900696069C06CD06CD06AA
:100D1000CD06AA06B006B606BC06C206CD06C806B3
:100D2000E0E8F0E080818F7780830895E0E8F0E0EC
:100D300080818F7D80830895E0E8F0E08081877F67
:100D40008083089584B58F7784BD089584B58F7DA1
:100D500084BD0895E0E9F0E080818F778083089575
:100D6000E0E9F0E080818F7D80830895E0E9F0E0A4
:100D70008081877F80830895E0ECF0E080818F7729
:100D800080830895E0ECF0E080818F7D808308957A
:100D9000E2ECF0E08081877F808308951F93CF93FA
:100DA000DF93282F30E0F901EC5FFE4F8491F901C9
:100DB000EB51FF4F1491F901EA53FF4FC491CC233B
:100DC000A9F0D62F811116C0EC2FF0E0EE0FFF1F17
:100DD000E854FF4FA591B4918FB7F894D1110DC08D
:100DE0009C91E12FE095E923EC938FBFDF91CF91A8
:100DF0001F9108950E947706E7CFEC91E12BEC93C9
:100E0000F4CF823108F08251E82FF0E0E455FF4F33
:100E1000E491ABE7B0E08C918F7D9E2F990F990FF5
:100E20009072892B8C93E770E064E0937C00EAE792
:100E3000F0E080818064808380917A0086FDFCCF21
:100E400080917800909179000895789484B58260BB
:100E500084BD84B5816084BD85B5826085BD85B55E
:100E6000816085BDEEE6F0E0808181608083E1E80D
:100E7000F0E0108280818260808380818160808345
:100E8000E0E8F0E0808181608083E1E9F0E080814A
:100E900082608083808181608083E0E9F0E08081EE
:100EA00081608083E1ECF0E08081846080838081D8
:100EB00082608083808181608083E3ECF0E08081C8
:100EC00081608083E0ECF0E0808182608083E2ECEE
:100ED000F0E0808181608083EAE7F0E080818460D7
:100EE0008083808182608083808181608083808133
:100EF0008068808308953FB7F89480919002909124
:100F00009102A0919202B091930226B5A89B05C0D0
:100F10002F3F19F00196A11DB11D3FBFBA2FA92F78
:100F2000982F8827BC01CD01620F711D811D911D75
:100F3000660F771F881F991F660F771F881F991FDD
:100F400008958F929F92AF92BF92CF92DF92EF92CD
:100F5000FF926B017C010E947B074B015C011BC06F
:100F600021E0C21AD108E108F10888EE880E83E07A
:100F7000981EA11CB11CC114D104E104F10459F064
:100F80000E947B07681979098A099B09683E7340AA
:100F90008105910528F7C114D104E104F10459F742
:100FA000FF90EF90DF90CF90BF90AF909F908F9089
:100FB000089510928B0310928A0310928903E7ED33
:100FC000F0E080818160808380EA8093D80089B5D9
:100FD000806189BD89B5826089BD09B400FEFDCFFD
:100FE00061E070E080E090E00E94A107E8EDF0E0B1
:100FF00080818F7C80618083E0EEF0E08081807F63
:101000008083E1EEF0E080818E7E80838DE08093AE
:10101000E200559A209A08959F92AF92BF92CF9284
:10102000DF92EF92FF920F931F93CF93DF931F9264
:10103000CDB7DEB7D82E8B01942EA52E80918B03D1
:10104000882309F491C08091890380FF05C0E0EEF8
:10105000F0E0808182608083E92CFA2CB12C0F2E85
:10106000FAEFCF2EF02D43C08E151F0411F00CF0B7
:101070008E2D2FB72983F8942D2D27702093E9000A
:101080002091E80025FF12C0E81AF108D5FC11C034
:10109000DD20BCF02FEF280F882309F1F801308103
:1010A0003093F100822F0F5F1F4FF4CF89818FBFE4
:1010B0001EC02FEF280F882391F01092F100822F8D
:1010C000F8CF9FEF980F882351F098012F5F3F4F83
:1010D000F80104910093F100892F8901F2CFBB2020
:1010E000D1F08AE38093E800B12C89818FBFE114AD
:1010F000F10411F4BB2029F18D2D0E94A802811169
:10110000B3CFCA94CC2099F161E070E080E090E028
:101110000E94A107ECCF8091E80085FD09C08AE319
:101120008093E800E114F10401F7BB24B394DDCF10
:10113000E114F104D1F6D6FED8CF8AE38093E8001B
:10114000D4CF5D9884E680938803892D9A2D0F90E3
:10115000DF91CF911F910F91FF90EF90DF90CF9093
:10116000BF90AF909F9008958FEF9FEFF0CF8FEFDC
:101170009FEFEDCFCF93DF9320910B0121110AC098
:1011800021E030E0FC013383228380E090E0DF91B6
:10119000CF910895EC0183E00E940C0818161906FF
:1011A000B4F381E090E09B838A8380E090E0EFCF0E
:1011B0002FB7F89460918C0270918D0280918E020D
:1011C00090918F022FBF08950F931F93CF93DF93BA
:1011D000EC010E94D808688779878A879B87E88115
:1011E000F9810284F385E02DCE0109959923ACF4B1
:1011F0000E94D808088519852A853B85601B710BDC
:10120000820B930B0C811D812E813F81601771072A
:101210008207930720F38FEF9FEFDF91CF911F910C
:101220000F9108956FEF7FEF81E090E00E944D09EC
:10123000089585E992E00E944C05089585E992E0C1
:101240000E942C050895CF92DF92EF92FF926A01DF
:101250007B0168EE73E080E090E00E94A107B70197
:10126000A60185E992E00E945C05FF90EF90DF9077
:10127000CF9008950895FC0116821782108611867A
:10128000128613861486158616861786108A118A8A
:10129000128A138A148A158A0895019709F008950D
:1012A0006F3F7F4FE1F785E492E00E943B09F7CF63
:1012B0000E94D8080895CF93DF93EC010E9458094B
:1012C0006E837F8388879987DF91CF910895CF932D
:1012D000DF93EC014E875F87688B798B1A8A1B8AB4
:1012E0001C8A1D8A8E819F81A885B9858A879B87E4
:1012F000AC87BD87CE010E9458096E837F838887A3
:101300009987DF91CF9108958F929F92AF92BF926C
:10131000CF92DF92EF92FF92CF93DF93EC016A01BD
:101320007B010E9458094B015C01C80CD91CEA1CC6
:10133000FB1CCE010E945809681579058A059B059A
:1013400028F0C616D706E806F90698F7DF91CF9180
:10135000FF90EF90DF90CF90BF90AF909F908F90D5
:1013600008950F931F93CF93DF93EC01662369F0E9
:10137000CE010E9458096A837B838C839D8381E020
:10138000DF91CF911F910F9108950E9458090A8112
:101390001B812C813D81DC01CB01801B910BA20BB9
:1013A000B30B82339105A105B10510F742E350E07C
:1013B00060E070E0481B590B6A0B7B0B21E0CE010B
:1013C0000E948409D5CF21E00E9484090895FC0180
:1013D000EE5BFF4F1082118212821382FC01128297
:1013E000138214821582411551056105710509F4B6
:1013F00008950E94E309FCCF862F0E9401070895FB
:1014000080B38D7C80BB3F9A0895611108C07698A7
:101410001092BF001092BE004093D2000895769AB9
:10142000F7CF61110BC05C98109295001092940058
:1014300050E0509399004093980008955C9AF4CF3F
:101440003E9A549A81E8809390008BE080939100BB
:1014500010929500109294001092990010929800AA
:10146000579A6E9A87E08093C10089E08093C2000A
:101470001092C3001092BF001092BE001092D200D2
:101480000895CF93DF93EC012D853E854F855889D4
:101490002417350771F0388B2F8721303105B1F0D3
:1014A00058F02330310509F447C02530310509F4DF
:1014B00071C0DF91CF91089540E061E00E94050A7C
:1014C00040E061E0CE010E94110AF3CF8F8982349F
:1014D000E9F07CF0833429F1843459F7488D60E0D9
:1014E000CE010E94050A498D61E0CE010E94110AD9
:1014F000E0CF8134F1F6488D61E0CE010E94050A0B
:10150000498D61E0CE010E94110AD3CF488D60E081
:10151000CE010E94050A498D60E0CE010E94110AA9
:10152000C8CF488D61E0CE010E94050A498D60E078
:10153000CE010E94110ABDCF8F898234D1F05CF0B8
:10154000833411F1843409F0B4CF488D60E0CE01CA
:101550000E94050AAECF813409F0ABCF40E061E0D4
:10156000CE010E94050A40E061E0CE010E94110A0E
:10157000A0CF488D60E0CE010E94050A498D60E051
:10158000CE010E94110A95CF498D60E0CE010E94E4
:10159000110A8FCF0E94D8086D8F7E8F8F8F98A3EE
:1015A00088CF6FEF7FEF81E090E00E943E120895B8
:1015B000FC0180819181009719F00E94C015089567
:1015C00060E070E0CB010895DC0114962D913C9110
:1015D0001597232B69F46115710541F0FB0180819A
:1015E000882311F080E0089581E0089581E0089556
:1015F0006115710559F0FC01808191810E944618A6
:1016000021E0892B09F020E0822F0895ED91FC91D3
:10161000908181E09923C9F380E00895FF920F93B0
:101620001F93CF93DF93CDB7DEB764970FB6F894CF
:10163000DEBF0FBECDBF8C01FC01F380F2E0FF16D0
:10164000B1F0FC01868197810E9475020E94000121
:10165000B8010E944C019C01892BD1F4F1E0FF16E6
:1016600009F44BC083E0F816C9F080E005C0FC0126
:10167000868197810E94840564960FB6F894DEBF38
:101680000FBECDBFDF91CF911F910F91FF900895B5
:1016900081E01216130684F380E0EECFF801828118
:1016A0008823C1F1823031F0813059F0833081F0EC
:1016B00080E0E2CF40E860E187E891E00E94130219
:1016C000DBCF40E86BE08BE791E00E941302D4CFC0
:1016D0000E9400018E010F5F1F4FB8010E942D0173
:1016E000F80101900020E9F73197BF01601B710BF1
:1016F00040E0C8010E941302BFCF69E671E06115A6
:10170000710559F0FB01449150E080E80E944402C9
:1017100081E0B2CF65E671E0F2CF80E0ADCFDF923D
:10172000EF92FF920F931F93CF93DF93CDB7DEB766
:10173000A1970FB6F894DEBF0FBECDBF7C01CB01E1
:10174000BA01D22E19A221E02D1520F48E010F5DD1
:101750001F4F0EC00F2EFAE0DF2EF02DF7CFE95C01
:10176000D801EE938D01611571058105910579F020
:101770002D2D30E050E040E00E94FC15E62F622F56
:10178000732F842F952FEA3054F7E05DE9CF10973F
:10179000F9F0FD0101900020E9F73197AF014A1BF4
:1017A0005B0BD701ED91FC910280F381E02DB80134
:1017B000C7010995A1960FB6F894DEBF0FBECDBF45
:1017C000DF91CF911F910F91FF90EF90DF900895DF
:1017D00090E080E0EFCF2115310549F4DC01ED9177
:1017E000FC910190F081E02D642F099508950E94ED
:1017F0008F0B08959A01462F50E070E060E00E9440
:10180000EB0B0895DC01ED91FC910280F381E02D5A
:1018100042E050E06DE371E00995089561157105AE
:1018200081F0FB0101900020E9F73197AF01461BE1
:10183000570BDC01ED91FC910280F381E02D0995BD
:10184000089590E080E008950F931F93CF93DF9366
:10185000EC010E940E0C8C01CE010E94020C800F44
:10186000911FDF91CF911F910F91089560E471E076
:1018700085E992E00E94240C0895CF92DF92EF92C6
:10188000FF920F931F93CF93DF93EC010E94D80830
:10189000675E7F4F8F4F9F4F0D8D1E8D2F8D38A10F
:1018A000061717072807390748F0DF91CF911F91D6
:1018B0000F91FF90EF90DF90CF9008950E94D8088D
:1018C0006D8F7E8F8F8F98A38A8D882359F09B8D83
:1018D000992341F09C8D992329F085E090E09A8B23
:1018E000898B1BC0882341F09B8D992329F083E0CD
:1018F00090E09A8B898B11C09B8D992341F02C8DA0
:10190000222329F084E090E09A8B898B06C09923EA
:10191000E1F082E090E09A8B898BE989FA898B89E2
:101920009C89E817F90709F2FC8BEB8BE730F1058E
:1019300008F0BBCFE256F34F0C945516D90CF00CBF
:10194000070D1E0D350D4C0DC80C882319F01A8A91
:10195000198AE3CF8C8D882329F081E090E09A8B5F
:10196000898BDBCFC9A0DAA0EBA0FCA084EFC80E66
:1019700081E0D81EE11CF11C0E94D808C616D706CB
:10198000E806F90650F686E090E09A8B898BC5CF81
:101990004EE661E0CE010E94050A4EE661E0CE010E
:1019A0000E94110A67E471E085E992E00E94240C2C
:1019B0007CCF40E860E0CE010E94050A42E361E08E
:1019C000CE010E94110A0E94D80869A37AA38BA3B2
:1019D0009CA36EE471E085E992E00E94240C65CF3F
:1019E00042E361E0CE010E94050A40E860E0CE01DA
:1019F0000E94110A0E94D80869A37AA38BA39CA312
:101A000063E571E085E992E00E94240C4ECF46E93F
:101A100060E0CE010E94050A40E561E0CE010E942F
:101A2000110A0E94D80869A37AA38BA39CA369E535
:101A300071E085E992E00E94240C37CF46E960E02E
:101A4000CE010E94050A44E161E0CE010E94110A24
:101A50000E94D80869A37AA38BA39CA36DE571E0CB
:101A600085E992E00E94240C20CF44E161E0CE01A0
:101A70000E94050A46E960E0CE010E94110A0E9418
:101A8000D80869A37AA38BA39CA360E671E085E9DB
:101A900092E00E94240C09CF46E960E0CE010E944A
:101AA000050A44E160E0CE010E94110A0E94D808B4
:101AB00069A37AA38BA39CA363E671E085E992E016
:101AC0000E94240CF2CECF93DF93DC011D96ED91A2
:101AD000FC91E730F10508F0BDC0EC01EE58F24F83
:101AE0000C945516790D8C0D320EDF0D2D0E050E52
:101AF000260E8E89882309F4ADC081E090E09E8790
:101B00008D8766E671E085E992E00E94240C6FEF14
:101B10008DE00E94CE069EC08E89882349F18A8D71
:101B2000811133C08B8D811130C08C8D81112DC0FE
:101B30008D8981113FC08F89853409F08BC0888DD4
:101B40008F3F09F087C0898D8F3F09F083C085E002
:101B500090E09E878D879C8B8B8B67E871E085E991
:101B600092E00E94240C6FEF8DE00E94CE0672C0BE
:101B70001E861D8660E771E085E992E00E94240CD4
:101B800060E08DE00E94CE0665C083E090E09E8715
:101B90008D8740E061E0CE010E94050A40E061E0EF
:101BA000CE010E94110A6DE771E085E992E00E9482
:101BB000240C50C082E090E09E878D874BC08E89B8
:101BC000882389F08A8D811106C08B8D811103C015
:101BD0008C8D8823A9F08D898823E1F184E090E041
:101BE0009E878D8737C01E861D8660E771E085E978
:101BF00092E00E94240C60E08DE00E94CE062AC094
:101C000081E090E09E878D8725C08E89882351F0E2
:101C10008F898534A1F08A35E9F081E090E09E87D4
:101C20008D8718C01E861D8660E771E085E992E009
:101C30000E94240C60E08DE00E94CE060BC0988DBF
:101C40009F3F49F7998D9F3F31F704C085E090E0B1
:101C50009E878D87DF91CF91089583E090E09E87E6
:101C60008D87F8CF81E090E09E878D87F3CF1F931B
:101C7000CF93DF93EC01162F61E00E94B10962E976
:101C800071E085E992E00E940E0C4AE050E0612F7D
:101C900085E992E00E94FA0B69E971E085E992E03A
:101CA0000E94240C42E350E060E070E0CE010E940C
:101CB000E309DF91CF911F9108950F931F93CF9365
:101CC000DF93FC012689222319F1062FEC010E94E3
:101CD0001909882321F1CE010E941909882309F1ED
:101CE000CE010E941E09182F8836E9F048F4883585
:101CF00061F0833681F7602FCE010E94370E09C054
:101D0000813789F0863729F0E6CF1E8A13E601C0B5
:101D100013E6812FDF91CF911F910F91089515E662
:101D2000F8CF15E6F6CF13E6F4CF1F93CF93DF93EA
:101D3000EC01142F662381F081E08E8B60E0CE01F0
:101D40000E945D0E833641F041E050E060E070E0BB
:101D5000CE010E94E309F2CF1E8BDF91CF911F913C
:101D60000895CF92DF92EF92FF921F93CF93DF936C
:101D7000EC01162F0E9458096B017C0160EA71E0AA
:101D800085E992E00E940E0C4AE050E0612F85E95F
:101D900092E00E94FA0B67EA71E085E992E00E9406
:101DA0000E0C2AE030E0B701A60185E992E00E941E
:101DB000EB0B69EA71E085E992E00E940E0C8E81DE
:101DC0009F81A885B985B701A601481B590B6A0BED
:101DD0007B0B2AE030E085E992E00E94EB0B69EA98
:101DE00071E085E992E00E940E0C4E815F8168856A
:101DF00079858A859B85AC85BD85481B590B6A0B07
:101E00007B0B2AE030E085E992E00E94EB0BDF914A
:101E1000CF911F91FF90EF90DF90CF9008950F9397
:101E20001F93CF93DF93EC0180913D02882349F10A
:101E30000E94D8080091390210913A0220913B0289
:101E400030913C02601B710B820B930B673971055B
:101E50008105910520F50E94D8080F8118852985F4
:101E60003A85601B710B820B930B6D3271408105BB
:101E7000910508F018828881DF91CF911F910F9111
:101E800008950E94D8086093390270933A028093B3
:101E90003B0290933C0281E080933D02C9CF8E01CA
:101EA0000F5F1F4F6FE371E0C8010E94E40A8111C8
:101EB00010C0B80185EE92E00E942C030E94D80861
:101EC0006093390270933A0280933B0290933C02F4
:101ED000C2CF6BEA71E085EE92E00E940E0CEECF6D
:101EE00048EB5BE060E070E085E492E00E94E70987
:101EF00040E052EC61E070E085E492E00E9423094A
:101F000061E085E492E00E94B109811107C041E0DF
:101F100060E085E492E00E94950E08956DEA71E01C
:101F200085E992E00E940E0C4AE050E060E070E02B
:101F300085E492E00E94E309EACF0F931F93CF93C9
:101F4000DF938C01EB01FC0180819181892BB1F041
:101F500088819981892B51F18AEA91E0A0E0892B4F
:101F600049F1F801228133818C819D81281739073D
:101F700020F5F801808191810E94F716888199816E
:101F8000F801918380838A819B81938382838C81F2
:101F90009D8195838483198218821B821A821D82F7
:101FA0001C82DF91CF911F910F91089580E090E006
:101FB000DC01D5CFA0FFDDCFD4CF688179818081CE
:101FC00091810E944F188C819D81F80195838483B3
:101FD0001D821C82E6CFCF93DF93EC018617970713
:101FE00011F00E949D0FCE01DF91CF910895CF9304
:101FF000DF93EC0188819981009711F00E94F71618
:10200000198218821D821C821B821A82DF91CF9155
:102010000895FC01808191810E94F71608950F9325
:102020001F93CF93DF93EC018B016F5F7F4F88810C
:1020300099810E948017009751F0998388831B83B0
:102040000A8381E0DF91CF911F910F91089580E085
:10205000F9CFCF93DF93EC0128813981232B29F02D
:102060002A813B812617370770F4CE010E940F109A
:10207000882351F08C819D81892B49F4E881F98175
:10208000108281E001C081E0DF91CF91089581E06D
:10209000FBCFEF92FF920F931F93CF93DF93FC013F
:1020A000C481D581C40FD51F6115710501F1452B80
:1020B00041F481E0DF91CF911F910F91FF90EF905C
:1020C00008957B018C01BE010E942910882391F3A1
:1020D000F8012081318184819581B701820F931F9E
:1020E0000E944F18F801D583C48381E0E3CF80E0DC
:1020F000E1CFCF93DF9300D0CDB7DEB769831A82EB
:1021000041E050E0BE016F5F7F4F0E9449100F9089
:102110000F90DF91CF910895EF92FF920F931F934D
:10212000CF93DF93EC017B018A01BA010E94291051
:10213000882379F01D830C83B701888199810E94DF
:102140004F18CE01DF91CF911F910F91FF90EF902B
:102150000895CE010E94F70FF4CFCF93DF93EC01E7
:102160006115710571F0FB0101900020E9F73197CD
:10217000AF01461B570B0E948C10CE01DF91CF910F
:1021800008950E94F70FF9CFFC011182108213828B
:102190001282158214826115710551F0FB010190C4
:1021A0000020E9F73197AF01461B570B0E948C10B6
:1021B0000895AF92BF92CF92DF92EF92FF920F936A
:1021C0001F93CF93DF935C016B018A01E901241710
:1021D000350720F08D2FEA01022F182F6FE371E0F1
:1021E000C5010E94C410D6011496ED90FC90CE1546
:1021F000DF05D0F4E016F10608F07801D601ED9184
:10220000FC911197EE0DFF1D108110826D917C9154
:102210006C0F7D1FC5010E94AD10F6018081918178
:10222000E80EF91ED7011C93C501DF91CF911F91D4
:102230000F91FF90EF90DF90CF90BF90AF900895F7
:10224000FF920F931F93CF93DF93EC018B01F42E3A
:102250006FE371E00E94C410C8010E94E408992352
:102260007CF02F2D0F2C000C330B2817390741F071
:10227000682FCE010E947910C8010E94E408EFCFB8
:10228000CE01DF91CF911F910F91FF900895AF92F2
:10229000BF92CF92DF92EF92FF920F931F93CF9353
:1022A000DF93CDB7DEB76E970FB6F894DEBF0FBEE3
:1022B000CDBF7C018B015A01690185EE92E00E943D
:1022C000D903181619060CF07FC00E94D808F70130
:1022D000678370878187928781E080836EEB71E0EE
:1022E000CE0149960E94C41040E265EE72E0CE0134
:1022F00043960E942011BE016D5E7F4FCE0149962C
:102300000E94EB0FCE0143960E94091021E030E0BD
:1023100050E040E0BE01675E7F4FCE010D960E9407
:10232000D91070E060E0CE010D960E94A701F8017F
:102330008083CE010D960E94091024E030E041E038
:1023400050E0BE01675E7F4FCE0107960E94D91014
:10235000CE0107960E94D80AF5016083CE01079648
:102360000E9409102D8D3E8D44E050E0BE01675E55
:102370007F4FCE0101960E94D910CE0101960E9496
:10238000D80AF6016083CE0101960E940910F80177
:1023900080818A35B9F011E0CE0149960E9409107A
:1023A000812F6E960FB6F894DEBF0FBECDBFDF91C2
:1023B000CF911F910F91FF90EF90DF90CF90BF9042
:1023C000AF90089510E0E8CF10E0EACF0F931F938D
:1023D000CF93DF938C01EC0121966FE371E0CE0186
:1023E0000E94C410F801178210861186128626E01A
:1023F00040E051EE60E070E085EE92E00E94F00374
:102400006FE371E0CE010E94AD10DF91CF911F917B
:102410000F910895CF93DF93EC010E94200ACE0123
:1024200001960E94E611CE010C960E94000A1E86BB
:102430001D8681E090E0988B8F8786E090E09A8BF4
:10244000898B85E090E09C8B8B8B1D8E1E8E1F8E62
:1024500018A219A21AA21BA21CA240E052EC61E031
:1024600070E085E992E00E945C0567EC71E085E927
:1024700092E00E94240CDF91CF9108950F931F9357
:10248000CF93DF93EC018B01019751F0CD2B19F421
:102490000F3F1F4F69F0DF91CF911F910F9108956A
:1024A0006F3F7F4F99F784E192E00E940A12EECFCE
:1024B00086E192E00E940910EECF0F931F93CF9315
:1024C000DF938C01EB016FE371E00E94C4108A8DF1
:1024D000882331F09B8D992319F09C8D911118C0A0
:1024E000882319F09B8D911119C09B8D992319F0A8
:1024F0002C8D211119C091111DC0811121C08C8D0D
:10250000811124C0C801DF91CF911F910F910895CF
:1025100068ED71E0C8010E94AD10F4CF61EE71E08A
:10252000C8010E94AD10EECF6AEE71E0C8010E94B2
:10253000AD10E8CF63EF71E0C8010E94AD10E2CFAB
:102540006CEF71E0C8010E94AD10DCCF65E072E075
:10255000C8010E94AD10D6CFEF92FF920F931F9348
:10256000CF93DF9300D000D000D0CDB7DEB78C0181
:102570007C018FEFE81AF80A9801275E3F4FA80107
:10258000485E5F4FB801695E7F4FC7010E944711E7
:10259000F801858BC7010E940F0FF801868B780127
:1025A000FCE0EF0EF11C62E070E0C7010E94FC0944
:1025B00021E0C2970CF020E0F801228F64E070E087
:1025C000C7010E94FC0921E0C2970CF020E0F8014D
:1025D000238F63E070E0C7010E94FC0921E0C297ED
:1025E0000CF020E0F801248FB801CE0101960E9482
:1025F0005D12BE016F5F7F4FC80102960E94EB0F14
:10260000CE0101960E94091026960FB6F894DEBFFF
:102610000FBECDBFDF91CF911F910F91FF90EF9033
:102620000895CF92DF92EF92FF920F931F930E9433
:10263000D808672B682B692B39F40E94D8086230C0
:1026400071058105910570F185E492E00E945809B9
:102650000091100210911102209112023091130288
:10266000601771078207930740F46093100270931C
:1026700011028093120290931302009110021091A4
:10268000110220911202309113026B017C01C01AD9
:10269000D10AE20AF30A970186010A3F11052105D2
:1026A0003105D8F484E192E00E94AC1284E192E01A
:1026B0000E94630D84E192E00E94410A8091210210
:1026C000909122020597029708F445C01F910F913F
:1026D000FF90EF90DF90CF90089560931002709379
:1026E0001102809312029093130244EF51E060E0D4
:1026F00070E085E492E00E94670961E085E492E081
:102700000E94B10981110DC045E050E060E070E029
:1027100085E492E00E94E30985E492E00E945B096F
:10272000C1CF61E085E492E00E94B10E6EE072E0FC
:1027300085E992E00E940E0C0E94D808AB01BC0112
:102740002AE030E085E992E00E94EB0B85E492E01C
:102750000E94360CD9CF84E192E00E943D0CB6CFA6
:102760001F920F920FB60F9211242F933F934F9306
:102770005F936F937F938F939F93AF93BF93CF9309
:10278000EF93FF93E1EEF0E0C0818081837F80834F
:10279000C3FD18C0C2FD21C0C4FD3BC0C0FF4AC07C
:1027A000E2EEF0E080818E7E80618083E1EEF0E0F9
:1027B00080818E7E8083809189038E7E816080936C
:1027C000890338C042E360E080E00E949E021092DC
:1027D0008B0388E08093F000DDCF83E00E94AB01A3
:1027E00080918803882341F08091880381508093F1
:1027F0008803811101C05D9A80918703882361F26B
:10280000809187038150809387038111C5CF289AD7
:10281000C3CFE2EEF0E080818E7E81608083E1EEC6
:10282000F0E080818F7E8083809189038E7E80613D
:1028300080938903FF91EF91CF91BF91AF919F91C9
:102840008F917F916F915F914F913F912F910F9059
:102850000FBE0F901F9018951F920F920FB60F92F8
:1028600011242F933F934F935F936F937F938F9395
:102870009F93AF93BF93EF93FF93CF93DF93CDB726
:10288000DEB72897DEBFCDBF1092E9008091E80047
:1028900083FF2EC088E0FE0131969FEF980F8823BA
:1028A00031F08091F1008083892F3196F6CF2898FE
:1028B00084E68093870382EF8093E80099819923CF
:1028C00084F18EEF8093E800892F807609F075C03F
:1028D0008A814B812C81322F242F81112EC0903878
:1028E00029F1E1EFF0E0108210828EEF8093E80092
:1028F00028960FB6F894DEBF0FBECDBFDF91CF9103
:10290000FF91EF91BF91AF919F918F917F916F91C7
:102910005F914F913F912F910F900FBE0F901F909D
:1029200018958091E80080FFFCCFCECF80918A037C
:10293000E1EFF0E080831082D8CF8130A9F08330BE
:10294000F9F0853049F1863079F1873009F43FC0DC
:10295000883079F1893049F69370C9F50E94800278
:102960008B8180938B03C1CF9111BFCF2130310573
:1029700009F0BBCF80918A038D7F80938A03B5CF06
:102980009111B3CF2130310509F0AFCF80918A0387
:10299000826080938A03A9CF8091E80080FFFCCFFA
:1029A00040684093E300A1CFCE0101960E940E0B38
:1029B0000CC081E08093F10098CF8F8198850E94B0
:1029C0007502CE0101960E94650681118ECF81E2CB
:1029D0008093EB008DCF0E94250782E893E00E9450
:1029E000D9070E94700F0E9411130E94DF04FBCFD1
:1029F0001F920F920FB60F9211242F933F934F9374
:102A00005F936F937F938F939F93AF93BF93EF9356
:102A1000FF9385EE92E00E945204FF91EF91BF91E7
:102A2000AF919F918F917F916F915F914F913F9166
:102A30002F910F900FBE0F901F9018951F920F921D
:102A40000FB60F9211242F938F939F93AF93BF9341
:102A5000EF93FF93E091F502F091F602808182FD01
:102A600014C0E5EEF2E0A689B7892C91818D8F5FC5
:102A70008F73928D891771F0DF01E18DF0E0EB51DA
:102A8000FD4F258F59968C9305C0E091FB02F09184
:102A9000FC028081FF91EF91BF91AF919F918F9147
:102AA0002F910F900FBE0F901F9018951F920F92AD
:102AB0000FB60F9211240F931F932F933F934F93B1
:102AC0005F936F937F938F939F93AF93BF93009187
:102AD0008C0210918D0220918E0230918F02909184
:102AE0008B02B901A8014F5F5F4F6F4F7F4F83E0AB
:102AF000890F8D3740F086E8890FB901A8014E5F34
:102B00005F4F6F4F7F4F80938B0240938C025093A7
:102B10008D0260938E0270938F028091900290914B
:102B20009102A0919202B09193020196A11DB11D54
:102B30008093900290939102A0939202B09393029B
:102B4000BF91AF919F918F917F916F915F914F91C5
:102B50003F912F911F910F910F900FBE0F901F90DB
:102B600018956FEF7FEF90E080E00E943E1208958D
:102B70000E946C030E94EB040E9412090C94D10A7B
:102B80001F93FC0199278827BC01E894119110320A
:102B9000E9F3193010F01E30C8F31B3251F01D322A
:102BA00049F4689406C00E94E715610F711D811DEC
:102BB000911D119110531A30B0F33EF49095809509
:102BC000709561957F4F8F4F9F4F1F910895592F9B
:102BD000482F372F262F660F771F881F991F660FE4
:102BE000771F881F991F620F731F841F951F660F21
:102BF000771F881F991F0895A1E21A2EAA1BBB1BDD
:102C0000FD010DC0AA1FBB1FEE1FFF1FA217B307B8
:102C1000E407F50720F0A21BB30BE40BF50B661FCE
:102C2000771F881F991F1A9469F760957095809592
:102C300090959B01AC01BD01CF0108952F923F9269
:102C40004F925F926F927F928F929F92AF92BF92BC
:102C5000CF92DF92EF92FF920F931F93CF93DF9368
:102C6000CDB7DEB7CA1BDB0B0FB6F894DEBF0FBEC5
:102C7000CDBF09942A88398848885F846E847D8412
:102C80008C849B84AA84B984C884DF80EE80FD8014
:102C90000C811B81AA81B981CE0FD11D0FB6F8948A
:102CA000DEBF0FBECDBFED010895EE0FFF1F0590F3
:102CB000F491E02D09940F931F93CF93DF9382300B
:102CC000910510F482E090E0E0919A03F0919B036B
:102CD00030E020E0B0E0A0E0309799F42115310514
:102CE00009F44AC0281B390B24303105D8F58A81F4
:102CF0009B816115710589F1FB0193838283FE013C
:102D000011C0408151810281138148175907E0F0B9
:102D10004817590799F4109761F012960C9312977F
:102D200013961C933296CF01DF91CF911F910F9193
:102D3000089500939A0310939B03F4CF2115310556
:102D400051F04217530738F0A901DB019A01BD0188
:102D5000DF01F801C1CFEF01F9CF90939B0380937E
:102D60009A03CDCFFE01E20FF31F8193919322507E
:102D7000310939832883D7CF209198033091990363
:102D8000232B41F420910E0130910F0130939903D0
:102D90002093980320910C0130910D0121153105EC
:102DA00041F42DB73EB74091100150911101241B01
:102DB000350BE0919803F0919903E217F307A0F423
:102DC0002E1B3F0B2817390778F0AC014E5F5F4F81
:102DD0002417350748F04E0F5F1F50939903409317
:102DE0009803819391939FCFF0E0E0E09CCFCF9345
:102DF000DF930097E9F0FC01329713821282A091D1
:102E00009A03B0919B03ED0130E020E01097A1F40C
:102E100020813181820F931F209198033091990373
:102E20002817390709F061C0F0939903E0939803DC
:102E3000DF91CF910895EA01CE17DF07E8F54A81C7
:102E40005B819E0141155105B1F7E901FB83EA83DE
:102E500049915991C40FD51FEC17FD0761F480818A
:102E600091810296840F951FE9019983888382815D
:102E700093819B838A83F0E0E0E012968D919C9190
:102E800013970097B9F52D913C911197CD010296BA
:102E9000820F931F209198033091990328173907C7
:102EA00039F6309751F510929B0310929A03B09324
:102EB0009903A0939803BCCFD383C28340815181EF
:102EC000840F951FC817D90761F44E5F5F4F888143
:102ED0009981480F591F518340838A819B81938335
:102EE00082832115310509F0B0CFF0939B03E09365
:102EF0009A039ECFFD01DC01C0CF13821282D7CF8F
:102F0000B0E0A0E0E6E8F7E10C9420168C01009711
:102F100051F4CB010E945B168C01C801CDB7DEB71E
:102F2000E0E10C943C16FC01E60FF71F9C012250D7
:102F30003109E217F30708F49DC0D901CD91DC9166
:102F40001197C617D70798F0C530D10530F3CE01D9
:102F500004978617970708F3C61BD70B2297C193D0
:102F6000D1936D937C93CF010E94F716D6CF5B016E
:102F7000AC1ABD0A4C018C0E9D1EA0919A03B09113
:102F80009B03512C412CF12CE12C109731F58091B1
:102F90009803909199038815990509F05CC046162D
:102FA000570608F058C080910C0190910D010097D0
:102FB00041F48DB79EB74091100150911101841BCF
:102FC000950BE817F90708F055C0F0939903E093C3
:102FD0009803F90171836083A0CF8D919C91119723
:102FE00012966C90129713967C901397A815B905BA
:102FF00059F56C0142E0C40ED11CCA14DB0420F167
:10300000AC014A195B09DA011296159780F06282C9
:10301000738251834083D9016D937C93E114F10451
:1030200071F0D7011396FC93EE93129776CF229608
:103030008C0F9D1FF90191838083F301EFCFF093F3
:103040009B03E0939A0369CF4816590608F42C01B4
:103050007D01D3019ACFCB010E945B167C010097C2
:1030600049F0AE01B8010E943D18C8010E94F71650
:10307000870153CF10E000E050CFFB01DC0102C01C
:1030800001900D9241505040D8F70895FB01DC01AA
:103090008D91019080190110D9F3990B0895FB01CE
:1030A000DC0101900D920020E1F7089510E0CDECD5
:1030B000D0E004C0FE010E9455162196CE3CD107F7
:0630C000C9F7F894FFCFF0
:1030C600FFFFFFFF00E100000000000000009C037E
:1030D6008000000000000D05BA08270523054C05F1
:1030E6002C053A050000000073043B03A603BC044C
:1030F600D903B703CB0300C180810000000D0A008D
:103106005F564D445045004E4F53454E53004C4577
:103116004654005249474854004D494400424C0029
:10312600425200335200436F6E6E656374656400ED
:10313600646973636F6E6E656374656400436F6C78
:103146006C6973696F6E004175746F6E6F6D6F7524
:103156007300564D4450435F005F564D4450430044
:10316600564D4450455F003A323A005900564D4498
:1031760050565F317C315F564D4450560A00202030
:1031860020202020202000427261696E5F53746FF8
:10319600726D5F56322E300046313131303030207C
:1031A6000046313130303030200046303131303059
:1031B600302000463031303030302000463130305B
:1031C60030303020004630303130303020007C0046
:00000001FF
