:100000000C94CE000C94F6000C94F6000C94F600C0
:100010000C94F6000C94F6000C94F6000C94F60088
:100020000C94F6000C94F6000C9416060C948506BD
:100030000C94F6000C94F6000C94F6000C94F60068
:100040000C94F6000C94F6000C94F6000C94F60058
:100050000C94F6000C94F6000C94F6000C940F0926
:100060000C94F6000C94DD080C94B7080C94F60080
:100070000C94F6000C94F6000C94F6000C94F60028
:100080000C94F6000C94F6000C94F6000C94F60018
:100090000C94F6000C94F6000C94F6000C94F60008
:1000A0000C94F6000C94F6000C94F600000000028C
:1000B00000090F0000030401000C00000000000014
:1000C0000000000000000000000000080B00020219
:1000D00002010009040000010202000005240010D2
:1000E000010524010101042402060524060001077C
:1000F00005810310004009040100020A0000000706
:1001000005020240000007058302400000040309C5
:100110000412010002EF0201404123368000010178
:1001200002030141726475696E6F204C4C430041BB
:10013000726475696E6F204C656F6E6172646F00DA
:1001400000000000250028002B002E0031000000D8
:100150000000240027002A002D00300004040404BD
:10016000040304050202020204030202020206065C
:100170000606060604040202020404040802011032
:1001800040804010204080408008020401804020D0
:1001900010020110801020404020590911241FBE78
:1001A000CFEFDAE0DEBFCDBF23E0AAEBB1E001C0C4
:1001B0001D92A431B207E1F711E0A0E0B1E0E8EC54
:1001C000F9E102C005900D92AA3BB107D9F710E002
:1001D000CEECD0E004C02197FE010E94D50CCD3CAE
:1001E000D107C9F70E94D2090C94E20C0C940000CC
:1001F00090E0FC01E558FE4F2491845A9E4FFC018B
:100200008491882399F090E0880F991FFC01E25BAC
:10021000FE4FA591B491FC01E05CFE4F8591949155
:100220008FB7F894EC91E22BEC938FBF0895FC010B
:100230008091E001882311F13FB7F89482E0809328
:10024000E9002091F200822F90E01816190614F4AC
:1002500081E090E0882339F0289844E64093DF015C
:100260004091F1004083222339F02091F2002111C6
:1002700003C02BE62093E8003FBF08958FEF9FEF68
:1002800008952FB7F89483E08093E9009091E800F7
:10029000892F807295FF04C09091F20080E4891B41
:1002A0002FBF08958091D70181110DC082E0809306
:1002B000D30184E08093D4011092D6011092D5012D
:1002C00081E08093D70183ED91E008954091CD01C5
:1002D0005091CE012091CB013091CC0142175307B0
:1002E000B4F49091E8009570E1F39091E80092FDEC
:1002F00019C08093F1008091CD019091CE010196BB
:100300008F739927892B19F48EEF8093E8008091E1
:10031000CD019091CE0101969093CE018093CD01B5
:1003200081E0089580E00895EF92FF920F931F936C
:10033000CF93DF93F82E192FE62E042F81E0860F3E
:10034000880F0E94660183E00E946601CF2DD12FA5
:10035000EC0EFD2EF11CCE15DF05B9F007FF13C022
:10036000FE0184910E946601182F80E00E946601C0
:10037000812321968111EFCFDF91CF911F910F91B2
:10038000FF90EF9008958881EDCF81E0F5CFDF9267
:10039000EF92FF920F931F93CF93DF93D82E8A0192
:1003A000EB017B01E40EF51ECE15DF0559F0D7FEFB
:1003B00012C0FE0184910E94660121968111F4CF42
:1003C0000FEF1FEFC801DF91CF911F910F91FF90A9
:1003D000EF90DF9008958881EECF0F931F93CF9316
:1003E000DF931F92CDB7DEB782E0898342E450E00D
:1003F0006BEC70E080E80E94C7010E945201DC01B2
:1004000012960D911C910115110589F0D801ED91FD
:10041000FC910280F381E02DBE016F5F7F4FC80128
:10042000099597FD04C0F80100851185ECCF8981FD
:100430000F90DF91CF911F910F910895615030F08F
:100440002091F100FC0120830196F8CF289884E6E2
:100450008093DF010895AF92BF92CF92DF92EF9227
:10046000FF920F931F93CF93DF936C017B018B015E
:10047000040F151FEB015E01AE18BF08C017D107AE
:1004800059F06991D601ED91FC910190F081E02D38
:10049000C6010995892B79F7C501DF91CF911F918D
:1004A0000F91FF90EF90DF90CF90BF90AF900895A5
:1004B000FC01538D448D252F30E0842F90E0821B6A
:1004C000930B541710F0CF96089501970895FC01EF
:1004D000918D828D981761F0A28DAE0FBF2FB11D47
:1004E0005D968C91928D9F5F9F73928F90E008959F
:1004F0008FEF9FEF0895FC01918D828D981731F059
:10050000828DE80FF11D858D90E008958FEF9FEFAC
:100510000895FC01918D228D892F90E0805C9F4F82
:10052000821B91098F739927089587E792E00E94B3
:10053000890221E0892B09F420E0822F089580E0D0
:1005400090E0892B29F00E94950281110C94000003
:100550000895FC01A48DA80FB92FB11DA35ABF4F58
:100560002C91848D90E001968F739927848FA689B2
:10057000B7892C93A089B1898C9182748C93938DC7
:10058000848D981306C00288F389E02D80818F7DC9
:1005900080830895EF92FF920F931F93CF93DF9381
:1005A000EC0181E0888F9B8D8C8D981319C0E889B0
:1005B000F989808185FF14C09FB7F894EE89FF897F
:1005C0006083E889F9898081827480839FBF81E09C
:1005D00090E0DF91CF911F910F91FF90EF900895E0
:1005E000F62E0B8D10E00F5F1F4F0F731127E02EBB
:1005F0008C8D8E110CC00FB607FCFACFE889F989F3
:10060000808185FFF5CFCE010E94A902F1CFEB8D4D
:10061000EC0FFD2FF11DE35AFF4FF0829FB7F894C6
:100620000B8FEA89FB8980818062CFCFCF93DF93E4
:10063000EC01888D8823B9F0AA89BB89E889F989FA
:100640008C9185FD03C0808186FD0DC00FB607FC2F
:10065000F7CF8C9185FFF2CF808185FFEDCFCE0162
:100660000E94A902E9CFDF91CF910895CF93DF9344
:100670001F92CDB7DEB76983DC01ED91FC9102805A
:10068000F381E02D41E050E0BE016F5F7F4F09959F
:100690000F90DF91CF91089583E08093E9008091DE
:1006A000F200882319F08AE38093E80008950E94FD
:1006B000410190E00895CF93DF931F92CDB7DEB74D
:1006C000FC018485958597FD08C02FEF3FEF3587A6
:1006D00024870F90DF91CF910895CE0101960E945B
:1006E0001701019719F4898190E0F3CF8FEF9FEF05
:1006F000F0CF0F931F93CF93DF931F92CDB7DEB749
:100700008C01FC018485958597FF0BC0CE01019675
:100710000E941701019771F4898190E0F801958793
:100720008487F801848595850F90DF91CF911F9183
:100730000F9108958FEF9FEFF1CFFC018485958590
:1007400097FD0BC09FB7F89482E08093E9008091F9
:10075000F2009FBF90E0019608959FB7F89482E061
:100760008093E9008091F2009FBF90E00895282FC8
:1007700030E0F901E455FF4F9491F901E558FE4F3F
:100780008491245A3E4FF9012491222309F430C068
:100790009923E9F091509F30D0F4E92FF0E0ED5229
:1007A000FC4F0C94D50C01040504E203F903FD038E
:1007B000E703E703E70308040E04120416041C040D
:1007C000E7032004909180009F7790938000E22FB0
:1007D000F0E0EE0FFF1FE05CFE4FA591B4919FB7D4
:1007E000F894EC91611132C080958E238C939FBF59
:1007F0000895909180009F7DE8CF90918000977F31
:10080000E4CF94B59F7794BDE2CF94B59F7DFBCFA5
:10081000909190009F7790939000D9CF9091900005
:100820009F7DF9CF90919000977FF5CF9091C00078
:100830009F779093C000CBCF9091C0009F7DF9CF60
:100840009091C200977F9093C200C1CF8E2BCECFE4
:100850001F93CF93DF93182FEB010E94F80020978E
:1008600039F460E0812FDF91CF911F910C94B70391
:10087000CF3FD10511F461E0F5CFE12FF0E0E45571
:10088000FF4FE491E150EF3008F07FC0F0E0E55B0E
:10089000FB4F0C94D50C5A046204670471047B046A
:1008A000C504C504C50485048F049904A304B004D9
:1008B000C504B80484B5806884BDC7BDDF91CF91FD
:1008C0001F91089584B5806284BDC8BDF7CF809123
:1008D0008000806880938000D0938900C093880056
:1008E000EDCF80918000806280938000D0938B0058
:1008F000C0938A00E3CF809180008860809380005D
:10090000D0938D00C0938C00D9CF809190008068E7
:1009100080939000D0939900C0939800CFCF80919E
:100920009000806280939000D0939B00C0939A00C7
:10093000C5CF80919000886080939000D0939D00F7
:10094000C0939C00BBCF8091C00080688093C000A2
:100950008091C0008F7B8093C000C093CF00AECF4A
:100960008091C00080628093C000C093D000A6CF69
:100970008091C20088608093C2008091C2008B7F0A
:100980008093C200C093D20099CFC038D1050CF03B
:1009900072CF67CF3FB7F8948091BF019091C001AB
:1009A000A091C101B091C20126B5A89B05C02F3FFF
:1009B00019F00196A11DB11D3FBFBA2FA92F982F85
:1009C0008827BC01CD01620F711D811D911D42E080
:1009D000660F771F881F991F4A95D1F708958F9248
:1009E0009F92AF92BF92CF92DF92EF92FF924B0114
:1009F0005C010E94CA046B017C010E94CA046C194C
:100A00007D098E099F09683E734081059105A8F311
:100A100021E0821A9108A108B10888EEC80E83E08F
:100A2000D81EE11CF11C81149104A104B10429F722
:100A3000FF90EF90DF90CF90BF90AF909F908F90FE
:100A400008958F929F92AF92BF92CF92DF92EF92D2
:100A5000FF920F931F93CF93DF936C017B018A0169
:100A600080910B01882309F45CC08091E001882308
:100A700009F457C08091D10180FF05C08091E0004A
:100A800082608093E000E801B12C8AEFA82E93E009
:100A9000892E2AE3922E209711F4BB20D9F10E94CF
:100AA000410181110AC0AA94AA20D9F161E070E045
:100AB00080E090E00E94EF04EECF8C171D0611F04D
:100AC0000CF08C2F9FB7F8948092E9002091E800F9
:100AD00025FD02C09FBFDFCF282F30E0C21BD30B04
:100AE000F701815020F041914093F100FACFE20EDE
:100AF000F31EBB2021F09092E800B12CEBCF809147
:100B0000E80085FDE7CF9092E800BB24B3942097DE
:100B100009F3F3CF5D9884E68093D2011016110695
:100B20003CF081E090E0F6019383828310E000E0E6
:100B3000C801DF91CF911F910F91FF90EF90DF904F
:100B4000CF90BF90AF909F908F9008952FB7F8945B
:100B50006091BB017091BC018091BD019091BE017B
:100B60002FBF0895FC0101900020E9F73197AF01F4
:100B7000481B590BBC0181EE91E00C9421058F922A
:100B80009F92AF92BF920F931F93CF93DF93CDB7F6
:100B9000DEB7A1970FB6F894DEBF0FBECDBF19A286
:100BA000423008F44AE08E010F5D1F4F842E912CD5
:100BB000B12CA12CA50194010E94B30CE62FB90120
:100BC000CA01EA30F4F4E05DD801EE938D01232BE5
:100BD000242B252B79F790E080E0109719F0CD01B8
:100BE0000E94B205A1960FB6F894DEBF0FBECDBF2E
:100BF000DF91CF911F910F91BF90AF909F908F90F9
:100C00000895E95CE1CF0C94B205CF93DF93682F90
:100C100081EE91E00E943603EC0187E391E00E94AF
:100C2000B2058C0F9D1FDF91CF9108951F920F92F7
:100C30000FB60F9211248F939F938091E1009091B2
:100C4000E100937F9093E10083FF0FC01092E900D1
:100C500091E09093EB001092EC0092E39093ED0002
:100C60001092E00198E09093F00082FF22C093E0A0
:100C70009093E9009091F200992319F09AE39093F0
:100C8000E8009091D201992341F09091D2019150C6
:100C90009093D201911101C05D9A9091DF01992347
:100CA00041F09091DF0191509093DF01911101C0CB
:100CB000289A84FF18C08091E2008E7E8160809324
:100CC000E2008091E1008F7E8093E1008091D1016C
:100CD0008E7E80618093D1019F918F910F900FBE86
:100CE0000F901F90189580FFF7CF8091E2008E7EC5
:100CF00080618093E2008091E1008E7E8093E1002C
:100D00008091D1018E7E8160E5CF1F920F920FB648
:100D10000F921124CF92DF92EF92FF920F931F93C5
:100D20002F933F934F935F936F937F938F939F93F3
:100D3000AF93BF93EF93FF93CF93DF93CDB7DEB71E
:100D40006C97DEBFCDBF1092E9008091E80083FF71
:100D500025C068E0CE0145960E941E0282EF809376
:100D6000E8008D8987FF39C09091E80090FFFCCFA3
:100D7000982F907609F034C19E894F89588D2F891C
:100D8000F88C911131C0803861F58091D001809349
:100D9000F1001092F1008EEF8093E8006C960FB690
:100DA000F894DEBF0FBECDBFDF91CF91FF91EF91E1
:100DB000BF91AF919F918F917F916F915F914F9173
:100DC0003F912F911F910F91FF90EF90DF90CF9067
:100DD0000F900FBE0F901F9018959EEF9093E80014
:100DE000C7CF1092F100D5CF913059F48111D3CFF4
:100DF0004130510581F68091D0018D7F8093D001E3
:100E0000CACF933049F48111C6CF4130510519F64C
:100E10008091D0018260F2CF953041F48091E8005A
:100E200080FFFCCF20682093E300B5CF963009F017
:100E3000A9C00B8D1C8D22E01092E9001092CE010A
:100E40001092CD01F2122EC01092CC011092CB0163
:100E50000E94ED011F8299E09983FA8291E09E83BE
:100E600090EA98879AEF99872091CD013091CE0131
:100E7000275F3F4F3C832B838D831092E9001092B4
:100E8000CE011092CD011093CC010093CB0149E02B
:100E900050E0BE016F5F7F4F80E00E94C7010E945B
:100EA000ED0179CF1093CC010093CB010E94520148
:100EB000DC0112960D911C910115110509F451C127
:100EC000D801ED91FC910480F581E02DBE016B5EAF
:100ED0007F4FC8010995009709F03EC1F8010085D0
:100EE0001185EACFF3E0FF120EC08F89882309F441
:100EF00040C0823061F440E860E18FE291E00E94FE
:100F00009401811148CF81E28093EB0047CF81307B
:100F100029F440E86BE083E291E0F1CF833099F768
:100F20000E945201DC011296ED90FC908E010F5F41
:100F30001F4F6801E114F10479F0D701ED91FC91A4
:100F40000680F781E02DB801C7010995080F111D32
:100F5000F701E084F184EECFD8011C92F6010190F4
:100F60000020E9F73197BF016C197D0940E0C60107
:100F7000C6CF6DE071E0FB01449150E080E80E9433
:100F8000C70109CF973009F4BECF983021F481E032
:100F90008093F10000CF993009F0FDCE837009F005
:100FA000B2CFEDE0F1E081E031E096E32191222340
:100FB00071F08093E9003093EB00DF0111972C91E1
:100FC0002093EC009093ED008F5F873079F78EE7E8
:100FD0008093EA001092EA008F898093E001DBCED3
:100FE0008B8D9C8D1092E9001092CE011092CD0154
:100FF0009093CC018093CB01898D811192C08E8911
:101000009D89913A49F4813209F07DCF47E050E063
:1010100064E071E080E0B3CF913209F074CF8332A5
:1010200069F48F89988DB0E0A0E0809300019093DF
:101030000101A0930201B0930301ADCE803269F4A7
:101040008091E80082FFFCCF67E084E091E00E949D
:101050001E028BEF8093E8009ECE823209F09BCE79
:101060008F8980930B01EEEFFFE7859194918B3F81
:101070009C4D51F1E0E0F8E0809104019091050170
:10108000A0910601B0910701803B9440A105B105F4
:10109000F1F480910B0180FD1AC0EE3F8AE0F80761
:1010A00089F587E797E7918380838091600080933B
:1010B000CF0188E19BE00FB6F894A895809360007B
:1010C0000FBE9093600067CEEEEFFAE0D5CF80813F
:1010D00091818737974709F05ECEA895809160008F
:1010E0008861809360008091CF0180936000EE3F23
:1010F0002AE0F20789F08091FE0A9091FF0A91831D
:10110000808349CE808191818737980751F29093EF
:10111000FF0A8093FE0AC5CF1092FF0A1092FE0AC2
:101120003ACE0E945201DC0112960D911C910115DC
:10113000110509F4E8CED801ED91FC910190F08100
:10114000E02DBE016B5E7F4FC8010995811123CE52
:10115000F80100851185EBCF181619060CF41BCE8B
:10116000D2CEF1E0FF12BECE61E171E004CF1F925A
:101170000F920FB60F9211242F933F934F935F93CB
:101180006F937F938F939F93AF93BF93EF93FF934F
:1011900087E792E00E94A902FF91EF91BF91AF9182
:1011A0009F918F917F916F915F914F913F912F917F
:1011B0000F900FBE0F901F9018951F920F920FB6B1
:1011C0000F9211242F938F939F93EF93FF93E091AE
:1011D0008702F09188028081E0918D02F0918E0269
:1011E00082FD1BC09081809190028F5F8F73209150
:1011F0009102821741F0E0919002F0E0E958FD4F32
:10120000958F80939002FF91EF919F918F912F91F5
:101210000F900FBE0F901F9018958081F4CF1F92F2
:101220000F920FB60F9211242F933F938F939F939A
:10123000AF93BF938091BB019091BC01A091BD0180
:10124000B091BE013091BA0123E0230F2D3758F53C
:101250000196A11DB11D2093BA018093BB0190930B
:10126000BC01A093BD01B093BE018091BF019091DC
:10127000C001A091C101B091C2010196A11DB11D93
:101280008093BF019093C001A093C101B093C201AC
:10129000BF91AF919F918F913F912F910F900FBE72
:1012A0000F901F90189526E8230F0296A11DB11DDF
:1012B000D2CFCF92DF92EF92FF920F931F93CF93F3
:1012C000DF93E7E7F2E01382128288EEC82E83E014
:1012D000D82EE12CF12CC482D582E682F78287E1F8
:1012E00091E0918380834DEC50E0558744872CEC4E
:1012F00030E03787268768EC70E0718B608BA9EC53
:10130000B0E0B38BA28B8AEC90E0958B848BCEEC13
:10131000D0E0D78BC68B118E128E138E148EC1EE39
:10132000D1E01B821A82CC82DD82EE82FF8209E24A
:1013300011E0198308830FEF1FEF1D870C87C1E3AE
:10134000D2E01E821F82188619861A861B861C868A
:101350001D861E861F86188A198A1A8A1B8A1C8A6D
:101360001D8A12E0EB011883EA01188240E1E901CD
:101370004883108E26E0FC0120838C9180618C9341
:101380008C9188608C938C9180688C938C918F7DEC
:101390008C93DF91CF911F910F91FF90EF90DF9091
:1013A000CF900895CF93DF9300D0CDB7DEB7789478
:1013B00084B5826084BD84B5816084BD85B582605A
:1013C00085BD85B5816085BD80916E00816080930B
:1013D0006E00109281008091810082608093810074
:1013E0008091810081608093810080918000816084
:1013F0008093800080919100826080939100809121
:101400009100816080939100809190008160809331
:1014100090008091C10084608093C1008091C100E0
:1014200082608093C1008091C10081608093C1007F
:101430008091C30081608093C3008091C00082606E
:101440008093C0008091C20081608093C20080912F
:101450007A00846080937A0080917A008260809321
:101460007A0080917A00816080937A0080917A007E
:10147000806880937A001092E0011092D00110925F
:10148000D1018091D70081608093D70080EA80935A
:10149000D80089B5806189BD89B5826089BD09B4EC
:1014A00000FEFDCF61E070E080E090E00E94EF047C
:1014B0008091D8008F7C80618093D8008091E0007B
:1014C000807F8093E0008091E1008E7E8093E10038
:1014D0008DE08093E200559A209A10927302109248
:1014E00074021092750210927602109233021092DA
:1014F000340210923502109236020E94A6056B014A
:101500007C014B015C0128EB820E2BE0921EA11C9A
:10151000B11C0E94A6056C157D058E059F0528F05F
:1015200086169706A806B906A0F768EE73E080E075
:1015300090E00E94EF048FEF9FEF9093EE01809375
:10154000ED010E94A60560933302709334028093EC
:101550003502909336028AE391E00E9403060E94CE
:10156000A6056B017C014B015C013AE0830E911CE6
:10157000A11CB11C0E94A6056C157D058E059F055A
:1015800028F086169706A806B906A0F781E0809392
:10159000470285E00E94F80086E00E94F80084E09F
:1015A0000E94F80087E00E94F800E0918702F09125
:1015B000880282E08083E0918702F09188021082A5
:1015C000E0918302F09184021082E0918502F09113
:1015D000860280E1808310928F02E0918B02F0916D
:1015E0008C0286E08083E0918902F0918A028081FA
:1015F00080618083E0918902F0918A028081886015
:101600008083E0918902F0918A02808180688083E2
:10161000E0918902F0918A0280818F7D80838FEF33
:101620009FEF9093EE018093ED018BE491E00E9497
:10163000B20587E391E00E94B20580E2382E00E017
:1016400010E094EFC92EDD24D394E12CF12C0E94FC
:10165000A605672B682B692B09F4E0C00E94A6053C
:101660008090C7019090C801A090C901B090CA01B4
:10167000681579058A059B0508F428C18090C70183
:101680009090C801A090C901B090CA019B01AC0123
:10169000281939094A095B0949015A013AEF8316A9
:1016A0009104A104B10408F4C1C06093C701709310
:1016B000C8018093C9019093CA01C0923F02D092A1
:1016C0004002E0924102F0924202109243021092D4
:1016D0004402109245021092460280913702909186
:1016E0003802A0913902B0913A0280933B02909364
:1016F0003C02A0933D02B0933E020E94A605609377
:101700003702709338028093390290933A020E9414
:10171000A605609333027093340280933502909350
:1017200036020E94A6054B015C0181E591E00E9412
:1017300003064AE061E070E080E090E00E94BF05AF
:1017400088E591E00E9403064AE0C501B4010E94C9
:10175000BF058AE591E00E940306809137029091CF
:101760003802A0913902B0913A02A5019401281BD8
:10177000390B4A0B5B0BCA01B9014AE00E94BF0555
:101780008AE591E00E940306609137027091380269
:101790008091390290913A0280903B0290903C02F5
:1017A000A0903D02B0903E02681979098A099B0910
:1017B0004AE00E94BF058CE591E00E9403060E946A
:1017C000A6054AE00E94BF058EE591E00E94B205A1
:1017D00087E391E00E94B2050E94A6052B013C011F
:1017E0005C014B0135E0830E911CA11CB11C0E94D1
:1017F000A605641575058605970528F086169706D3
:10180000A806B906A0F70E94A60560933702709358
:1018100038028093390290933A0208C00E94A605CC
:10182000623071058105910508F018CF1A8219827E
:10183000398287E792E00E94890218161906D4F5CA
:1018400087E792E00E946702E091C301F091C40132
:1018500041E050E04C0F5D1FE40FF51F80830E94B4
:1018600005068091C3019091C401181619060CF069
:1018700047C01092C4011092C301BE016F5F7F4F39
:1018800085EC91E00E94DB0C85E691E00E94030666
:101890006091C50181EE91E00E9436038091C601FE
:1018A0000E9405068091C501823409F442C0BCF44F
:1018B000813461F10115110509F4C9CE0E94950228
:1018C000882309F4C4CE0E940000C1CE6093C701F2
:1018D0007093C8018093C9019093CA01CFCE83341D
:1018E000A9F1843439F76091C60170E086E00E9466
:1018F000280461E087E00E94B70387EA91E012C004
:1019000001969093C4018093C301D4CF6091C60126
:1019100070E085E00E94280460E084E00E94B70344
:1019200080E791E00E9403068091C6010E940506AF
:10193000C1CF6091C60170E085E00E94280461E09B
:1019400084E00E94B70382E891E0ECCF6091C60189
:1019500070E086E00E94280460E087E00E94B70300
:1019600084E991E0DFCFA1E21A2EAA1BBB1BFD0187
:101970000DC0AA1FBB1FEE1FFF1FA217B307E4076E
:10198000F50720F0A21BB30BE40BF50B661F771FC6
:10199000881F991F1A9469F76095709580959095A6
:1019A0009B01AC01BD01CF010895EE0FFF1F059013
:1019B000F491E02D0994FB01DC0101900D920020CF
:0819C000E1F70895F894FFCF50
:1019C800FFFFFFFF00E100000000000000C1808170
:1019D80000000000000000CA022B0258021603890A
:1019E8000267027B02000000003603210557034C02
:1019F800039D035B0379030D0A00564D4450565F5F
:101A0800317C315F564D4450560A00524541445985
:101A180000564D4450455F003A323A007C005F560C
:101A28004D4450450052656365697665203A20004B
:101A380044726F69742C204176616E636572203A36
:101A4800200044726F69742C20526563756C65724E
:101A5800203A20004761756368652C204176616EE5
:101A6800636572203A20004761756368652C2052CF
:0A1A78006563756C6572203A20006A
:00000001FF
